:200000000C9408010C9430010C9430010C9430010C9430010C9430010C9430010C94300180
:200020000C9430010C9430010C9430010C9430010C9430010C9430010C9430010C94300138
:200040000C94C2150C9430010C9430010C9430010C9430010C9430010C9430010C94300172
:200060000C9430010C9430012320556E6B6E6F776E2073746174653A2025640A0023204CEE
:2000800054433239343320696E6974206661696C65642028697320706F77657220636F6ECD
:2000A0006E65637465643F290A00232053746174653A205245504F5254494E472E300A009B
:2000C00023204D6F64653A2025640A002530386C752025642E2530366C640A0020205453DA
:2000E000423D5B256C755D20205441573D5B256C755D20202341573D5B256C755D25730A04
:2001000000543D5B256C755D2020493D5B25752E253033755D2020513D5B25752E253033D4
:20012000755D20204941763D5B25752E253033755D00307825347820253475207C20253675
:200140006C75207C2025366C752025366C752025366C752025396C750A0023204C5443324D
:20016000393433206368617267652072656164696E67206661696C6564202832290A002306
:200180002053746174653A205245504F5254494E472E310A0023204C544332393433206346
:2001A00068617267652072656164696E67206661696C6564202831290A002320427574742B
:2001C0006F6E20707265737365640A0023204D6F6465206368616E6765640A00232053745C
:2001E0006174653A20494E49540A00232053746174653A204552524F520A000A000A537420
:2002000061727465640A00006A0D97120713141411241FBECFEFD8E0DEBFCDBF12E0A0E03F
:20022000B1E0E2EBFDE202C005900D92A430B107D9F713E0A4E0B2E001C01D92A136B10727
:20024000E1F712E0C0E1D2E004C02297FE010E94D316C830D107C9F70E94AC150C94D716FA
:200260000C940000A0E3B0E0E8E3F1E00C949A16A8E04E010894811C911CF401BA2F1192A1
:20028000BA95E9F729833A834B835C836D837E838F839887CE010996FC011192AA95E9F7CA
:2002A000A986BA86CB86DC86ED86FE860F87188B29813A814B815C812DA73EA74FA758AB2C
:2002C00079018A018FEF9FEFA0E0B0E0E822F9220A231B231A014424552429853A854B8534
:2002E0005C8529A73AA74BA75CA759016A01A822B922CA22DB223A0188249924C601B50103
:20030000A80197010E9445166DA37EA38FA398A7C401B3010E94451669A37AA38BA39CA3F1
:20032000C601B501A20191010E9445167B018C01C401B3010E9445165B016C0189A19AA161
:20034000ABA1BCA18E0D9F1DA01FB11F89A39AA3ABA3BCA32DA13EA14FA158A5CA01AA27C2
:20036000BB2729A13AA14BA15CA1280F391F4A1F5B1F29A33AA34BA35CA32E153F05400737
:20038000510740F480E090E0A1E0B0E0A80EB91ECA1EDB1E89A19AA1ABA1BCA19D0144276B
:2003A00055272A0D3B1D4C1D5D1D2D8F3E8F4F8F58A36C01BB24AA248DA19EA1AFA1B8A5B9
:2003C000A070B070A80EB91ECA1EDB1EA98EBA8ECB8EDC8E9A8C8B8C7C8C9E8D6F8D78A1B8
:2003E000FE01719688E0DF011D928A95E9F72D8B9E8B6F8B788F2D853E854F8558896DA5E3
:200400007EA58FA598A90E9445167B018C012D813E814F81588569A57AA58BA59CA50E94E4
:200420004516E60EF71E081F191F6D897E898F89988D6E0D7F1D801F911F6D8B7E8B8F8B3E
:20044000988FEE892A2D392D482D572D7E2F8F89988DE096E2E10C94B616EF92FF920F9305
:20046000DF93CF93CDB7DEB760970FB6F894DEBF0FBECDBFA82F002309F461C07E0108941E
:20048000E11CF11C88E0F70111928A95E9F729833A834B835C836D837E83AF83988780E296
:2004A000801BE82FFF27E7FDF09549815A816B817C81181684F019861A861B861C8688279A
:2004C00099278E1B9F0B04C0440F551F661F771F8A95D2F728C0202F332727FD3095DB0125
:2004E000CA01022E04C0880F991FAA1FBB1F0A94D2F789879A87AB87BC8704C07695679573
:2005000057954795EA95D2F78D819E81AF81B88504C0880F991FAA1FBB1F2A95D2F7482B80
:20052000592B6A2B7B2B4D875E876F87788B29853A854B855C856D857E85AF8598898A2F29
:2005400060960FB6F894DEBF0FBECDBFCF91DF910F91FF90EF900895AEE5B0E0E2EBF2E081
:200560000C949A16A8E04E010894811C911CF4016A2E11926A94E9F729833A834B835C834A
:200580006D837E838F839887CE010996FC011192AA95E9F7A986BA86CB86DC86ED86FE86F3
:2005A0000F87188B29843A844B845C84ED84FE840F85188969807A808B809C806DA67EA67F
:2005C0008FA698AA6D807E808F809884E114F1040105110509F0B3C362147304840495040B
:2005E00008F03DC100E0201600E0300601E0400600E0500688F41FEF2116310441045104EC
:2006000039F030F048E0E42EF12C012D112D18C0EE24FF24870114C020E0221620E03206F5
:2006200020E0420621E0520630F038E1E32EF12C012D112D05C020E1E22EF12C012D112DE7
:20064000D201C1010E2C04C0B695A795979587950A94D2F78C5F9E4FDC012C9180E290E08D
:20066000A0E0B0E08E199F09A00BB10B7C018D01E21AF10801091109E114F104010511058A
:20068000A1F10E2C04C0220C331C441C551C0A94D2F7A40193010E2C04C0220F331F441FF8
:2006A000551F0A94D2F780E290E08E199F096DA47EA48FA498A804C0969487947794679489
:2006C0008A95D2F7622A732A842A952AADA4BEA4CFA4D8A804C0AA0CBB1CCC1CDD1CEA9446
:2006E000D2F7ADA6BEA6CFA6D8AA6201EE24FF24CDAADEAAEFAAF8AE920181012070307068
:2007000009AF1AAF2BAF3CAFC401B301A70196010E9478167B018C01C401B3012DA93EA96C
:200720004FA958AD0E947816C901DA013C014D01C401B30129AD3AAD4BAD5CAD0E94451628
:200740009B01AC018701FF24EE24ADA4BEA4CFA4D8A8C601AA27BB2757016801A82AB92AFD
:20076000CA2ADB2AA216B306C406D506E0F408946108710881089108A20CB31CC41CD51CA8
:20078000A214B304C404D50470F0A216B306C406D50648F408946108710881089108A20C4B
:2007A000B31CC41CD51CA21AB30AC40AD50AC601B5012DA93EA94FA958AD0E9478167B0190
:2007C0008C01C601B5012DA93EA94FA958AD0E947816C901DA015C016D01C601B50129AD62
:2007E0003AAD4BAD5CAD0E9445169B01AC018701FF24EE248DA59EA5AFA5B8A9A070B070B4
:20080000E82AF92A0A2B1B2BE216F30604071507C0F40894A108B108C108D108E20CF31CBF
:20082000041D151DE214F3040405150550F0E216F3060407150728F40894A108B108C1081A
:20084000D108D3019927882786017501E82AF92A0A2B1B2BE9AAFAAA0BAB1CABCFC4211453
:2008600031044104510471F461E070E080E090E020E030E040E050E00E947816C901DA01AE
:200880001C012D0100E0201600E0300601E0400600E0500688F41FEF2116310441045104F4
:2008A00031F028F048E050E060E070E017C040E050E060E070E012C020E0221620E032061E
:2008C00020E0420621E0520628F048E150E060E070E004C040E150E060E070E0D201C1013C
:2008E000042E04C0B695A795979587950A94D2F78C5F9E4FDC012C91E0E2EE2EF12C012D31
:20090000112DD801C701841B950BA60BB70B821B9109A109B1090097A105B10561F46401FE
:200920005301A218B308C408D50831E0632E712C812C912C1EC16F968FAF6F97082E04C07A
:20094000220C331C441C551C0A94D2F7EE2DE81B640153010E2E04C0D694C794B794A794C0
:200960000A94D2F7A40193016F960FAC6F9704C0220F331F441F551F0A94D2F76DA47EA459
:200980008FA498A80E2E04C096948794779467940A94D2F784017301E22AF32A042B152BA1
:2009A000E9A6FAA60BA71CA7320188249924920181012070307021960CAF1DAF2EAF3FAFA9
:2009C0002197C601B501A40193010E9478167B018C01C601B501A40193010E947816C901C0
:2009E000DA0125968CAF9DAFAEAFBFAF2597BC01CD0121962CAD3DAD4EAD5FAD21970E94ED
:200A000045169B01AC018701FF24EE24A9A4BAA4CBA4DCA4C601AA27BB275C016D01AE28C0
:200A2000BF28C02AD12AA216B306C406D50660F525966CAD7DAD8EAD9FAD259761507040DD
:200A40008040904025966CAF7DAF8EAF9FAF2597A20CB31CC41CD51CA214B304C404D50461
:200A600098F0A216B306C406D50670F4615070408040904025966CAF7DAF8EAF9FAF25973A
:200A8000A20CB31CC41CD51CA21AB30AC40AD50AC601B501A40193010E9478167B018C01F3
:200AA000C601B501A40193010E947816C901DA013C014D01C401B30121962CAD3DAD4EAD32
:200AC0005FAD21970E9445169B01AC018701FF24EE2489A59AA5ABA5BCA5A070B0705701A9
:200AE0006801A82AB92ACA2ADB2AA216B306C406D506E0F408946108710881089108A20CA7
:200B0000B31CC41CD51CA214B304C404D50470F0A216B306C406D50648F4089461087108F7
:200B200081089108A20CB31CC41CD51C8DA59EA5AFA5B8A96F960FAC6F9704C0880F991F42
:200B4000AA1FBB1F0A94D2F78DA79EA7AFA7B8ABA21AB30AC40AD50A2596ECACFDAC0EAD7C
:200B60001FAD2597D70199278827682A792A8A2A9B2A82012227332729960CAF1DAF2EAFAF
:200B80003FAF2997A2019101407050702D962CAF3DAF4EAF5FAF2D97C601B50129962CAD94
:200BA0003DAD4EAD5FAD29970E9478167B018C01C601B50129962CAD3DAD4EAD5FAD299785
:200BC0000E947816C901DA0161968CAF9DAFAEAFBFAF6197BC01CD012D962CAD3DAD4EADF3
:200BE0005FAD2D970E9445169B01AC018701FF24EE24ADA4BEA4CFA4D8A8C601AA27BB2702
:200C000057016801A82AB92ACA2ADB2AA216B306C406D50660F561966CAD7DAD8EAD9FAD39
:200C20006197615070408040904061966CAF7DAF8EAF9FAF6197A20CB31CC41CD51CA21406
:200C4000B304C404D50498F0A216B306C406D50670F4615070408040904061966CAF7DAF0B
:200C60008EAF9FAF6197A20CB31CC41CD51CA21AB30AC40AD50AC601B50129962CAD3DAD7E
:200C80004EAD5FAD29970E9478167B018C01C601B50129962CAD3DAD4EAD5FAD29970E94EC
:200CA0007816C901DA015C016D01C601B5012D962CAD3DAD4EAD5FAD2D970E9445169B01CF
:200CC000AC018701FF24EE248DA59EA5AFA5B8A9A070B070E82AF92A0A2B1B2BE216F306AF
:200CE00004071507C0F40894A108B108C108D108E20CF31C041D151DE214F3040405150519
:200D000050F0E216F3060407150728F40894A108B108C108D1086196ECACFDAC0EAD1FAD00
:200D20006197D7019927882796018501082B192B2A2B3B2B09AB1AAB2BAB3CAB62C26E1449
:200D40007F048006910608F451C220E0E21620E0F20621E0020720E0120788F43FEFE3162E
:200D6000F1040105110531F028F048E050E060E070E017C040E050E060E070E012C040E098
:200D8000E41640E0F40640E0040741E0140728F048E150E060E070E004C040E150E060E082
:200DA00070E0D801C701042E04C0B695A795979587950A94D2F78C5F9E4FDC012C9130E292
:200DC000A32EB12CC12CD12CD601C501841B950BA60BB70B821B9109A109B1090097A10554
:200DE000B10589F4E614F7040805190508F4F2C16DA47EA48FA498A862147304840495043D
:200E000008F0E8C1F3C16E968FAF6E97082E04C0EE0CFF1C001F111F0A94D2F76A2D681B57
:200E2000D201C101062E04C0B695A795979587950A94D2F75C016D01AE28BF28C02AD12A82
:200E4000ADA2BEA2CFA2D8A6720161016E960FAC6E9704C0CC0CDD1CEE1CFF1C0A94D2F73A
:200E6000C9A2DAA2EBA2FCA264015301062E04C0D694C794B794A7940A94D2F7D401C30164
:200E80006E960FAC6E9704C0880F991FAA1FBB1F0A94D2F7EDA4FEA40FA518A904C016955A
:200EA0000795F794E7946A95D2F737014801682A792A8A2A9B2A6D8E7E8E8F8E98A2EDA0AE
:200EC000FEA00FA118A5380188249924980187012070307065960CAF1DAF2EAF3FAF6597CB
:200EE000C601B501A40193010E9478167B018C01C601B501A40193010E947816C901DA0178
:200F00001C012D01C201B10165962CAD3DAD4EAD5FAD65970E9445169B01AC018701FF245F
:200F2000EE24AD8CBE8CCF8CD8A0C601AA27BB2757016801A82AB92ACA2ADB2AA216B306EF
:200F4000C406D50600F508942108310841085108EDA0FEA00FA118A5AE0CBF1CC01ED11E5D
:200F6000AE14BF04C006D10670F0A216B306C406D50648F408942108310841085108AE0C43
:200F8000BF1CC01ED11EA21AB30AC40AD50AC601B501A40193010E9478167B018C01C601CD
:200FA000B501A40193010E947816C901DA013C014D01C401B30165962CAD3DAD4EAD5FADA4
:200FC00065970E9445169B01AC018701FF24EE248D8D9E8DAF8DB8A1A070B0705701680147
:200FE000A82AB92ACA2ADB2AA216B306C406D50600F5089461087108810891086DA17EA16B
:201000008FA198A5A60EB71EC81ED91EA616B706C806D90670F0A216B306C406D50648F425
:2010200008946108710881089108A60EB71EC81ED91ED601C501821B930BA40BB50B898F4B
:201040009A8FAB8FBC8FD1019927882764015301A82AB92ACA2ADB2AA9AABAAACBAADCAA88
:20106000860175012FEF3FEF40E050E0E222F32204231523A601662777276D964CAF5DAF83
:201080006EAF7FAF6D97A9A0BAA0CBA0DCA06FEF7FEF80E090E0A622B722C822D92289A12B
:2010A0009AA1ABA1BCA11D0144245524C801B701A60195010E94451669966CAF7DAF8EAF0F
:2010C0009FAF6997C801B701A20191010E9445163B014C016D966CAD7DAD8EAD9FAD6D97B5
:2010E000A60195010E9445167B018C016D966CAD7DAD8EAD9FAD6D97A20191010E944516AA
:201100005B016C01A8019701260D371D481D591D69966CAC7DAC8EAC9FAC6997C401AA2708
:20112000BB27280F391F4A1F5B1F2E153F054007510748F4E12CF12C61E0062F112DAE0C61
:20114000BF1CC01ED11ECA01AA27BB27BC01CD016A0D7B1D8C1D9D1D698C7A8C8B8C9C8C32
:20116000661677068806990640F1661577058805990509F043C0D9019927882769962CADD9
:201180003DAD4EAD5FAD699740705070820F931FA41FB51F2DA53EA54FA558A96E960FACAB
:2011A0006E9704C0220F331F441F551F0A94D2F7281739074A075B0708F509A91AA92BA92D
:2011C0003CA9015010402040304009AB1AAB2BAB3CAB14C066247724430121E030E040E015
:2011E00050E029AB3AAB4BAB5CAB0BC066247724430119AA1AAA1BAA1CAA03C066247724DB
:201200004301FE01719688E0DF011D928A95E9F7A9A8BAA8CBA8DCA8A98ABA8ACB8ADC8AB2
:201220006D8A7E8A8F8A988E29A93A894B895C89662D7E898F89988DC25ADF4FE2E10C949E
:20124000B616AEE0B0E0E7E2F9E00C94A8168C0177FF02C060E070E8615070407E836D83F5
:201260001A8309838EE08C83CE010196BA01A9010E944B092D813E8137FD09C0EF81F885B0
:201280002E173F070CF4F901E00FF11F10822E96E4E00C94C416ABE0B0E0E1E5F9E00C94DC
:2012A0009A163C012B015A01FC0117821682838181FD03C06FEF7FEFC6C19AE0892E1E01A4
:2012C0000894211C311CF3012381F20123FD859123FF81912F01882309F4B2C1853239F4C4
:2012E00023FD859123FF81912F01853229F490E0B3010E943E0BE7CF982FFF24EE24992402
:20130000FFE1FF15D0F09B3269F09C3228F4903259F0933291F40EC09D3249F0903369F4BE
:2013200041E024C052E0F52A84E0F82A28C098E0F92A25C0E0E1FE2A22C0F7FC29C0892F0A
:2013400080538A3070F4F6FE05C0989C902C1124980E15C0E89CE02C1124E80EF0E2FF2A8D
:201360000EC09E3229F4F6FC6BC140E4F42A07C09C3619F450E8F52A02C0983649F4F20195
:2013800023FD959123FF91912F01992309F0B8CF892F8554833018F08052833038F444E036
:2013A00050E0A40EB51E5FE359830FC0933631F0933779F0933509F056C020C0F5018081C0
:2013C000898342E050E0A40EB51E610101E010E012C0F501C080D180F6FC03C06FEF7FEF1D
:2013E00002C0692D70E042E050E0A40EB51EC6010E94330B8C015FE7F52214C0F501C080D3
:20140000D180F6FC03C06FEF7FEF02C0692D70E042E050E0A40EB51EC6010E94280B8C0152
:2014200050E8F52AF3FE07C01AC080E290E0B3010E943E0BEA948E2D90E008171907A8F3CF
:201440000EC0F601F7FC8591F7FE81916F0190E0B3010E943E0BE110EA9401501040011512
:20146000110579F7EAC0943611F0993669F5F7FE08C0F501208131814281538184E090E0D3
:201480000AC0F501808191819C01442737FD4095542F82E090E0A80EB91E9FE6F92257FF90
:2014A00009C050954095309521953F4F4F4F5F4FE0E8FE2ACA01B901A1012AE030E00E9481
:2014C0006A0BD82ED21840C0953729F41F2D1F7E2AE030E01DC01F2D197F9F3661F090370D
:2014E00020F4983509F0ACC00FC0903739F0983709F0A6C004C028E030E00AC0106114FD91
:20150000146020E130E004C014FD166020E132E017FF08C0F501608171818281938144E006
:2015200050E008C0F50180819181BC0180E090E042E050E0A40EB51EA1010E946A0BD82E87
:20154000D2188FE7F82EF122F6FE0BC05EEFF522D91438F4F4FE07C0F2FC05C08FEEF822B3
:2015600002C01D2D01C0192DF4FE0DC0FE01ED0DF11D8081803319F499EEF92208C01F5FE9
:20158000F2FE05C003C08F2D867809F01F5F0F2DF3FC14C0F0FE0FC01E1510F09D2C0BC01F
:2015A0009D2C9E0C911A1E2D06C080E290E0B3010E943E0B1F5F1E15C0F304C01E1510F42C
:2015C000E11A01C0EE2404FF0FC080E390E0B3010E943E0B02FF1DC001FD03C088E790E07B
:2015E0000EC088E590E00BC0802F867891F001FF02C08BE201C080E2F7FC8DE290E0B3016F
:201600000E943E0B06C080E390E0B3010E943E0B9A94D914C0F3DA94F101ED0DF11D808170
:2016200090E0B3010E943E0BDD20A9F706C080E290E0B3010E943E0BEA94EE20C1F743CE72
:20164000F30166817781CB012B96E2E10C94B616FC010590615070400110D8F780959095EE
:201660008E0F9F1F0895FC016150704001900110D8F7809590958E0F9F1F08950F931F931D
:20168000CF93DF938C01EB018B8181FF1BC082FF0DC02E813F818C819D812817390764F4D7
:2016A000E881F9810193F983E88306C0E885F985802F0995892B31F48E819F8101969F830D
:2016C0008E8302C00FEF1FEFC801DF91CF911F910F910895FA01AA27283051F1203181F17C
:2016E000E8946F936E7F6E5F7F4F8F4F9F4FAF4FB1E03ED0B4E03CD0670F781F891F9A1F6D
:20170000A11D680F791F8A1F911DA11D6A0F711D811D911DA11D20D009F468943F912AE013
:20172000269F11243019305D3193DEF6CF010895462F4770405D4193B3E00FD0C9F7F6CF40
:20174000462F4F70405D4A3318F0495D31FD4052419302D0A9F7EACFB4E0A69597958795B7
:2017600077956795BA95C9F700976105710508959B01AC010A2E06945795479537952795D7
:20178000BA95C9F7620F731F841F951FA01D08952F923F924F925F926F927F928F929F92BE
:2017A000AF92BF92CF92DF92EF92FF920F931F93DF93CF9300D000D0CDB7DEB79A838983A9
:2017C0007C836B83FC01A480B580C680D7809501A60160E070E080E090E0B0E8AB2EA8E88B
:2017E000BA2EF2E0CF2EDD24EE24FF2400E010E00E943201292E922E832E742E652E562ED6
:20180000472E382E292D382D472D562D652D742D832DE0E4AE2EB2E4BB2EAFE0CA2E0E9410
:20182000AC02C901BA01EB81FC812083918342837383292D382D472D562D652D742D832D85
:20184000922D04E00E942D02122FF32EE42ED52EA62E772E682E592E0E942D02A32FB42F81
:20186000052FC62EB72E882E922E911AF1E0291508F0F0E03A2F3F19E1E0A31708F0E0E06F
:20188000F32EFF1A21E03F1508F020E0E22B4B2F4E1931E0B41708F030E0E42EEE1A21E0D4
:2018A0004E1508F020E0322B502F5D1941E0051708F040E0D52ED31A21E05D1508F020E0CB
:2018C000422B6C2D6A1931E0C61608F030E0C62EC41A21E06C1508F020E0322B7B2D7719A9
:2018E00041E0B71608F040E0B72EB31A21E07B1508F020E0422B882D861921E0881608F04F
:2019000020E0A82EA41A31E08A1508F030E0232B192F1519121B292D3F2D4E2D5D2D6C2D2A
:201920007B2D8A2D912F04E00E942D02A32FB42F052F862E772E682E522E5918F1E02515FF
:2019400008F0F0E03A2F3F19E1E0A31708F0E0E0932E9F1A21E0391508F020E0E22B4B2F83
:201960004E19F1E0B41708F0F0E0F42EFE1A21E04F1508F020E0F22B502F5D19E1E0051716
:2019800008F0E0E0052F0F1B21E0501708F020E0E22B682D6C19F1E0861608F0F0E0B62F90
:2019A000BE1B21E06B1708F020E0F22B772D7B19E1E0771608F0E0E0A72FAF1B21E07A1746
:2019C00008F020E0E22B862D8A19F1E0681608F0F0E0282F2E1BE22F21E08E1708F020E046
:2019E000F22B911B252D392D4F2D502F6B2F7A2F8E2F9F1BF8EEAF2EE3E0BE2ECC24DD244E
:201A0000EE24FF2400E010E00E94AC02E981FA812080318042805380510162010E94AC02A1
:201A2000C901BA01EB81FC8124839583468377830F900F900F900F90CF91DF911F910F911A
:201A4000FF90EF90DF90CF90BF90AF909F908F907F906F905F904F903F902F900895CF9266
:201A6000DF92EF92FF920F931F936C017A018B01CB01BA0120E432E44FE050E00E947816EB
:201A8000F6013183208340E050E0CA01B90120EC3DEB40EF5FEF0E9445166E0D7F1D801FBF
:201AA000911FF60162837383848395836C507E4F8F4F9F4F28EE33E040E050E00E94781687
:201AC000F601378326831F910F91FF90EF90DF90CF900895E6E4F2E0109246024AE050E003
:201AE00050934802409347021092490281E090E09583848321E020934C025087478320936A
:201B00004F02938782870E94A315609342027093430280934402909345020895CF93DF9344
:201B2000EC0188818230D9F08330D1F1813009F051C08A85882309F44DC082E08883F89447
:201B4000E981FA8180819D81892B808378940E94A3156E837F83888799871A863BC00E9405
:201B6000A3152E813F8148855985621B730B840B950B653171058105910560F183E0888382
:201B8000F894E981FA8190818D8180958923808378940E94A3156E837F83888799871AC08F
:201BA0000E94A3152E813F8148855985621B730B840B950B6F3171058105910558F081E0AC
:201BC0008883F894E981FA8190818D818095892380837894DF91CF91089583E08093520263
:201BE0001092050280915B0290E0817090708093410280916702282F23702093040283FF78
:201C00001DC000D000D0EDB7FEB7319680EC90E0ADB7BEB712969C938E9311972283138298
:201C20000E9403150F900F908AEA90E0EDB7FEB7928381830E9403150F900F90089581E060
:201C4000809352028091670283FF0BC000D08CED91E0EDB7FEB7928381830E9403150F90D1
:201C60000F90089584E0809352028091670283FF0BC000D08BEE91E0EDB7FEB7928381836A
:201C80000E9403150F900F900E94A3156093420270934302809344029093450281E080933C
:201CA000820208950E944914882319F00E94ED0D089500D08DE790E0EDB7FEB792838183F1
:201CC0000E9403150F900F900E94320E0895AF92BF92CF92DF92EF92FF920F931F93DF9351
:201CE000CF93CDB7DEB7AA970FB6F894DEBF0FBECDBF20916702922F93708091040298173D
:201D000091F023FF0DC000D08CEC91E0ADB7BEB712969C938E9311970E9403150F900F9029
:201D20000E94FF1423C080915B02282F30E021703070922F80914102882311F080E001C023
:201D4000822F909341028823A1F00E94FF148091670283FF0BC000D08AEB91E0EDB7FEB7A5
:201D6000928381830E9403150F900F900E94ED0D52C380910502882309F091C08AE092E0B8
:201D80000E946114882321F400D085E991E0B0C081E0809305020E94A3156093060270937A
:201DA0000702809308029093090210920C0210920D0210920E0210920F02109210021092B3
:201DC00011021092120210921302109214021092150210921602109217021092180210923F
:201DE000190210921A0210921B0210921C0210921D0210921E0210921F02109220021092DF
:201E000021021092220210922302109224021092250210922602109227021092280210927E
:201E2000290210922A0210922B021092310210923002109233021092320210922C02109212
:201E40002D0210922E0210922F0210923402109235021092360210923702109238021092CA
:201E6000390210923A0210923B0210923C0210923D0210923E0210923F02109240028091EF
:201E8000670283FFC8C200D08FE791E0EDB7FEB7928381830E9403150F900F90BCC20E948C
:201EA000A31520910602309107024091080250910902621B730B840B950B64367105810560
:201EC00091050CF4A8C22C593F4F4F4F5F4F20930602309307024093080250930902CE0182
:201EE00001960E946114882381F400D08AE591E0ADB7BEB712969C938E9311970E94031531
:201F00000F900F900E94320E86C229813A8180910A0290910B027901E81AF90A30930B025A
:201F200020930A0280910C0290910D02A0910E02B0910F028C599F4FAF4FBF4F80930C0200
:201F400090930D02A0930E02B0930F02970140E050E08091100290911102A0911202B091F3
:201F60001302820F931FA41FB51F8093100290931102A0931202B093130280911402909130
:201F80001502A0911602B09117028C599F4FAF4FBF4F8093140290931502A0931602B093B7
:201FA00017028091180290911902A0911A02B0911B02820F931FA41FB51F809318029093CC
:201FC0001902A0931A02B0931B0260913002709131026F5F7F4F70933102609330028091D8
:201FE0002C0290912D02A0912E02B0912F020196A11DB11D80932C0290932D02A0932E0277
:20200000B0932F02E0E0BAE0EB16F10408F44AC0E1E08091240290912502A0912602B0911C
:2020200027028C599F4FAF4FBF4F8093240290932502A0932602B0932702809128029091F2
:202040002902A0912A02B0912B02280F391F4A1F5B1F209328023093290240932A0250936B
:202060002B028091380290913902A0913A02B0913B020196A11DB11D8093380290933902D3
:20208000A0933A02B0933B0280913202909133020196909333028093320280914002882382
:2020A000E9F14FC080911C0290911D02A0911E02B0911F028C599F4FAF4FBF4F80931C0205
:2020C00090931D02A0931E02B0931F028091200290912102A0912202B0912302280F391F46
:2020E0004A1F5B1F209320023093210240932202509323028091340290913502A09136023B
:20210000B09137020196A11DB11D8093340290933502A0933602B093370213C080913C0276
:2021200090913D02A0913E02B0913F020196A11DB11D80933C0290933D02A0933E02B093C0
:202140003F02E09340028091040290E08C01000F111F080F191F0A5B1D4FF8018181928108
:202160006817790708F457C18CE092E0BE016D5F7F4F0E94C80B4F81588569857A85CE0137
:202180000B960E942F0D84E192E0BE016D5E7F4F0E94C80B4B895C896D897E89CE014B96B6
:2021A0000E942F0D4F89588D698D7A8DCE0183960E942F0D81E0809377028091670283FFD8
:2021C0004FC08DB79EB74A970FB6F8949EBF0FBE8DBFEDB7FEB7319682E391E0ADB7BEB7E0
:2021E00012969C938E93119789819A8193838283F582E4828F819885A985BA858683978365
:20220000A087B1878091140290911502A0911602B091170282879387A487B58780911802A8
:2022200090911902A0911A02B0911B0286879787A08BB18B8B899C89AD89BE89828B938B44
:20224000A48BB58B8F89988DA98DBA8D868B978BA08FB18F0E940315EDB7FEB77A96BEC012
:20226000D8018C91882309F489C0EDB7FEB772970FB6F894FEBF0FBEEDBF319681E091E0F5
:20228000ADB7BEB712969C938E9311978091140290911502A0911602B091170282839383A8
:2022A000A483B5838B859C859783868389899A89918780878B8D9C8D9387828789A19AA14E
:2022C000958784878BA19CA19787868789A59AA5918B808B0E940315A0901C02B0901D0248
:2022E000C0901E02D0901F02E0902402F0902502009126021091270240913C0250913D02FE
:2023000060913E0270913F02EDB7FEB772960FB6F894FEBF0FBEEDBF8091320290913302C7
:20232000892B19F420E031E002C021E031E08DB79EB740970FB6F8949EBF0FBE8DBFEDB71C
:20234000FEB731968CED90E0ADB7BEB712969C938E931197A282B382C482D582E682F782C8
:20236000008711874287538764877587378726870E940315EDB7FEB7709630C08DB79EB7A7
:202380000C970FB6F8949EBF0FBE8DBFEDB7FEB731968CEC90E0ADB7BEB712969C938E93FA
:2023A00011978091140290911502A0911602B091170282839383A483B5838B859C859783AE
:2023C00086838D859E85AF85B88980879187A287B3870E940315EDB7FEB73C960FB6F89492
:2023E000FEBF0FBEEDBF10920C0210920D0210920E0210920F0210921002109211021092D6
:2024000012021092130210923102109230021092330210923202AA960FB6F894DEBF0FBEA0
:20242000CDBFCF91DF911F910F91FF90EF90DF90CF90BF90AF900895CF93DF93C8E6D0E0B7
:202440000E9424150E9428130E94C3120E94E3148DE692E00E948E0D88E792E00E948E0D74
:2024600080915202833039F0843041F08130E1F40E94520EE5CF0E94670EE2CF0E94A315D8
:2024800020914202309143024091440250914502621B730B840B950B685E734080409040CF
:2024A00078F20E941F0ECCCF00D000D0EDB7FEB73196ADB7BEB71296DC93CE93119782838A
:2024C00013820E9403150F900F900F900F900E94320EB6CF15BC14BC0E949F14809167025A
:2024E00083FF04C000D08DEF91E003C000D08BEF91E0EDB7FEB7928381830E9403150F9090
:202500000F900E945D130E94001304C00E9424150E942813809166028823C1F30E949C14AF
:202520000E941F0E789481E080937702089582E390E090935402809353020E94A315609333
:202540005602709357028093580290935902109255020E94A31560935602709357028093CF
:2025600058029093590210925A0210925B0289E290E090935D0280935C0284E080935E02E1
:2025800052985A9A0895E0915C02F0915D02808120E090915E02892309F421E0809155027D
:2025A000281769F0209355020E94A3156093560270935702809358029093590208950E944E
:2025C000A31520915602309157024091580250915902621B730B840B950B209153023091C8
:2025E000540240E050E0261737074807590738F481E080935A028091550280935B0208959A
:2026000087B1807F87B988B18F6088B9089582E390E09093600280935F020E94A315609322
:202620006202709363028093640290936502109261020E94A315609362027093630280939A
:202640006402909365021092660210926702089596B190959F7080916102981769F09093BE
:2026600061020E94A3156093620270936302809364029093650208950E94A31520916202CF
:20268000309163024091640250916502621B730B840B950B20915F023091600240E050E0E6
:2026A000261737074807590738F481E080936602809161028093670208951092800083E0D6
:2026C000809381001092850010928400109289001092880010928B0010928A0010926F005A
:2026E00016BA08951092B9008CE08093B8000895982F84EA8093BC008091BC0087FFFCCF1C
:202700008091B900887F883021F0803111F080E008959093BB0084E88093BC008091BC008A
:2027200087FFFCCF9091B900987F983111F481E0089580E0903409F481E0089584E98093EC
:20274000BC008091BC0084FFFCCF08958093BB0084E88093BC008091BC0087FFFCCF8091CD
:20276000B90090E0887F883209F491E0892F0895FC0184EC8093BC008091BC0087FFFCCF52
:202780008091BB00808381E00895FC0184E88093BC008091BC0087FFFCCF8091BB00808347
:2027A00081E008950F931F938C01FB01DC0112967C936E93119732971496FC93EE931397D4
:2027C000329681E090E002C0880F991F4A95E2F715968C932291282B2083F894D801119618
:2027E000ED91FC911297908115968C9180958923808378940E94A315F8016683778380873F
:202800009187128681E08083F894D8011196ED91FC911297908115968C9180958923808347
:2028200078941F910F9108958BE290E0909369028093680289E290E090936B0280936A02CD
:2028400088E080936C02539AF8945B9878948DE692E065E270E041E00E94D21388E792E012
:2028600065E270E040E00E94D2138BE290E0909384028093830289E290E090938602809363
:20288000850280E180938702549AF8945C98789408951F9388EC0E947813882361F081E0ED
:2028A0000E94A613882339F080EC0E94A613811181E0182F01C010E00E949E13812F1F9184
:2028C0000895EF92FF921F93DF93CF9300D0CDB7DEB77C0188EC0E9478138823C1F082E0FE
:2028E0000E94A613882399F089EC0E947813882371F0CE0101960E94B813882341F0CE011D
:2029000002960E94C513882311F011E001C010E00E949E13112339F089816A810E94BB1540
:20292000F70191838083812F0F900F90CF91DF911F91FF90EF9008950E9472130895109209
:20294000D9021092D8021092C50080E18093C40082E08093C00088E08093C10086E0809397
:20296000C20008959091D8028A30E9F4973750F52091D902E22FE90FE83708F0E857F0E098
:20298000E652FD4F8DE080839F5FE92FE20FE83708F0E857F0E0E652FD4F8AE080839F5F27
:2029A0009093D8020895983768F4E091D902E90FE83708F0E857F0E0E652FD4F80839F5F63
:2029C0009093D80208959091D8029923B9F08091C00085FF13C08091D902E82FF0E0E652CA
:2029E000FD4FE0818F5F8093D902883710F01092D90291509093D802E093C60008958AE0F4
:202A00000E94B21408950F931F93DF93CF93CDB7DEB7FE0137964191519188E892E060E5C9
:202A200070E09F010E94210908E812E004C00E94B2140F5F1F4FF80180818823C1F7CF9133
:202A4000DF911F910F9108954F925F926F927F928F929F92AF92BF92CF92DF92EF92FF926D
:202A60000F931F93F8942091840030918500789440905603509057032419350960905203CC
:202A8000709053038090540390905503C90164EC79E00E9464165B018CE396EFAC01649F72
:202AA000C001659F900D749F900D1124820F931F6AEF70E00E9464166B017B0100E010E00F
:202AC000B50180E090E02AE030E040E050E00E944516660E771E881E991EE60CF71C081D79
:202AE000191DE0925203F092530300935403109355038AEF90E0C89E9001C99E300DD89E22
:202B0000300D112484EC99E0AC01A49EC001A59E900DB49E900D1124840D951D280F391FD4
:202B200030935703209356031F910F91FF90EF90DF90CF90BF90AF909F908F907F906F9056
:202B40005F904F900895609152037091530380915403909155030895CF93DF930E940A1659
:202B60000E946A12C0E0D0E00E941C122097E1F30E940000F9CF70E0382F20E0622B732B40
:202B8000CB0108951F920F920FB60F9211242F933F938F939F93AF93BF9380915C039091D2
:202BA0005D03A0915E03B0915F03309160030196A11DB11D232F2D5F2D3720F02D570196CC
:202BC000A11DB11D2093600380935C0390935D03A0935E03B0935F0380915803909159033C
:202BE000A0915A03B0915B030196A11DB11D8093580390935903A0935A03B0935B03BF9117
:202C0000AF919F918F913F912F910F900FBE0F901F901895789484B5826084BD84B58160AB
:202C200084BD85B5826085BD85B5816085BDEEE6F0E0808181608083E1E8F0E010828081E3
:202C400082608083808181608083E0E8F0E0808181608083E1EBF0E0808184608083E0EBDE
:202C6000F0E0808181608083EAE7F0E080818460808380818260808380818160808380814A
:202C8000806880831092C1000895629FD001739FF001829FE00DF11D649FE00DF11D929F29
:202CA000F00D839FF00D749FF00D659FF00D9927729FB00DE11DF91F639FB00DE11DF91F6E
:202CC000BD01CF0111240895AA1BBB1B51E107C0AA1FBB1FA617B70710F0A61BB70B881FB8
:202CE000991F5A95A9F780959095BC01CD010895A1E21A2EAA1BBB1BFD010DC0AA1FBB1F57
:202D0000EE1FFF1FA217B307E407F50720F0A21BB30BE40BF50B661F771F881F991F1A948C
:202D200069F760957095809590959B01AC01BD01CF0108952F923F924F925F926F927F9215
:202D40008F929F92AF92BF92CF92DF92EF92FF920F931F93CF93DF93CDB7DEB7CA1BDB0B9F
:202D60000FB6F894DEBF0FBECDBF09942A88398848885F846E847D848C849B84AA84B984BC
:202D8000C884DF80EE80FD800C811B81AA81B981CE0FD11D0FB6F894DEBF0FBECDBFED010F
:202DA0000895EE0FFF1F0590F491E02D0994F894FFCF00202A0000010202030303030404DA
:202DC00004040404040405050505050505050505050505050505060606060606060606064F
:202DE000060606060606060606060606060606060606060606060707070707070707070709
:202E00000707070707070707070707070707070707070707070707070707070707070707D2
:202E20000707070707070707070707070707070707070707070708080808080808080808A8
:202E4000080808080808080808080808080808080808080808080808080808080808080872
:202E6000080808080808080808080808080808080808080808080808080808080808080852
:202E8000080808080808080808080808080808080808080808080808080808080808080832
:202EA00008080808080808080808080808080808080808080808FFFFFFFFFFFFFFFFFFFF6C
:202EC000FFFFFFFFFFFFFFFFFFFFFFFFFFFFFFFFFFFFFFFFFFFFFFFFFFFFFFFFFFFFFFFF12
:202EE000FFFFFFFFFFFFFFFFFFFFFFFFFFFFFFFFFFFFFFFFFFFFFFFFFFFFFFFFFFFFFFFFF2
:202F00000895EE0FFF1F0590F491E02D0994F894FFCF00202A000001020203030303040478
:202F20000404040404040505050505050505050505050505050506060606060606060606ED
:202F40000606060606060606060606060606060606060606060607070707070707070707A7
:202F6000070707070707070707070707070707070707070707070707070707070707070771
:202F8000070707070707070707070707070707070707070707070808080808080808080847
:202FA000080808080808080808080808080808080808080808080808080808080808080811
:202FC0000808080808080808080808080808080808080808080808080808080808080808F1
:202FE0000808080808080808080808080808080808080808080808080808080808080808D1
:2030000008080808080808080808080808080808080808080808FFFFFFFFFFFFFFFFFFFF0A
:20302000FFFFFFFFFFFFFFFFFFFFFFFFFFFFFFFFFFFFFFFFFFFFFFFFFFFFFFFFFFFFFFFFB0
:20304000FFFFFFFFFFFFFFFFFFFFFFFFFFFFFFFFFFFFFFFFFFFFFFFFFFFFFFFFFFFFFFFF90
:20306000FFFFFFFFFFFFFFFFFFFFFFFFFFFFFFFFFFFFFFFFFFFFFFFFFFFFFFFFFFFFFFFF70
:2030800008080808080808080808FFFFFFFFFFFFFFFFFFFFFFFFFFFFFFFFFFFFFFFFFFFFF6
:2030A000FFFFFFFFFFFFFFFFFFFFFFFFFFFFFFFFFFFFFFFFFFFFFFFFFFFFFFFFFFFFFFFF30
:2030C000FFFFFFFFFFFFFFFFFFFFFFFFFFFFFFFFFFFFFFFFFFFFFFFFFFFFFFFFFFFFFFFF10
:2030E000FFFFFFFFFFFFFFFFFFFFFFFFFFFFFFFFFFFFFFFFFFFFFFFFFFFFFFFFFFFFFFFFF0
:20310000FFFFFFFFFFFFFFFFFFFFFFFFFFFFFFFFFFFFFFFFFFFFFFFFFFFFFFFFFFFFFFFFCF
:207800000C94343C0C94513C0C94513C0C94513C0C94513C0C94513C0C94513C0C94513C1D
:207820000C94513C0C94513C0C94513C0C94513C0C94513C0C94513C0C94513C0C94513CE0
:207840000C94513C0C94513C0C94513C0C94513C0C94513C0C94513C0C94513C0C94513CC0
:207860000C94513C0C94513C11241FBECFEFD8E0DEBFCDBF11E0A0E0B1E0ECE9FFE702C07E
:2078800005900D92A230B107D9F712E0A2E0B1E001C01D92AD30B107E1F70E942D3D0C94CC
:2078A000CC3F0C94003C982F9595959595959595905D8F708A307CF0282F295A8091C000B5
:2078C00085FFFCCF9093C6008091C00085FFFCCF2093C6000895282F205DF0CF982F8091CF
:2078E000C00085FFFCCF9093C6000895EF92FF920F931F93EE24FF2487018091C00087FD7B
:2079000017C00894E11CF11C011D111D81E4E81682E4F8068FE0080780E0180770F3E09106
:207920000401F091050109958091C00087FFE9CF8091C6001F910F91FF90EF9008950E949A
:20794000763C982F8091C00085FFFCCF9093C60091362CF490330CF09053892F08959755DB
:20796000892F08951F930E949F3C182F0E949F3C1295107F810F1F9108951F93182F882308
:2079800021F00E94763C1150E1F71F9108951F93182F0E94763C803249F0809103018F5FC1
:2079A000809303018530C1F01F9108958091C00085FFFCCF84E18093C6008091C00085FF4A
:2079C000FCCF1093C6008091C00085FFFCCF80E18093C6001F910895E0910401F0910501CF
:2079E00009951F9108950E94763C803241F0809103018F5F80930301853081F00895809177
:207A0000C00085FFFCCF84E18093C6008091C00085FFFCCF80E18093C6000895E0910401AC
:207A2000F09105010995089540E951E08823A1F02D9A28EE33E0FA013197F1F72150304072
:207A4000D1F72D9828EE33E0FA013197F1F721503040D1F7815061F708953F924F925F92B3
:207A60006F927F928F929F92AF92BF92CF92DF92EF92FF920F931F93CF93DF93000080E1A3
:207A80008093C4001092C50088E18093C10086E08093C2005098589A259A81E00E94143D43
:207AA00024E1F22E9EE1E92E85E9D82E0FE0C02E10E1B12EAA24A394B1E49B2EA6E58A2E44
:207AC000F2E57F2EE0E26E2E79E4572E63E5462E50E5352E0E94763C8033B1F18133B9F187
:207AE000803409F46FC0813409F476C0823409F485C0853409F488C0803531F1823521F128
:207B0000813511F1853509F485C0863509F48DC0843609F496C0843709F403C1853709F46A
:207B200072C1863709F466C0809103018F5F80930301853079F6E0910401F0910501099559
:207B40000E94763C803351F60E94F33CC3CF0E94763C803249F78091C00085FFFCCFF0928C
:207B6000C6008091C00085FFFCCF9092C6008091C00085FFFCCF8092C6008091C00085FFEA
:207B8000FCCF7092C6008091C00085FFFCCF6092C6008091C00085FFFCCF5092C6008091A1
:207BA000C00085FFFCCF4092C6008091C00085FFFCCF3092C6008091C00085FFFCCFB09214
:207BC000C60088CF0E94763C863808F4BDCF0E94763C0E94F33C7ECF0E94763C803809F473
:207BE0009CC0813809F40BC1823809F43CC1883909F48FC080E00E94C73C6CCF84E10E949F
:207C0000BD3C0E94F33C66CF85E00E94BD3C0E94F33C60CF0E94763C809306010E94763CA3
:207C2000809307010E94F33C55CF0E94763C803309F41DC183E00E94BD3C80E00E94C73C4F
:207C400049CF0E94763C809309020E94763C8093080280910C028E7F80930C020E94763C88
:207C6000853409F415C18091080290910902892B89F000E010E00E94763CF801E85FFE4F53
:207C800080830F5F1F4F80910802909109020817190788F30E94763C803209F045CF8091E0
:207CA0000C0280FF01C16091060170910701660F771F7093070160930601A0910802B091E8
:207CC00009021097C9F0E8E0F1E09B01AD014E0F5F1FF999FECF32BD21BD819180BDFA9A6C
:207CE000F99A2F5F3F4FE417F50799F76A0F7B1F70930701609306018091C00085FFFCCF16
:207D0000F092C6008091C00085FFFCCFB092C600E1CE83E00E94C73CDDCE82E00E94C73C8A
:207D2000D9CE0E94763C809309020E94763C809308028091060190910701880F991F909306
:207D40000701809306010E94763C853409F4A6C080910C028E7F80930C020E94763C80323E
:207D600009F0B8CE8091C00085FFFCCFF092C600609108027091090261157105B9F140E05F
:207D800050E080910C02A82FA170B82FB27011C0BB2309F45CC0E0910601F0910701319613
:207DA000F0930701E09306014F5F5F4F46175707E8F4AA2369F3F999FECF209106013091CA
:207DC000070132BD21BDF89A90B58091C00085FFFCCF9093C6002F5F3F4F30930701209354
:207DE00006014F5F5F4F4617570718F38091C00085FDE5CE8091C00085FFF8CFE0CE81E029
:207E00000E94C73C67CE0E94763C803209F08CCE8091C00085FFFCCFF092C6008091C000F6
:207E200085FFFCCFE092C6008091C00085FFFCCFD092C6008091C00085FFFCCFC092C6003B
:207E40008091C00085FFFCCFB092C60043CEE0910601F091070194918091C00085FFFCCFA3
:207E60009093C6009CCF80E10E94C73C33CE0E94763C0E94763C182F0E94763C112309F433
:207E800083C0113009F484C08FE00E94C73C22CE80910C02816080930C02E5CE80910C0226
:207EA000816080930C0259CF809107018823880F880B8A2180930B0280910601909107019E
:207EC000880F991F90930701809306018091080280FF09C0809108029091090201969093AA
:207EE000090280930802F894F999FECF1127E0910601F0910701C8E0D1E0809108029091A1
:207F00000902103091F40091570001700130D9F303E000935700E895009157000170013067
:207F2000D9F301E100935700E895099019900091570001700130D9F301E000935700E8954C
:207F40001395103498F011270091570001700130D9F305E000935700E8950091570001707A
:207F60000130D9F301E100935700E8953296029709F0C7CF103011F00296E5CF11248091F8
:1E7F8000C00085FFB9CEBCCE8EE10E94C73CA2CD85E90E94C73C9ECDF894FFCF8000B3
:00000001FF
