:200000000C9451010C9479010C9479010C9479010C9479010C9479010C9479010C94790138
:200020000C9479010C9479010C9479010C9479010C9479010C9479010C9479010C947901F0
:200040000C9482160C9479010C9414170C9462170C9479010C9479010C9479010C94790102
:200060000C9479010C9479012320556E6B6E6F776E2073746174653A2025640A0023204C5C
:2000800054433239343320696E6974206661696C65642028697320706F77657220636F6ECD
:2000A0006E65637465643F290A00232053746174653A205245504F5254494E472E300A009B
:2000C00023204D6F64653A2025640A00556E6B6E6F776E20666F726D61743A2025640A00E5
:2000E000207C2025366C75207C2025366C752025366C752025366C752025396C750A0030BF
:20010000782534782025752E25303375207C20307825347820253475002020563D5B2575C6
:200120002E253033755D20205453423D5B256C755D20205441573D5B256C755D2020234148
:20014000573D5B256C755D25730A00543D5B25752E253033755D2020493D5B25752E25305F
:2001600033755D2020513D5B25752E253033755D20204941763D5B25752E253033755D0035
:2001800020256C7520256C7520256C752025640A0025752E253033752025752E2530337590
:2001A0002025752E253033752025752E2530337500253035752E253033752025752E25300E
:2001C000366C750A0023204C54433239343320766F6C6167652072656164696E6720666187
:2001E000696C65640A0023204C544332393433206368617267652072656164696E67206655
:2002000061696C6564202832290A00232053746174653A205245504F5254494E472E310A71
:200220000023204C544332393433206368617267652072656164696E67206661696C6564BD
:20024000202831290A002320427574746F6E20707265737365640A000A000A0023204D6F00
:200260006465206368616E6765640A00232053746174653A20494E49540A0023205374617A
:2002800074653A204552524F520A000A000A537461727465640A0000B30D6314D314CB15A4
:2002A000CE1811241FBECFEFD8E0DEBFCDBF12E0A0E0B1E0E8EDF3E302C005900D92A4312E
:2002C000B107D9F713E0A4E1B2E001C01D92AF3BB107E1F712E0C2EAD2E004C02297FE01D6
:2002E0000E94E619C839D107C9F70E9424190C94EA190C940000A0E3B0E0E1E8F1E00C9455
:20030000AD19A8E04E010894811C911CF401BA2F1192BA95E9F729833A834B835C836D83A4
:200320007E838F839887CE010996FC011192AA95E9F7A986BA86CB86DC86ED86FE860F87AF
:20034000188B29813A814B815C812DA73EA74FA758AB79018A018FEF9FEFA0E0B0E0E8220F
:20036000F9220A231B231A014424552429853A854B855C8529A73AA74BA75CA759016A0172
:20038000A822B922CA22DB223A0188249924C601B501A80197010E946C196DA37EA38FA3E3
:2003A00098A7C401B3010E946C1969A37AA38BA39CA3C601B501A20191010E946C197B0173
:2003C0008C01C401B3010E946C195B016C0189A19AA1ABA1BCA18E0D9F1DA01FB11F89A307
:2003E0009AA3ABA3BCA32DA13EA14FA158A5CA01AA27BB2729A13AA14BA15CA1280F391FDE
:200400004A1F5B1F29A33AA34BA35CA32E153F054007510740F480E090E0A1E0B0E0A80E72
:20042000B91ECA1EDB1E89A19AA1ABA1BCA19D01442755272A0D3B1D4C1D5D1D2D8F3E8F76
:200440004F8F58A36C01BB24AA248DA19EA1AFA1B8A5A070B070A80EB91ECA1EDB1EA98EBA
:20046000BA8ECB8EDC8E9A8C8B8C7C8C9E8D6F8D78A1FE01719688E0DF011D928A95E9F7F0
:200480002D8B9E8B6F8B788F2D853E854F8558896DA57EA58FA598A90E946C197B018C0176
:2004A0002D813E814F81588569A57AA58BA59CA50E946C19E60EF71E081F191F6D897E89F8
:2004C0008F89988D6E0D7F1D801F911F6D8B7E8B8F8B988FEE892A2D392D482D572D7E2F5D
:2004E0008F89988DE096E2E10C94C919EF92FF920F93DF93CF93CDB7DEB760970FB6F8941B
:20050000DEBF0FBECDBFA82F002309F461C07E010894E11CF11C88E0F70111928A95E9F7A6
:2005200029833A834B835C836D837E83AF83988780E2801BE82FFF27E7FDF09549815A811B
:200540006B817C81181684F019861A861B861C86882799278E1B9F0B04C0440F551F661FBC
:20056000771F8A95D2F728C0202F332727FD3095DB01CA01022E04C0880F991FAA1FBB1FF6
:200580000A94D2F789879A87AB87BC8704C07695679557954795EA95D2F78D819E81AF8116
:2005A000B88504C0880F991FAA1FBB1F2A95D2F7482B592B6A2B7B2B4D875E876F87788BDC
:2005C00029853A854B855C856D857E85AF8598898A2F60960FB6F894DEBF0FBECDBFCF915D
:2005E000DF910F91FF90EF900895AEE5B0E0EBEFF2E00C94AD19A8E04E010894811C911C4E
:20060000F4016A2E11926A94E9F729833A834B835C836D837E838F839887CE010996FC0129
:200620001192AA95E9F7A986BA86CB86DC86ED86FE860F87188B29843A844B845C84ED841B
:20064000FE840F85188969807A808B809C806DA67EA68FA698AA6D807E808F809884E11420
:20066000F1040105110509F0B3C3621473048404950408F03DC100E0201600E0300601E0E9
:20068000400600E0500688F41FEF211631044104510439F030F048E0E42EF12C012D112D42
:2006A00018C0EE24FF24870114C020E0221620E0320620E0420621E0520630F038E1E32E76
:2006C000F12C012D112D05C020E1E22EF12C012D112DD201C1010E2C04C0B695A7959795EC
:2006E00087950A94D2F78C5F9E4FDC012C9180E290E0A0E0B0E08E199F09A00BB10B7C01F0
:200700008D01E21AF10801091109E114F10401051105A1F10E2C04C0220C331C441C551C4E
:200720000A94D2F7A40193010E2C04C0220F331F441F551F0A94D2F780E290E08E199F0939
:200740006DA47EA48FA498A804C096948794779467948A95D2F7622A732A842A952AADA415
:20076000BEA4CFA4D8A804C0AA0CBB1CCC1CDD1CEA94D2F7ADA6BEA6CFA6D8AA6201EE2488
:20078000FF24CDAADEAAEFAAF8AE920181012070307009AF1AAF2BAF3CAFC401B301A7014C
:2007A00096010E948B197B018C01C401B3012DA93EA94FA958AD0E948B19C901DA013C01F8
:2007C0004D01C401B30129AD3AAD4BAD5CAD0E946C199B01AC018701FF24EE24ADA4BEA4B4
:2007E000CFA4D8A8C601AA27BB2757016801A82AB92ACA2ADB2AA216B306C406D506E0F433
:2008000008946108710881089108A20CB31CC41CD51CA214B304C404D50470F0A216B3060B
:20082000C406D50648F408946108710881089108A20CB31CC41CD51CA21AB30AC40AD50AC3
:20084000C601B5012DA93EA94FA958AD0E948B197B018C01C601B5012DA93EA94FA958ADDB
:200860000E948B19C901DA015C016D01C601B50129AD3AAD4BAD5CAD0E946C199B01AC0117
:200880008701FF24EE248DA59EA5AFA5B8A9A070B070E82AF92A0A2B1B2BE216F306040795
:2008A0001507C0F40894A108B108C108D108E20CF31C041D151DE214F3040405150550F028
:2008C000E216F3060407150728F40894A108B108C108D108D3019927882786017501E82AF2
:2008E000F92A0A2B1B2BE9AAFAAA0BAB1CABCFC4211431044104510471F461E070E080E0B9
:2009000090E020E030E040E050E00E948B19C901DA011C012D0100E0201600E0300601E0C4
:20092000400600E0500688F41FEF211631044104510431F028F048E050E060E070E017C0B3
:2009400040E050E060E070E012C020E0221620E0320620E0420621E0520628F048E150E063
:2009600060E070E004C040E150E060E070E0D201C101042E04C0B695A795979587950A944A
:20098000D2F78C5F9E4FDC012C91E0E2EE2EF12C012D112DD801C701841B950BA60BB70B62
:2009A000821B9109A109B1090097A105B10561F464015301A218B308C408D50831E0632EDB
:2009C000712C812C912C1EC16F968FAF6F97082E04C0220C331C441C551C0A94D2F7EE2D1E
:2009E000E81B640153010E2E04C0D694C794B794A7940A94D2F7A40193016F960FAC6F978A
:200A000004C0220F331F441F551F0A94D2F76DA47EA48FA498A80E2E04C09694879477945B
:200A200067940A94D2F784017301E22AF32A042B152BE9A6FAA60BA71CA732018824992483
:200A4000920181012070307021960CAF1DAF2EAF3FAF2197C601B501A40193010E948B1994
:200A60007B018C01C601B501A40193010E948B19C901DA0125968CAF9DAFAEAFBFAF259703
:200A8000BC01CD0121962CAD3DAD4EAD5FAD21970E946C199B01AC018701FF24EE24A9A418
:200AA000BAA4CBA4DCA4C601AA27BB275C016D01AE28BF28C02AD12AA216B306C406D506EC
:200AC00060F525966CAD7DAD8EAD9FAD2597615070408040904025966CAF7DAF8EAF9FAF02
:200AE0002597A20CB31CC41CD51CA214B304C404D50498F0A216B306C406D50670F461502B
:200B000070408040904025966CAF7DAF8EAF9FAF2597A20CB31CC41CD51CA21AB30AC40AB7
:200B2000D50AC601B501A40193010E948B197B018C01C601B501A40193010E948B19C9010B
:200B4000DA013C014D01C401B30121962CAD3DAD4EAD5FAD21970E946C199B01AC01870185
:200B6000FF24EE2489A59AA5ABA5BCA5A070B07057016801A82AB92ACA2ADB2AA216B30612
:200B8000C406D506E0F408946108710881089108A20CB31CC41CD51CA214B304C404D504E0
:200BA00070F0A216B306C406D50648F408946108710881089108A20CB31CC41CD51C8DA563
:200BC0009EA5AFA5B8A96F960FAC6F9704C0880F991FAA1FBB1F0A94D2F78DA79EA7AFA76B
:200BE000B8ABA21AB30AC40AD50A2596ECACFDAC0EAD1FAD2597D70199278827682A792AB1
:200C00008A2A9B2A82012227332729960CAF1DAF2EAF3FAF2997A2019101407050702D96FC
:200C20002CAF3DAF4EAF5FAF2D97C601B50129962CAD3DAD4EAD5FAD29970E948B197B0196
:200C40008C01C601B50129962CAD3DAD4EAD5FAD29970E948B19C901DA0161968CAF9DAFD8
:200C6000AEAFBFAF6197BC01CD012D962CAD3DAD4EAD5FAD2D970E946C199B01AC018701DD
:200C8000FF24EE24ADA4BEA4CFA4D8A8C601AA27BB2757016801A82AB92ACA2ADB2AA216D8
:200CA000B306C406D50660F561966CAD7DAD8EAD9FAD6197615070408040904061966CAFC5
:200CC0007DAF8EAF9FAF6197A20CB31CC41CD51CA214B304C404D50498F0A216B306C40646
:200CE000D50670F4615070408040904061966CAF7DAF8EAF9FAF6197A20CB31CC41CD51CB5
:200D0000A21AB30AC40AD50AC601B50129962CAD3DAD4EAD5FAD29970E948B197B018C0198
:200D2000C601B50129962CAD3DAD4EAD5FAD29970E948B19C901DA015C016D01C601B501BA
:200D40002D962CAD3DAD4EAD5FAD2D970E946C199B01AC018701FF24EE248DA59EA5AFA54C
:200D6000B8A9A070B070E82AF92A0A2B1B2BE216F30604071507C0F40894A108B108C1089F
:200D8000D108E20CF31C041D151DE214F3040405150550F0E216F3060407150728F408940A
:200DA000A108B108C108D1086196ECACFDAC0EAD1FAD6197D7019927882796018501082BE1
:200DC000192B2A2B3B2B09AB1AAB2BAB3CAB62C26E147F048006910608F451C220E0E21691
:200DE00020E0F20621E0020720E0120788F43FEFE316F1040105110531F028F048E050E093
:200E000060E070E017C040E050E060E070E012C040E0E41640E0F40640E0040741E014071E
:200E200028F048E150E060E070E004C040E150E060E070E0D801C701042E04C0B695A795EE
:200E4000979587950A94D2F78C5F9E4FDC012C9130E2A32EB12CC12CD12CD601C501841B8B
:200E6000950BA60BB70B821B9109A109B1090097A105B10589F4E614F7040805190508F438
:200E8000F2C16DA47EA48FA498A8621473048404950408F0E8C1F3C16E968FAF6E97082E19
:200EA00004C0EE0CFF1C001F111F0A94D2F76A2D681BD201C101062E04C0B695A795979549
:200EC00087950A94D2F75C016D01AE28BF28C02AD12AADA2BEA2CFA2D8A6720161016E96AB
:200EE0000FAC6E9704C0CC0CDD1CEE1CFF1C0A94D2F7C9A2DAA2EBA2FCA264015301062E12
:200F000004C0D694C794B794A7940A94D2F7D401C3016E960FAC6E9704C0880F991FAA1F22
:200F2000BB1F0A94D2F7EDA4FEA40FA518A904C016950795F794E7946A95D2F7370148016E
:200F4000682A792A8A2A9B2A6D8E7E8E8F8E98A2EDA0FEA00FA118A53801882499249801B2
:200F600087012070307065960CAF1DAF2EAF3FAF6597C601B501A40193010E948B197B01F8
:200F80008C01C601B501A40193010E948B19C901DA011C012D01C201B10165962CAD3DADA5
:200FA0004EAD5FAD65970E946C199B01AC018701FF24EE24AD8CBE8CCF8CD8A0C601AA2713
:200FC000BB2757016801A82AB92ACA2ADB2AA216B306C406D50600F508942108310841086E
:200FE0005108EDA0FEA00FA118A5AE0CBF1CC01ED11EAE14BF04C006D10670F0A216B306AB
:20100000C406D50648F408942108310841085108AE0CBF1CC01ED11EA21AB30AC40AD50AC7
:20102000C601B501A40193010E948B197B018C01C601B501A40193010E948B19C901DA010A
:201040003C014D01C401B30165962CAD3DAD4EAD5FAD65970E946C199B01AC018701FF24B0
:20106000EE248D8D9E8DAF8DB8A1A070B07057016801A82AB92ACA2ADB2AA216B306C406AA
:20108000D50600F5089461087108810891086DA17EA18FA198A5A60EB71EC81ED91EA61624
:2010A000B706C806D90670F0A216B306C406D50648F408946108710881089108A60EB71EEB
:2010C000C81ED91ED601C501821B930BA40BB50B898F9A8FAB8FBC8FD10199278827640180
:2010E0005301A82AB92ACA2ADB2AA9AABAAACBAADCAA860175012FEF3FEF40E050E0E2229F
:20110000F32204231523A601662777276D964CAF5DAF6EAF7FAF6D97A9A0BAA0CBA0DCA0A6
:201120006FEF7FEF80E090E0A622B722C822D92289A19AA1ABA1BCA11D0144245524C801B7
:20114000B701A60195010E946C1969966CAF7DAF8EAF9FAF6997C801B701A20191010E944A
:201160006C193B014C016D966CAD7DAD8EAD9FAD6D97A60195010E946C197B018C016D9620
:201180006CAD7DAD8EAD9FAD6D97A20191010E946C195B016C01A8019701260D371D481D2F
:2011A000591D69966CAC7DAC8EAC9FAC6997C401AA27BB27280F391F4A1F5B1F2E153F0583
:2011C0004007510748F4E12CF12C61E0062F112DAE0CBF1CC01ED11ECA01AA27BB27BC01B9
:2011E000CD016A0D7B1D8C1D9D1D698C7A8C8B8C9C8C661677068806990640F16615770527
:201200008805990509F043C0D9019927882769962CAD3DAD4EAD5FAD699740705070820F94
:20122000931FA41FB51F2DA53EA54FA558A96E960FAC6E9704C0220F331F441F551F0A943B
:20124000D2F7281739074A075B0708F509A91AA92BA93CA9015010402040304009AB1AAB7E
:201260002BAB3CAB14C066247724430121E030E040E050E029AB3AAB4BAB5CAB0BC0662408
:201280007724430119AA1AAA1BAA1CAA03C0662477244301FE01719688E0DF011D928A9515
:2012A000E9F7A9A8BAA8CBA8DCA8A98ABA8ACB8ADC8A6D8A7E8A8F8A988E29A93A894B89CB
:2012C0005C89662D7E898F89988DC25ADF4FE2E10C94C919AEE0B0E0E0E7F9E00C94BB1991
:2012E0008C0177FF02C060E070E8615070407E836D831A8309838EE08C83CE010196BA0178
:20130000A9010E9494092D813E8137FD09C0EF81F8852E173F070CF4F901E00FF11F108277
:201320002E96E4E00C94D719ABE0B0E0EAE9F9E00C94AD193C012B015A01FC011782168276
:20134000838181FD03C06FEF7FEFC6C19AE0892E1E010894211C311CF3012381F20123FDD4
:20136000859123FF81912F01882309F4B2C1853239F423FD859123FF81912F01853229F486
:2013800090E0B3010E94870BE7CF982FFF24EE249924FFE1FF15D0F09B3269F09C3228F4C2
:2013A000903259F0933291F40EC09D3249F0903369F441E024C052E0F52A84E0F82A28C01E
:2013C00098E0F92A25C0E0E1FE2A22C0F7FC29C0892F80538A3070F4F6FE05C0989C902C94
:2013E0001124980E15C0E89CE02C1124E80EF0E2FF2A0EC09E3229F4F6FC6BC140E4F42A6C
:2014000007C09C3619F450E8F52A02C0983649F4F20123FD959123FF91912F01992309F0A0
:20142000B8CF892F8554833018F08052833038F444E050E0A40EB51E5FE359830FC0933699
:2014400031F0933779F0933509F056C020C0F5018081898342E050E0A40EB51E610101E064
:2014600010E012C0F501C080D180F6FC03C06FEF7FEF02C0692D70E042E050E0A40EB51E23
:20148000C6010E947C0B8C015FE7F52214C0F501C080D180F6FC03C06FEF7FEF02C0692D3E
:2014A00070E042E050E0A40EB51EC6010E94710B8C0150E8F52AF3FE07C01AC080E290E0D8
:2014C000B3010E94870BEA948E2D90E008171907A8F30EC0F601F7FC8591F7FE81916F015C
:2014E00090E0B3010E94870BE110EA94015010400115110579F7EAC0943611F0993669F546
:20150000F7FE08C0F501208131814281538184E090E00AC0F501808191819C01442737FD4B
:201520004095542F82E090E0A80EB91E9FE6F92257FF09C050954095309521953F4F4F4FD4
:201540005F4FE0E8FE2ACA01B901A1012AE030E00E94B30BD82ED21840C0953729F41F2D27
:201560001F7E2AE030E01DC01F2D197F9F3661F0903720F4983509F0ACC00FC0903739F001
:20158000983709F0A6C004C028E030E00AC0106114FD146020E130E004C014FD166020E124
:2015A00032E017FF08C0F501608171818281938144E050E008C0F50180819181BC0180E019
:2015C00090E042E050E0A40EB51EA1010E94B30BD82ED2188FE7F82EF122F6FE0BC05EEF17
:2015E000F522D91438F4F4FE07C0F2FC05C08FEEF82202C01D2D01C0192DF4FE0DC0FE01E7
:20160000ED0DF11D8081803319F499EEF92208C01F5FF2FE05C003C08F2D867809F01F5F70
:201620000F2DF3FC14C0F0FE0FC01E1510F09D2C0BC09D2C9E0C911A1E2D06C080E290E026
:20164000B3010E94870B1F5F1E15C0F304C01E1510F4E11A01C0EE2404FF0FC080E390E0D0
:20166000B3010E94870B02FF1DC001FD03C088E790E00EC088E590E00BC0802F867891F060
:2016800001FF02C08BE201C080E2F7FC8DE290E0B3010E94870B06C080E390E0B3010E944F
:2016A000870B9A94D914C0F3DA94F101ED0DF11D808190E0B3010E94870BDD20A9F706C0A6
:2016C00080E290E0B3010E94870BEA94EE20C1F743CEF30166817781CB012B96E2E10C9438
:2016E000C919FC010590615070400110D8F7809590958E0F9F1F0895FC0161507040019014
:201700000110D8F7809590958E0F9F1F08950F931F93CF93DF938C01EB018B8181FF1BC0AF
:2017200082FF0DC02E813F818C819D812817390764F4E881F9810193F983E88306C0E88559
:20174000F985802F0995892B31F48E819F8101969F838E8302C00FEF1FEFC801DF91CF9185
:201760001F910F910895FA01AA27283051F1203181F1E8946F936E7F6E5F7F4F8F4F9F4F81
:20178000AF4FB1E03ED0B4E03CD0670F781F891F9A1FA11D680F791F8A1F911DA11D6A0F43
:2017A000711D811D911DA11D20D009F468943F912AE0269F11243019305D3193DEF6CF0196
:2017C0000895462F4770405D4193B3E00FD0C9F7F6CF462F4F70405D4A3318F0495D31FDAE
:2017E0004052419302D0A9F7EACFB4E0A6959795879577956795BA95C9F7009761057105B7
:2018000008959B01AC010A2E06945795479537952795BA95C9F7620F731F841F951FA01D9A
:2018200008952F923F924F925F926F927F928F929F92AF92BF92CF92DF92EF92FF920F932B
:201840001F93DF93CF9300D000D0CDB7DEB79A8389837C836B83FC01A480B580C680D78040
:201860009501A60160E070E080E090E0B0E8AB2EA8E8BA2EF2E0CF2EDD24EE24FF2400E0FD
:2018800010E00E947B01292E922E832E742E652E562E472E382E292D382D472D562D652D9A
:2018A000742D832DE0E4AE2EB2E4BB2EAFE0CA2E0E94F502C901BA01EB81FC812083918373
:2018C00042837383292D382D472D562D652D742D832D922D04E00E947602122FF32EE42E87
:2018E000D52EA62E772E682E592E0E947602A32FB42F052FC62EB72E882E922E911AF1E081
:20190000291508F0F0E03A2F3F19E1E0A31708F0E0E0F32EFF1A21E03F1508F020E0E22B39
:201920004B2F4E1931E0B41708F030E0E42EEE1A21E04E1508F020E0322B502F5D1941E0F9
:20194000051708F040E0D52ED31A21E05D1508F020E0422B6C2D6A1931E0C61608F030E07A
:20196000C62EC41A21E06C1508F020E0322B7B2D771941E0B71608F040E0B72EB31A21E0CD
:201980007B1508F020E0422B882D861921E0881608F020E0A82EA41A31E08A1508F030E01B
:2019A000232B192F1519121B292D3F2D4E2D5D2D6C2D7B2D8A2D912F04E00E947602A32FE7
:2019C000B42F052F862E772E682E522E5918F1E0251508F0F0E03A2F3F19E1E0A31708F009
:2019E000E0E0932E9F1A21E0391508F020E0E22B4B2F4E19F1E0B41708F0F0E0F42EFE1ADA
:201A000021E04F1508F020E0F22B502F5D19E1E0051708F0E0E0052F0F1B21E0501708F004
:201A200020E0E22B682D6C19F1E0861608F0F0E0B62FBE1B21E06B1708F020E0F22B772D50
:201A40007B19E1E0771608F0E0E0A72FAF1B21E07A1708F020E0E22B862D8A19F1E0681610
:201A600008F0F0E0282F2E1BE22F21E08E1708F020E0F22B911B252D392D4F2D502F6B2F39
:201A80007A2F8E2F9F1BF8EEAF2EE3E0BE2ECC24DD24EE24FF2400E010E00E94F502E981BB
:201AA000FA812080318042805380510162010E94F502C901BA01EB81FC8124839583468381
:201AC00077830F900F900F900F90CF91DF911F910F91FF90EF90DF90CF90BF90AF909F90D7
:201AE0008F907F906F905F904F903F902F900895CF92DF92EF92FF920F931F936C017A01A0
:201B00008B01CB01BA0120E432E44FE050E00E948B19F6013183208340E050E0CA01B901D0
:201B200020EC3DEB40EF5FEF0E946C196E0D7F1D801F911FF60162837383848395836C50BA
:201B40007E4F8F4F9F4F28EE33E040E050E00E948B19F601378326831F910F91FF90EF9075
:201B6000DF90CF900895E6E5F2E081E0809356024AE050E050935802409357028093590260
:201B800021E030E03583248383E080935C025087478380935F023387228782E080936202B0
:201BA0005687458780936502318B208B84E080936802548B438B80936B02378B268B809307
:201BC0006E02528F418F80937102358F248F8093740250A3478F8093770233A322A380935B
:201BE0007A0256A345A380937D0231A720A78093800254A743A78093830237A726A70E94F8
:201C0000CA16609352027093530280935402909355020895CF93DF93EC0188818230D9F080
:201C20008330D1F1813009F051C08A85882309F44DC082E08883F894E981FA8180819D81B3
:201C4000892B808378940E94CA166E837F83888799871A863BC00E94CA162E813F814885C4
:201C60005985621B730B840B950B653171058105910560F183E08883F894E981FA819081F3
:201C80008D8180958923808378940E94CA166E837F83888799871AC00E94CA162E813F81F7
:201CA00048855985621B730B840B950B6F3171058105910558F081E08883F894E981FA81F8
:201CC00090818D818095892380837894DF91CF91089583E080938602109215028091DF02FF
:201CE00090E081709070809351028091EB028F70809314028930D1F400D000D080EC90E0FD
:201D0000EDB7FEB79283818389E090E0948383830E9435140F900F908AEA90E0EDB7FEB7F5
:201D2000928381830E9435140F900F90089581E0809386028091EB028F70893059F400D0F5
:201D40008CE692E0EDB7FEB7928381830E9435140F900F90089584E0809386028091EB026A
:201D60008F70893059F400D08BE792E0EDB7FEB7928381830E9435140F900F900E94CA168D
:201D80006093520270935302809354029093550281E08093060308950E940016882319F03B
:201DA0000E94690E089500D08DE790E0EDB7FEB7928381830E9435140F900F900E94AB0EC3
:201DC00008952F923F924F925F926F927F928F929F92AF92BF92CF92DF92EF92FF920F9386
:201DE0001F93DF93CF93CDB7DEB7E0970FB6F894DEBF0FBECDBF9091EB029F708091140242
:201E0000981799F0993069F400D08CE592E0ADB7BEB712969C938E9311970E9435140F90AE
:201E20000F9000D08AE592E027C08091DF02282F30E021703070922F80915102882311F010
:201E400080E001C0822F90935102882301F100D088E592E0ADB7BEB712969C938E93119775
:201E60000E9435148091EB028F700F900F90893059F400D086E492E0EDB7FEB79283818318
:201E80000E9435140F900F900E94690E5FC480911502882309F093C08AE192E00E947A16AF
:201EA000882321F400D081E292E0F2C181E0809315020E94CA1660931602709317028093C3
:201EC00018029093190210921C0210921D0210921E0210921F021092200210922102109279
:201EE000220210922302109224021092250210922602109227021092280210922902109296
:201F00002A0210922B0210922C0210922D0210922E0210922F021092300210923102109235
:201F20003202109233021092340210923502109236021092370210923802109239021092D5
:201F40003A0210923B021092410210924002109243021092420210923C0210923D0210926D
:201F60003E0210923F0210924402109245021092460210924702109248021092490210921D
:201F80004A0210924B0210924C0210924D0210924E0210924F02109250028091EB028F704F
:201FA000893009F0D3C300D08BE092E0EDB7FEB7928381830E9435140F900F90C7C30E9465
:201FC000CA1620911602309117024091180250911902621B730B840B950B643671058105D7
:201FE00091050CF4B3C32C593F4F4F4F5F4F20931602309317024093180250931902CE0115
:2020000001960E947A16882321F400D086EE91E03FC129813A8180911A0290911B02F901B8
:20202000E81BF90BF8ABEFA730931B0220931A0280911C0290911D02A0911E02B0911F028F
:202040008C599F4FAF4FBF4F80931C0290931D02A0931E02B0931F029F0140E050E0809176
:20206000200290912102A0912202B0912302820F931FA41FB51F8093200290932102A093B7
:202080002202B09323028091240290912502A0912602B09127028C599F4FAF4FBF4F809380
:2020A000240290932502A0932602B09327028091280290912902A0912A02B0912B02820F06
:2020C000931FA41FB51F8093280290932902A0932A02B0932B0260914002709141026F5F18
:2020E0007F4F709341026093400280913C0290913D02A0913E02B0913F020196A11DB11DD2
:2021000080933C0290933D02A0933E02B0933F02E0E08FA598A90A9708F44AC0E1E0809167
:20212000340290913502A0913602B09137028C599F4FAF4FBF4F8093340290933502A09379
:202140003602B09337028091380290913902A0913A02B0913B02280F391F4A1F5B1F209314
:2021600038023093390240933A0250933B028091480290914902A0914A02B0914B0201968F
:20218000A11DB11D8093480290934902A0934A02B0934B0280914202909143020196909364
:2021A000430280934202809150028823E9F14FC080912C0290912D02A0912E02B0912F022A
:2021C0008C599F4FAF4FBF4F80932C0290932D02A0932E02B0932F0280913002909131021F
:2021E000A0913202B0913302280F391F4A1F5B1F2093300230933102409332025093330298
:202200008091440290914502A0914602B09147020196A11DB11D8093440290934502A093E3
:202220004602B093470213C080914C0290914D02A0914E02B0914F020196A11DB11D8093DF
:202240004C0290934D02A0934E02B0934F02E09350028091140290E04C01880C991C880E1F
:20226000991EA6E5B2E08A0E9B1EF401818192816817790708F46AC2CE010396BE016B5F17
:202280007F4F0E945416882381F400D085EC91E0ADB7BEB712969C938E9311970E9435142E
:2022A0000F900F900E94AB0E51C22D803E808CE192E0BE01695F7F4F0E94110C4B855C8563
:2022C0006D857E85CE010F960E94780D84E292E0BE01695E7F4F0E94110C4F89588D698DD0
:2022E0007A8DCE014F960E94780D4B8D5C8D6D8D7E8DCE0187960E94780DE0902402F0900D
:2023000025020091260210912702C801B70128EE33E040E050E00E948B1959016A01B90154
:2023200080E090E028E13CEF4FEF5FEF0E946C193B016E0C7F1C81E08093FB02F40190801F
:20234000981651F54DB75EB74C5050400FB6F8945EBF0FBE4DBFEDB7FEB7319681EB91E000
:20236000ADB7BEB712969C938E931197B382A282758264828F8598899783868389899A8921
:20238000AB89BC8980879187A287B3870E943514EDB7FEB73C9672C0F2E09F1609F074C046
:2023A0004DB75EB7425150400FB6F8945EBF0FBE4DBFEDB7FEB7319681E991E0ADB7BEB7C6
:2023C00012969C938E931197B382A282758264828F859889978386838D899E899187808773
:2023E0008F8D98A1938782878DA19EA1958784878FA198A5978786878DA59EA5918B808B9D
:202400000E9435140F900F90EDB7FEB7319680E891E0ADB7BEB712969C938E931197809110
:202420002C0290912D02A0912E02B0912F0282839383A483B5838091340290913502A09101
:202440003602B091370286839783A087B18780914C0290914D02A0914E02B0914F0282875D
:202460009387A487B5878091420290914302978786870E943514EDB7FEB770960FB6F8945A
:20248000FEBF0FBEEDBF4AC1B10180E090E028EE33E040E050E00E948B1979018A0129018B
:2024A000B90180E090E028E13CEF4FEF5FEF0E946C19260E371EF3E09F1609F0A7C04DB736
:2024C0005EB7425150400FB6F8945EBF0FBE4DBFEDB7FEB731968BE491E0ADB7BEB71296FC
:2024E0009C938E931197B382A282758264828F859889978386838D899E89918780878F8DDE
:2025000098A1938782878DA19EA1958784878FA198A5978786878DA59EA5918B808B0E94F5
:20252000351420912C0230912D0240912E0250912F02C0903402D0903502E0903602F0902B
:20254000370280904C0290904D02A0904E02B0904F02EDB7FEB772960FB6F894FEBF0FBE28
:20256000EDBF8091420290914302892B29F490E0692E91E0792E04C081E0682E81E0782E42
:202580008DB79EB744970FB6F8949EBF0FBE8DBF0DB71EB70F5F1F4F89E191E0ADB7BEB7D7
:2025A00012969C938E931197F8015382428235822482CA01B90128EE33E040E050E00E94EC
:2025C0008B19D80116962D933D934D935C931997C701B60128EE33E040E050E00E948B1985
:2025E000F8012287338744875587D8011E968D929D92AD92BC92519753967C926E925297A8
:202600000E943514EDB7FEB7749638CFF4E09F1609F06FC04DB75EB74C5050400FB6F8941E
:202620005EBF0FBE4DBFEDB7FEB731968FEF90E0ADB7BEB712969C938E9311978B819C81F4
:2026400093838283F582E4823782268289819A81918780874FA558A9538742870E9435145A
:202660008DB79EB70A970FB6F8949EBF0FBE8DBFEDB7FEB7319680EE90E0ADB7BEB71296DA
:202680009C938E9311978B859C85AD85BE8582839383A483B5838091240290912502A09172
:2026A0002602B091270286839783A087B1878091280290912902A0912A02B0912B028287AB
:2026C0009387A487B5878F89988DA98DBA8D86879787A08BB18B8B8D9C8DAD8DBE8D828B5A
:2026E000938BA48BB58B0E943514EDB7FEB77696C5CE00D000D0EDB7FEB731968CEC90E0C2
:20270000ADB7BEB712969C938E931197928213820E9435140F900F900F900F9010921C0270
:2027200010921D0210921E0210921F02109220021092210210922202109223021092410258
:20274000109240021092430210924202E0960FB6F894DEBF0FBECDBFCF91DF911F910F91EB
:20276000FF90EF90DF90CF90BF90AF909F908F907F906F905F904F903F902F9008950E94F8
:20278000F4140E948F1481EF92E00E940A0E8CEF92E00E940A0E20918602233039F02430A0
:2027A00041F02130E1F40E94CC0E08950E94E10E08950E94CA16209152023091530240910D
:2027C000540250915502621B730B840B950B685E734080409040D0F00E94970E089500D0C4
:2027E00000D0EDB7FEB7319688E690E0ADB7BEB712969C938E931197228313820E9435146D
:202800000F900F900F900F900E94AB0E08958DE993E040E052EC61E070E00E949D17809105
:20282000EB028F70893021F400D08DE892E003C000D08BE892E0EDB7FEB7928381830E949B
:2028400035140F900F900E94CC1402C00E94F4148091EA028823D1F30E947F160E94970E19
:20286000789481E08093FB020895EF92FF921F93DF93CF93CDB7DEB7FE013896419151910C
:2028800087E892E060E570E09F010E946A0987E8E82E82E0F82EF70111917F01112369F059
:2028A0001A3029F48DE993E06DE00E945D198DE993E0612F0E945D19EECFCF91DF911F9195
:2028C000FF90EF90089582E390E09093D8028093D7020E94CA166093DA027093DB0280934B
:2028E000DC029093DD021092D9020E94CA166093DA027093DB028093DC029093DD021092B5
:20290000DE021092DF0289E290E09093E1028093E00284E08093E20252985A9A0895E09137
:20292000E002F091E102808120E09091E202892309F421E08091D902281769F02093D9028F
:202940000E94CA166093DA027093DB028093DC029093DD0208950E94CA162091DA023091E6
:20296000DB024091DC025091DD02621B730B840B950B2091D7023091D80240E050E026172F
:2029800037074807590738F481E08093DE028091D9028093DF02089587B1807F87B988B19D
:2029A0008F6088B9089582E390E09093E4028093E3020E94CA166093E6027093E702809318
:2029C000E8029093E9021092E5020E94CA166093E6027093E7028093E8029093E902109280
:2029E000EA021092EB02089596B190959F708091E502981769F09093E5020E94CA166093C5
:202A0000E6027093E7028093E8029093E90208950E94CA162091E6023091E7024091E802BA
:202A20005091E902621B730B840B950B2091E3023091E40240E050E02617370748075907E9
:202A400038F481E08093EA028091E5028093EB0208951092B9008CE08093B8000895982F5F
:202A600084EA8093BC008091BC0087FFFCCF8091B900887F883021F0803111F080E00895B2
:202A80009093BB0084E88093BC008091BC0087FFFCCF9091B900987F983111F481E0089542
:202AA00080E0903409F481E0089584E98093BC008091BC0084FFFCCF08958093BB0084E8C9
:202AC0008093BC008091BC0087FFFCCF8091B90090E0887F883209F491E0892F0895FC014E
:202AE00084EC8093BC008091BC0087FFFCCF8091BB00808381E00895FC0184E88093BC0074
:202B00008091BC0087FFFCCF8091BB00808381E008950F931F938C01FB01DC0112967C9359
:202B20006E93119732971496FC93EE931397329681E090E002C0880F991F4A95E2F71596B2
:202B40008C932291282B2083F894D8011196ED91FC911297908115968C9180958923808350
:202B600078940E94CA16F8016683778380879187128681E08083F894D8011196ED91FC91B9
:202B80001297908115968C9180958923808378941F910F9108958BE290E09093ED028093F4
:202BA000EC0289E290E09093EF028093EE0288E08093F002539AF8945B98789481EF92E06E
:202BC00065E270E041E00E9489158CEF92E065E270E040E00E9489158BE290E0909308030E
:202BE0008093070389E290E090930A038093090380E180930B03549AF8945C9878940895F5
:202C00001F9388EC0E942F15882361F081E00E945D15882339F080EC0E945D15811181E0F0
:202C2000182F01C010E00E945515812F1F910895EF92FF921F93DF93CF9300D0CDB7DEB712
:202C4000182F7B0188EC0E942F158823C1F0812F0E945D15882399F089EC0E942F158823FD
:202C600071F0CE0101960E946F15882341F0CE0102960E947C15882311F011E001C010E0A3
:202C80000E945515112339F089816A810E946519F70191838083812F0F900F90CF91DF91E9
:202CA0001F91FF90EF9008950F931F93CF93DF93EC018B0188E0BE010E9418168823A9F0DD
:202CC0006881798180E090E020E33CE540E050E00E946C19605070488F4F9F4FBC01882706
:202CE0009927F8017183608381E0DF91CF911F910F910895BC0182E00E94181608950E94F8
:202D0000291508951F920F920FB60F9211242F933F938F939F93AF93BF938091100390912A
:202D20001103A0911203B0911303309114030196A11DB11D232F2D5F2D3720F02D5701967A
:202D4000A11DB11D209314038093100390931103A0931203B093130380910C0390910D03CE
:202D6000A0910E03B0910F030196A11DB11D80930C0390930D03A0930E03B0930F03BF915D
:202D8000AF919F918F913F912F910F900FBE0F901F9018958FB7F894209110033091110341
:202DA00040911203509113038FBFB901CA010895789484B5826084BD84B5816084BD85B5C9
:202DC000826085BD85B5816085BDEEE6F0E0808181608083E1E8F0E01082808182608083D8
:202DE000808181608083E0E8F0E0808181608083E1EBF0E0808184608083E0EBF0E0808151
:202E000081608083EAE7F0E08081846080838081826080838081816080838081806880838E
:202E20001092C100089508951F920F920FB60F9211242F933F934F938F939F93EF93FF932A
:202E40008091C00082FD1DC04091C60020915503309156032F5F3F4F2F73307080915703C2
:202E6000909158032817390771F0E0915503F0915603EB5EFC4F40833093560320935503D5
:202E800002C08091C600FF91EF919F918F914F913F912F910F900FBE0F901F901895E091F1
:202EA000A903F091AA03E05CFF4F8191919120813181821B930B8F739070892B11F00E9493
:202EC000131708951F920F920FB60F9211242F933F938F939F93EF93FF9320919903309134
:202EE0009A0380919B0390919C032817390731F48091C1008F7D8093C10014C0E0919B038D
:202F0000F0919C03E75AFC4F208180919B0390919C0301968F73907090939C0380939B03E9
:202F20002093C600FF91EF919F918F913F912F910F900FBE0F901F901895AF92BF92DF92BE
:202F4000EF92FF920F931F93CF93DF93EC017A018B01DD24403081EE580780E0680780E0D5
:202F6000780711F0DD24D39491E0A92EB12CEC89FD89DD2069F0C50108A002C0880F991F74
:202F80000A94E2F7808360E079E08DE390E005C0108260E874E88EE190E0A80197010E9481
:202FA0008B192150304040405040569547953795279580E12030380720F0DD2011F0DD242E
:202FC000D6CFE889F9893083EA89FB89208319A2EE89FF89408121E030E0C9010C8C02C05C
:202FE000880F991F0A94E2F7482B4083EE89FF894081C9010D8C02C0880F991F0A94E2F72A
:20300000482B4083EE89FF894081C9010E8C02C0880F991F0A94E2F7482B4083EE89FF8999
:2030200080810F8C02C0220F331F0A94E2F7209528232083DF91CF911F910F91FF90EF9067
:20304000DF90BF90AF900895DC011C96ED91FC911D97E05CFF4F2191319180819181281B34
:20306000390B2F733070C9010895DC011C96ED91FC911D97E05CFF4F20813181E054F040D4
:20308000DF01AE5BBF4F8D919C9111972817390719F42FEF3FEF07C08D919C91E80FF91F4D
:2030A0008081282F30E0C9010895DC011C96ED91FC911D97E05CFF4F20813181E054F040B2
:2030C000DF01AE5BBF4F8D919C9111972817390719F42FEF3FEF10C08D919C911197E80F74
:2030E000F91F20818D919C91119701968F73907011969C938E9330E0C9010895DC01919619
:203100008C919197882339F05496ED91FC915597808186FFF9CF91961C920895CF93DF9321
:20312000EC01EE85FF85E05CFF4F20813181E054F0402F5F3F4F2F733070DF01AE5BBF4F15
:203140008D919C91119728173907D1F3E05CFF4F80819181E054F040E80FF91F6083EE85D3
:20316000FF85E05CFF4F31832083EE89FF89208181E090E00F8C02C0880F991F0A94E2F756
:20318000282B208381E089A3EC89FD8980818064808381E090E0DF91CF9108951092A00346
:2031A00010929F0388EE93E0A0E0B0E08093A1039093A203A093A303B093A40388E092E0B6
:2031C00090939E0380939D0385E193E09093AA038093A90389E593E09093AC038093AB039C
:2031E00085EC90E09093AE038093AD0384EC90E09093B0038093AF0380EC90E09093B20328
:203200008093B10381EC90E09093B4038093B30382EC90E09093B6038093B50386EC90E000
:203220009093B8038093B70384E08093B90383E08093BA0387E08093BB0385E08093BC030E
:2032400081E08093BD030895CF93DF930E94D8160E940714CFE4D7E10E94BF132097E1F312
:203260000E944F17F9CFCF92DF92EF92FF920F931F93CF93DF937C016B018A01C0E0D0E0AE
:203280000FC0D6016D916D01D701ED91FC910190F081E02DC7010995C80FD91F0150104054
:2032A0000115110571F7CE01DF91CF911F910F91FF90EF90DF90CF900895DC01ED91FC912A
:2032C0000190F081E02D0995089570E0382F20E0622B732BCB010895629FD001739FF00184
:2032E000829FE00DF11D649FE00DF11D929FF00D839FF00D749FF00D659FF00D9927729F85
:20330000B00DE11DF91F639FB00DE11DF91FBD01CF0111240895A1E21A2EAA1BBB1BFD0141
:203320000DC0AA1FBB1FEE1FFF1FA217B307E407F50720F0A21BB30BE40BF50B661F771F03
:20334000881F991F1A9469F760957095809590959B01AC01BD01CF0108952F923F924F92E5
:203360005F926F927F928F929F92AF92BF92CF92DF92EF92FF920F931F93CF93DF93CDB7D6
:20338000DEB7CA1BDB0B0FB6F894DEBF0FBECDBF09942A88398848885F846E847D848C84C0
:2033A0009B84AA84B984C884DF80EE80FD800C811B81AA81B981CE0FD11D0FB6F894DEBFA6
:2033C0000FBECDBFED010895EE0FFF1F0590F491E02D0994F894FFCF00202A000001020281
:2033E000030303030404040404040404050505050505050505050505050505050606060639
:203400000606060606060606060606060606060606060606060606060606060607070707E8
:203420000707070707070707070707070707070707070707070707070707070707070707AC
:20344000070707070707070707070707070707070707070707070707070707070808080888
:2034600008080808080808080808080808080808080808080808080808080808080808084C
:2034800008080808080808080808080808080808080808080808080808080808080808082C
:2034A00008080808080808080808080808080808080808080808080808080808080808080C
:2034C00008080808080808080808080808080808080808080808080808080808000000000C
:2034E0008E1833192418551835187E18FFFFFFFFFFFFFFFFFFFFFFFFFFFFFFFFFFFFFFFF62
:20350000FFFFFFFFFFFFFFFFFFFFFFFFFFFFFFFFFFFFFFFFFFFFFFFFFFFFFFFFFFFFFFFFCB
:20352000FFFFFFFFFFFFFFFFFFFFFFFFFFFFFFFFFFFFFFFFFFFFFFFFFFFFFFFFFFFFFFFFAB
:20354000FFFFFFFFFFFFFFFFFFFFFFFFFFFFFFFFFFFFFFFFFFFFFFFFFFFFFFFFFFFFFFFF8B
:20356000FFFFFFFFFFFFFFFFFFFFFFFFFFFFFFFFFFFFFFFFFFFFFFFFFFFFFFFFFFFFFFFF6B
:207800000C94343C0C94513C0C94513C0C94513C0C94513C0C94513C0C94513C0C94513C1D
:207820000C94513C0C94513C0C94513C0C94513C0C94513C0C94513C0C94513C0C94513CE0
:207840000C94513C0C94513C0C94513C0C94513C0C94513C0C94513C0C94513C0C94513CC0
:207860000C94513C0C94513C11241FBECFEFD8E0DEBFCDBF11E0A0E0B1E0ECE9FFE702C07E
:2078800005900D92A230B107D9F712E0A2E0B1E001C01D92AD30B107E1F70E942D3D0C94CC
:2078A000CC3F0C94003C982F9595959595959595905D8F708A307CF0282F295A8091C000B5
:2078C00085FFFCCF9093C6008091C00085FFFCCF2093C6000895282F205DF0CF982F8091CF
:2078E000C00085FFFCCF9093C6000895EF92FF920F931F93EE24FF2487018091C00087FD7B
:2079000017C00894E11CF11C011D111D81E4E81682E4F8068FE0080780E0180770F3E09106
:207920000401F091050109958091C00087FFE9CF8091C6001F910F91FF90EF9008950E949A
:20794000763C982F8091C00085FFFCCF9093C60091362CF490330CF09053892F08959755DB
:20796000892F08951F930E949F3C182F0E949F3C1295107F810F1F9108951F93182F882308
:2079800021F00E94763C1150E1F71F9108951F93182F0E94763C803249F0809103018F5FC1
:2079A000809303018530C1F01F9108958091C00085FFFCCF84E18093C6008091C00085FF4A
:2079C000FCCF1093C6008091C00085FFFCCF80E18093C6001F910895E0910401F0910501CF
:2079E00009951F9108950E94763C803241F0809103018F5F80930301853081F00895809177
:207A0000C00085FFFCCF84E18093C6008091C00085FFFCCF80E18093C6000895E0910401AC
:207A2000F09105010995089540E951E08823A1F02D9A28EE33E0FA013197F1F72150304072
:207A4000D1F72D9828EE33E0FA013197F1F721503040D1F7815061F708953F924F925F92B3
:207A60006F927F928F929F92AF92BF92CF92DF92EF92FF920F931F93CF93DF93000080E1A3
:207A80008093C4001092C50088E18093C10086E08093C2005098589A259A81E00E94143D43
:207AA00024E1F22E9EE1E92E85E9D82E0FE0C02E10E1B12EAA24A394B1E49B2EA6E58A2E44
:207AC000F2E57F2EE0E26E2E79E4572E63E5462E50E5352E0E94763C8033B1F18133B9F187
:207AE000803409F46FC0813409F476C0823409F485C0853409F488C0803531F1823521F128
:207B0000813511F1853509F485C0863509F48DC0843609F496C0843709F403C1853709F46A
:207B200072C1863709F466C0809103018F5F80930301853079F6E0910401F0910501099559
:207B40000E94763C803351F60E94F33CC3CF0E94763C803249F78091C00085FFFCCFF0928C
:207B6000C6008091C00085FFFCCF9092C6008091C00085FFFCCF8092C6008091C00085FFEA
:207B8000FCCF7092C6008091C00085FFFCCF6092C6008091C00085FFFCCF5092C6008091A1
:207BA000C00085FFFCCF4092C6008091C00085FFFCCF3092C6008091C00085FFFCCFB09214
:207BC000C60088CF0E94763C863808F4BDCF0E94763C0E94F33C7ECF0E94763C803809F473
:207BE0009CC0813809F40BC1823809F43CC1883909F48FC080E00E94C73C6CCF84E10E949F
:207C0000BD3C0E94F33C66CF85E00E94BD3C0E94F33C60CF0E94763C809306010E94763CA3
:207C2000809307010E94F33C55CF0E94763C803309F41DC183E00E94BD3C80E00E94C73C4F
:207C400049CF0E94763C809309020E94763C8093080280910C028E7F80930C020E94763C88
:207C6000853409F415C18091080290910902892B89F000E010E00E94763CF801E85FFE4F53
:207C800080830F5F1F4F80910802909109020817190788F30E94763C803209F045CF8091E0
:207CA0000C0280FF01C16091060170910701660F771F7093070160930601A0910802B091E8
:207CC00009021097C9F0E8E0F1E09B01AD014E0F5F1FF999FECF32BD21BD819180BDFA9A6C
:207CE000F99A2F5F3F4FE417F50799F76A0F7B1F70930701609306018091C00085FFFCCF16
:207D0000F092C6008091C00085FFFCCFB092C600E1CE83E00E94C73CDDCE82E00E94C73C8A
:207D2000D9CE0E94763C809309020E94763C809308028091060190910701880F991F909306
:207D40000701809306010E94763C853409F4A6C080910C028E7F80930C020E94763C80323E
:207D600009F0B8CE8091C00085FFFCCFF092C600609108027091090261157105B9F140E05F
:207D800050E080910C02A82FA170B82FB27011C0BB2309F45CC0E0910601F0910701319613
:207DA000F0930701E09306014F5F5F4F46175707E8F4AA2369F3F999FECF209106013091CA
:207DC000070132BD21BDF89A90B58091C00085FFFCCF9093C6002F5F3F4F30930701209354
:207DE00006014F5F5F4F4617570718F38091C00085FDE5CE8091C00085FFF8CFE0CE81E029
:207E00000E94C73C67CE0E94763C803209F08CCE8091C00085FFFCCFF092C6008091C000F6
:207E200085FFFCCFE092C6008091C00085FFFCCFD092C6008091C00085FFFCCFC092C6003B
:207E40008091C00085FFFCCFB092C60043CEE0910601F091070194918091C00085FFFCCFA3
:207E60009093C6009CCF80E10E94C73C33CE0E94763C0E94763C182F0E94763C112309F433
:207E800083C0113009F484C08FE00E94C73C22CE80910C02816080930C02E5CE80910C0226
:207EA000816080930C0259CF809107018823880F880B8A2180930B0280910601909107019E
:207EC000880F991F90930701809306018091080280FF09C0809108029091090201969093AA
:207EE000090280930802F894F999FECF1127E0910601F0910701C8E0D1E0809108029091A1
:207F00000902103091F40091570001700130D9F303E000935700E895009157000170013067
:207F2000D9F301E100935700E895099019900091570001700130D9F301E000935700E8954C
:207F40001395103498F011270091570001700130D9F305E000935700E8950091570001707A
:207F60000130D9F301E100935700E8953296029709F0C7CF103011F00296E5CF11248091F8
:1E7F8000C00085FFB9CEBCCE8EE10E94C73CA2CD85E90E94C73C9ECDF894FFCF8000B3
:00000001FF
