:200000000C94B4000C94DC000C94DC000C94DC000C94DC000C94DC000C94DC000C94DC0028
:200020000C94DC000C94DC000C94DC000C94DC000C94DC000C94DC000C94DC000C94DC00E0
:200040000C948C090C94DC000C94DC000C94DC000C94DC000C94DC000C94DC000C94DC0007
:200060000C94DC000C94DC002320556E6B6E6F776E2073746174653A2025640A0023206480
:20008000657669636520696E6974206661696C65640A00232053746174653A205245504F1D
:2000A0005254494E472E300A0023204D6F64653A2025640A002530386C752025642E253005
:2000C000366C640A00253034782C2025642C2025642E2530366C640A00232073756363657C
:2000E00073736976652072656164696E67206661696C65640A00232053746174653A20525D
:2001000045504F5254494E472E310A00232046697273742072656164696E67206661696C0D
:2001200065640A0023204D6F6465206368616E6765640A00232053746174653A20494E49B2
:20014000540A00232053746174653A204552524F520A000A000A537461727465640A00001A
:2001600085035006C006C60711241FBECFEFD8E0DEBFCDBF11E0A0E0B1E0E0ECF7E102C0F5
:2001800005900D92A030B107D9F712E0A0E0B1E001C01D92A732B107E1F711E0C8E6D1E0A7
:2001A00004C02297FE010E94A30BC036D107C9F70E9476090C94DE0B0C940000AEE0B0E07D
:2001C000E4EEF0E00C94B50B8C0177FF02C060E070E8615070407E836D831A8309838EE0D7
:2001E0008C83CE010196BA01A9010E9408012D813E8137FD09C0EF81F8852E173F070CF498
:20020000F901E00FF11F10822E96E4E00C94D10BABE0B0E0EEE0F1E00C94A70B3C012B01DA
:200220005A01FC0117821682838181FD03C06FEF7FEFC6C19AE0892E1E010894211C311C27
:20024000F3012381F20123FD859123FF81912F01882309F4B2C1853239F423FD859123FF22
:2002600081912F01853229F490E0B3010E94FB02E7CF982FFF24EE249924FFE1FF15D0F082
:200280009B3269F09C3228F4903259F0933291F40EC09D3249F0903369F441E024C052E0CC
:2002A000F52A84E0F82A28C098E0F92A25C0E0E1FE2A22C0F7FC29C0892F80538A3070F4E1
:2002C000F6FE05C0989C902C1124980E15C0E89CE02C1124E80EF0E2FF2A0EC09E3229F454
:2002E000F6FC6BC140E4F42A07C09C3619F450E8F52A02C0983649F4F20123FD959123FF79
:2003000091912F01992309F0B8CF892F8554833018F08052833038F444E050E0A40EB51E79
:200320005FE359830FC0933631F0933779F0933509F056C020C0F5018081898342E050E0A7
:20034000A40EB51E610101E010E012C0F501C080D180F6FC03C06FEF7FEF02C0692D70E063
:2003600042E050E0A40EB51EC6010E94F0028C015FE7F52214C0F501C080D180F6FC03C051
:200380006FEF7FEF02C0692D70E042E050E0A40EB51EC6010E94E5028C0150E8F52AF3FEED
:2003A00007C01AC080E290E0B3010E94FB02EA948E2D90E008171907A8F30EC0F601F7FC3C
:2003C0008591F7FE81916F0190E0B3010E94FB02E110EA94015010400115110579F7EAC077
:2003E000943611F0993669F5F7FE08C0F501208131814281538184E090E00AC0F5018081D3
:2004000091819C01442737FD4095542F82E090E0A80EB91E9FE6F92257FF09C0509540955E
:20042000309521953F4F4F4F5F4FE0E8FE2ACA01B901A1012AE030E00E942703D82ED2187A
:2004400040C0953729F41F2D1F7E2AE030E01DC01F2D197F9F3661F0903720F4983509F028
:20046000ACC00FC0903739F0983709F0A6C004C028E030E00AC0106114FD146020E130E076
:2004800004C014FD166020E132E017FF08C0F501608171818281938144E050E008C0F5012E
:2004A00080819181BC0180E090E042E050E0A40EB51EA1010E942703D82ED2188FE7F82ECB
:2004C000F122F6FE0BC05EEFF522D91438F4F4FE07C0F2FC05C08FEEF82202C01D2D01C0FD
:2004E000192DF4FE0DC0FE01ED0DF11D8081803319F499EEF92208C01F5FF2FE05C003C0CF
:200500008F2D867809F01F5F0F2DF3FC14C0F0FE0FC01E1510F09D2C0BC09D2C9E0C911A09
:200520001E2D06C080E290E0B3010E94FB021F5F1E15C0F304C01E1510F4E11A01C0EE2458
:2005400004FF0FC080E390E0B3010E94FB0202FF1DC001FD03C088E790E00EC088E590E07A
:200560000BC0802F867891F001FF02C08BE201C080E2F7FC8DE290E0B3010E94FB0206C045
:2005800080E390E0B3010E94FB029A94D914C0F3DA94F101ED0DF11D808190E0B3010E9438
:2005A000FB02DD20A9F706C080E290E0B3010E94FB02EA94EE20C1F743CEF301668177818E
:2005C000CB012B96E2E10C94C30BFC010590615070400110D8F7809590958E0F9F1F089558
:2005E000FC016150704001900110D8F7809590958E0F9F1F08950F931F93CF93DF938C0145
:20060000EB018B8181FF1BC082FF0DC02E813F818C819D812817390764F4E881F981019351
:20062000F983E88306C0E885F985802F0995892B31F48E819F8101969F838E8302C00FEF43
:200640001FEFC801DF91CF911F910F910895FA01AA27283051F1203181F1E8946F936E7F72
:200660006E5F7F4F8F4F9F4FAF4FB1E03ED0B4E03CD0670F781F891F9A1FA11D680F791F9B
:200680008A1F911DA11D6A0F711D811D911DA11D20D009F468943F912AE0269F112430192E
:2006A000305D3193DEF6CF010895462F4770405D4193B3E00FD0C9F7F6CF462F4F70405D43
:2006C0004A3318F0495D31FD4052419302D0A9F7EACFB4E0A6959795879577956795BA95C2
:2006E000C9F700976105710508959B01AC010A2E06945795479537952795BA95C9F7620F3F
:20070000731F841F951FA01D089588EE93E090930D0180930C018FEF99E6A5E1B4E480932E
:200720000E0190930F01A0931001B093110184E690E090931301809312018FE794ECAAEB1C
:20074000B5E48093140190931501A0931601B09317010E946D0960930801709309018093C6
:200760000A0190930B010895CF93DF93EC0188818230D9F08330D1F1813009F051C08A851E
:20078000882309F44DC082E08883F894E981FA8180819D81892B808378940E946D096E83DB
:2007A0007F83888799871A863BC00E946D092E813F8148855985621B730B840B950B65317B
:2007C00071058105910560F183E08883F894E981FA8190818D8180958923808378940E94C6
:2007E0006D096E837F83888799871AC00E946D092E813F8148855985621B730B840B950B2B
:200800006F3171058105910558F081E08883F894E981FA8190818D81809589238083789492
:20082000DF91CF91089583E0809318011092010180912D01282F21702093000183FF1DC0DE
:2008400000D000D0EDB7FEB7319689EA90E0ADB7BEB712969C938E931197228313820E94A0
:20086000CD080F900F9083E990E0EDB7FEB7928381830E94CD080F900F90089581E0809351
:20088000180180912D0183FF0BC000D084E391E0EDB7FEB7928381830E94CD080F900F90E4
:2008A000089584E08093180180912D0183FF0BC000D083E491E0EDB7FEB7928381830E94C3
:2008C000CD080F900F900E946D09609308017093090180930A0190930B0181E080934801DA
:2008E00008950E94FB07882319F00E941304089580912D0183FF0BC000D08DE790E0EDB7C9
:20090000FEB7928381830E94CD080F900F900E94510408952F923F924F925F926F927F924A
:200920008F929F92AF92BF92CF92DF92EF92FF920F931F93DF93CF9300D00F92CDB7DEB73D
:2009400080912D01282F982F917080910001981791F023FF0DC000D084E291E0ADB7BEB788
:2009600012969C938E9311970E94CD080F900F900E94130400C180910101882369F586E026
:2009800091E00E942808882341F480912D0183FF6EC000D08CE091E062C00E946D0960936B
:2009A000020170930301809304019093050181E08093010180912D0183FFDDC000D086EFD3
:2009C00090E0ADB7BEB712969C938E9311970E94CD080F900F90CFC0892F90E05C01AA0CAF
:2009E000BB1CA80EB91EF501EE0FFF1FE45FFE4F008111810E946D092B013C01C09002010B
:200A0000D0900301E0900401F0900501DC01CB018C199D09AE09BF09980140E050E0821782
:200A20009307A407B5070CF4A6C02C0D3D1D4E1D5F1D20930201309303014093040150939D
:200A40000501CE0101960E942808B0912D01BB83882381F4B3FF0BC000D089ED90E0EDB7B4
:200A6000FEB7928381830E94CD080F900F900E94510481C089809A80809106019091070157
:200A80001401281A390A9092070180920601B101882777FD8095982F0E94420AF501EE0FE7
:200AA000FF1FE25FFE4F20813181428153810E94A60A0E940F0A7B018C0120E432E44FE041
:200AC00050E00E94640B59016A01B901882777FD8095982F20EC3DEB40EF5FEF0E94310BC8
:200AE0009B01AC012E0D3F1D401F511FFB81F3FF18C08DB79EB70C970FB6F8949EBF0FBE4A
:200B00008DBFEDB7FEB7319685EC90E0ADB7BEB712969C938E931197938282823582248299
:200B200017C08DB79EB70C970FB6F8949EBF0FBE8DBFEDB7FEB7319685EB90E0ADB7BEB702
:200B400012969C938E9311974282538264827582B782A68220873187428753870E94CD08A5
:200B6000EDB7FEB73C960FB6F894FEBF0FBEEDBF81E080933D010F900F900F90CF91DF9164
:200B80001F910F91FF90EF90DF90CF90BF90AF909F908F907F906F905F904F903F902F90E3
:200BA0000895CF93DF93C8E6D0E00E94EE080E94E1060E947C060E94B10883E391E00E944D
:200BC000B4038EE391E00E94B40390911801933039F0943041F09130E1F40E947104E5CFA7
:200BE0000E948A04E2CF0E946D09209108013091090140910A0150910B01621B730B840B24
:200C0000950B643671058105910578F20E943E04CCCF80912D0183FF13C000D000D0EDB747
:200C2000FEB73196ADB7BEB71296DC93CE931197928313820E94CD080F900F900F900F90A2
:200C40000E945104B2CF15BC14BC0E946D0880912D0183FF04C000D085E591E003C000D0A1
:200C600083E591E0EDB7FEB7928381830E94CD080F900F900E9415070E94B90604C00E94EF
:200C8000EE080E94E10680912C018823C1F30E946A080E943E04789481E080933D010895E5
:200CA00082E390E090931A01809319010E946D0960931C0170931D0180931E0190931F0136
:200CC00010921B010E946D0960931C0170931D0180931E0190931F01109220011092210111
:200CE00089E290E0909323018093220184E08093240152985A9A0895E0912201F09123014C
:200D0000808120E090912401892309F421E080911B01281769F020931B010E946D09609343
:200D20001C0170931D0180931E0190931F0108950E946D0920911C0130911D0140911E01AE
:200D400050911F01621B730B840B950B2091190130911A0140E050E0261737074807590747
:200D600038F481E08093200180911B0180932101089587B1807F87B988B18F6088B9089536
:200D800082E390E090932601809325010E946D09609328017093290180932A0190932B010D
:200DA000109227010E946D09609328017093290180932A0190932B0110922C0110922D01DC
:200DC000089596B19F7080912701981769F0909327010E946D096093280170932901809320
:200DE0002A0190932B0108950E946D09209128013091290140912A0150912B01621B730BFB
:200E0000840B950B209125013091260140E050E0261737074807590738F481E080932C019D
:200E20008091270180932D0108951092800083E0809381001092850010928400109289000A
:200E40001092880010928B0010928A0010926F0016BA08951092B9008CE08093B800089562
:200E6000982F84EA8093BC008091BC0087FFFCCF8091B900887F883021F0803111F081E0A3
:200E800008959093BB0084E88093BC008091BC0087FFFCCF9091B900987F983111F480E05F
:200EA000089580E0903409F081E0089584E98093BC008091BC0084FDFCCF08958093BB00BA
:200EC00084E88093BC008091BC0087FFFCCF8091B90090E0887F883209F091E0892F0895FF
:200EE00084EC8093BC008091BC0087FFFCCF8091BB00089584E88093BC008091BC0087FF9E
:200F0000FCCF8091BB0008950F931F938C01FB01DC0112967C936E93119732971496FC9381
:200F2000EE931397329681E090E002C0880F991F4A95E2F715968C932291282B2083F89425
:200F4000D8011196ED91FC911297908115968C9180958923808378940E946D09F8016683BA
:200F6000778380879187128681E08083F894D8011196ED91FC911297908115968C918095AE
:200F80008923808378941F910F9108958BE290E090932F0180932E0189E290E09093310107
:200FA0008093300180E880933201579AF8945F98789483E391E065E270E040E00E94840704
:200FC0008EE391E065E270E041E00E94840785E290E090934A018093490183E290E09093B0
:200FE0004C0180934B0184E080934D01229AF8942A9878940895FF920F931F9388EC0E94D2
:201000003007182F81E00E945E0720E030E0112311F021E030E0082F10E0022B132B80EC96
:201020000E945E07F82E0E94560740E020E030E0012B11F021E030E08F2D90E0282B392B33
:20104000232B09F441E0842F1F910F91FF900895DF92EF92FF920F931F93CF93DF93EC015D
:2010600088EC0E943007182F82E00E945E0720E030E0112311F021E030E0082F10E0022BC9
:20108000132B89EC0E943007D82E0E947007E82E0E947A07F82E0E9456078E2D6F2D0E944E
:2010A00085099983888340E020E030E0012B11F021E030E08D2D90E0282B392B232B09F4E1
:2010C00041E0842FDF91CF911F910F91FF90EF90DF9008950E942A07089510929F011092AE
:2010E0009E011092C50080E18093C40082E08093C00088E08093C10086E08093C200089569
:2011000090919E018A30E9F4973750F520919F01E22FE90FE83708F0E857F0E0E056FE4F62
:201120008DE080839F5FE92FE20FE83708F0E857F0E0E056FE4F8AE080839F5F90939E0162
:201140000895983768F4E0919F01E90FE83708F0E857F0E0E056FE4F80839F5F90939E0152
:20116000089590919E019923B9F08091C00085FF13C080919F01E82FF0E0E056FE4FE08109
:201180008F5F80939F01883710F010929F01915090939E01E093C60008950F931F93DF936E
:2011A000CF93CDB7DEB7FE013796419151918EE491E060E570E09F010E94DE000EE411E0B9
:2011C00004C00E9480080F5F1F4FF80180818823C1F7CF91DF911F910F9108954F925F9259
:2011E0006F927F928F929F92AF92BF92CF92DF92EF92FF920F931F93F8942091840030913F
:201200008500789440901C0250901D0224193509609018027090190280901A0290901B0247
:20122000C90164EC79E00E94500B5B018CE396EFAC01649FC001659F900D749F900D1124F7
:20124000820F931F6AEF70E00E94500B6B017B0100E010E0B50180E090E02AE030E040E02D
:2012600050E00E94310B660E771E881E991EE60CF71C081D191DE0921802F09219020093DE
:201280001A0210931B028AEF90E0C89E9001C99E300DD89E300D112484EC99E0AC01A49E2E
:2012A000C001A59E900DB49E900D1124840D951D280F391F30931D0220931C021F910F9194
:2012C000FF90EF90DF90CF90BF90AF909F908F907F906F905F904F900895609118027091D1
:2012E000190280911A0290911B020895CF93DF930E94D4090E942306C0E0D0E00E94D105E5
:201300002097E1F30E940000F9CF70E0382F20E0622B732BCB0108951F920F920FB60F92D5
:2013200011242F933F938F939F93AF93BF938091220290912302A0912402B0912502309101
:2013400026020196A11DB11D232F2D5F2D3720F02D570196A11DB11D209326028093220237
:2013600090932302A0932402B093250280911E0290911F02A0912002B09121020196A11DE3
:20138000B11D80931E0290931F02A0932002B0932102BF91AF919F918F913F912F910F903E
:2013A0000FBE0F901F901895789484B5826084BD84B5816084BD85B5826085BD85B5816029
:2013C00085BDEEE6F0E0808181608083E1E8F0E01082808182608083808181608083E0E884
:2013E000F0E0808181608083E1EBF0E0808184608083E0EBF0E0808181608083EAE7F0E093
:201400008081846080838081826080838081816080838081806880831092C100089504D059
:201420006894B1118DC0089570D088F09F5790F0B92F9927B751A0F0D1F0660F771F881F23
:20144000991F1AF0BA95C9F712C0B13081F077D0B1E0089574C0672F782F8827B85F39F0C2
:20146000B93FCCF3869577956795B395D9F73EF490958095709561957F4F8F4F9F4F0895DC
:20148000E89409C097FB3EF490958095709561957F4F8F4F9F4F9923A9F0F92F96E9BB2796
:2014A0009395F695879577956795B795F111F8CFFAF4BB0F11F460FF1BC06F5F7F4F8F4FCF
:2014C0009F4F16C0882311F096E911C0772321F09EE8872F762F05C0662371F096E8862FDE
:2014E00070E060E02AF09A95660F771F881FDAF7880F9695879597F9089557FD9058440FF6
:20150000551F59F05F3F71F04795880F97FB991F61F09F3F79F087950895121613061406A6
:20152000551FF2CF4695F1DF08C0161617061806991FF1CF86957105610508940895E89478
:20154000BB2766277727CB0197F908950BD078C069D028F06ED018F0952309F05AC05FC0F1
:201560001124EECFCADFA0F3959FD1F3950F50E0551F629FF001729FBB27F00DB11D639F4B
:20158000AA27F00DB11DAA1F649F6627B00DA11D661F829F2227B00DA11D621F739FB00D21
:2015A000A11D621F839FA00D611D221F749F3327A00D611D231F849F600D211D822F762F60
:2015C0006A2F11249F5750408AF0E1F088234AF0EE0FFF1FBB1F661F771F881F915050405F
:2015E000A9F79E3F510570F014C0AACF5F3FECF3983EDCF3869577956795B795F795E795D2
:201600009F5FC1F7FE2B880F911D9695879597F9089597F99F6780E870E060E008959FEF79
:2016200080EC089500240A941616170618060906089500240A941216130614060506089507
:20164000092E0394000C11F4882352F0BB0F40F4BF2B11F460FF04C06F5F7F4F8F4F9F4F46
:201660000895629FD001739FF001829FE00DF11D649FE00DF11D929FF00D839FF00D749F7E
:20168000F00D659FF00D9927729FB00DE11DF91F639FB00DE11DF91FBD01CF011124089573
:2016A000AA1BBB1B51E107C0AA1FBB1FA617B70710F0A61BB70B881F991F5A95A9F78095F2
:2016C0009095BC01CD01089597FB092E05260ED057FD04D014D00AD0001C38F45095409503
:2016E000309521953F4F4F4F5F4F0895F6F790958095709561957F4F8F4F9F4F0895A1E21C
:201700001A2EAA1BBB1BFD010DC0AA1FBB1FEE1FFF1FA217B307E407F50720F0A21BB30B68
:20172000E40BF50B661F771F881F991F1A9469F760957095809590959B01AC01BD01CF0127
:201740000895EE0FFF1F0590F491E02D09942F923F924F925F926F927F928F929F92AF9204
:20176000BF92CF92DF92EF92FF920F931F93CF93DF93CDB7DEB7CA1BDB0B0FB6F894DEBF3A
:201780000FBECDBF09942A88398848885F846E847D848C849B84AA84B984C884DF80EE8087
:2017A000FD800C811B81AA81B981CE0FD11D0FB6F894DEBF0FBECDBFED010895F894FFCF27
:2017C000FFFFFFFFFFFFFFFFFFFFFFFFFFFFFFFFFFFFFFFFFFFFFFFFFFFFFFFFFFFFFFFF29
:2017E000FFFFFFFFFFFFFFFFFFFFFFFFFFFFFFFFFFFFFFFFFFFFFFFFFFFFFFFFFFFFFFFF09
:201800000F931F93CF93DF9320E0C0E0D0E0082F10E0FE01EE0FFF1FEC0FFD1FE159FE4F71
:20182000E4918E2F90E080239123892B89F0222319F080E20E94440CFE01EE0FFF1FEC0FCB
:20184000FD1FE059FE4F859194910E94190D21E02196C730D105E9F6DF91CF911F910F915F
:2018600008951092600210925F021092C50080E18093C40082E08093C00088E08093C100B4
:2018800086E08093C200089590915F02983768F4E0916002E90FE83708F0E857F0E0EF598A
:2018A000FD4F80839F5F90935F02089590915F029923B9F08091C00085FF13C08091600238
:2018C000E82FF0E0EF59FD4FE0818F5F80936002883710F010926002915090935F02E0932E
:2018E000C600089502C00E94560C80915F028823D1F70895282F22952F7090915F022A30B4
:2019000068F49837D8F4E0916002E90FE83708F0E857F0E0EF59FD4F205D0CC0983770F4CF
:20192000E0916002E90FE83708F0E857F0E0EF59FD4F295A20839F5F90935F028F7090915A
:201940005F028A3088F49837F8F4E0916002E90FE83708F0E857F0E0EF59FD4F805D8083D0
:201960009F5F90935F020895983770F4E0916002E90FE83708F0E857F0E0EF59FD4F895AAD
:2019800080839F5F90935F02089590915F02983770F4E0916002E90FE83708F0E857F0E07F
:2019A000EF59FD4F8AE080839F5F90935F0208954091600220915F02FC0101963491332313
:2019C00069F02837C8F7E22FE40FE83708F0E857F0E0EF59FD4F30832F5FEECF20935F02C0
:2019E00008954091600220915F02FC0101963491332369F02837C8F7E22FE40FE83708F0C4
:201A0000E857F0E0EF59FD4F30832F5FEECF20935F02283768F4E42FE20FE83708F0E857FC
:201A2000F0E0EF59FD4F8AE080832F5F20935F020895DC012091600280915F029D9199234A
:201A400069F08837D8F7E82FE20FE83708F0E857F0E0EF59FD4F90838F5FF0CF80935F02A9
:201A60000895DF93CF93CDB7DEB7FE013596419151918FE092E060E570E09F010E941C0189
:201A80002091600280915F02AFE0B2E00DC0883750F4E82FE20FE83708F0E857F0E0EF595A
:201AA000FD4F90838F5F11969C91992381F780935F02CF91DF9108954F925F926F927F920C
:201AC0008F929F92AF92BF92CF92DF92EF92FF920F931F93F89420918400309185007894D7
:201AE0004090DD025090DE02241935096090D9027090DA028090DB029090DC02C90164EC50
:201B000079E00E94A30E5B018CE396EFAC01649FC001659F900D749F900D1124820F931F8F
:201B20006AEF70E00E94A30E6B017B0100E010E0B50180E090E02AE030E040E050E00E945F
:201B4000840E660E771E881E991EE60CF71C081D191DE092D902F092DA020093DB0210936F
:201B6000DC028AEF90E0C89E9001C99E300DD89E300D112484EC99E0AC01A49EC001A59E3F
:201B8000900DB49E900D1124840D951D280F391F3093DE022093DD021F910F91FF90EF901F
:201BA000DF90CF90BF90AF909F908F907F906F905F904F9008956091D9027091DA02809148
:201BC000DB029091DC020895CF93DF930E94490E0E942A05C0E0D0E00E9422042097E1F34B
:201BE0000E940000F9CFFC0120E030E08081882311F421E030E0C9010895FC0181E08083E4
:201C000008951F920F920FB60F9211242F933F938F939F93AF93BF938091E3029091E402C1
:201C2000A091E502B091E6023091E7020196A11DB11D232F2D5F2D3720F02D570196A11D6B
:201C4000B11D2093E7028093E3029093E402A093E502B093E6028091DF029091E002A091AE
:201C6000E102B091E2020196A11DB11D8093DF029093E002A093E102B093E202BF91AF9173
:201C80009F918F913F912F910F900FBE0F901F901895789484B5826084BD84B5816084BD3A
:201CA00085B5826085BD85B5816085BDEEE6F0E0808181608083E1E8F0E0108280818260D2
:201CC0008083808181608083E0E8F0E0808181608083E1EBF0E0808184608083E0EBF0E080
:201CE000808181608083EAE7F0E080818460808380818260808380818160808380818068C2
:201D000080831092C1000895629FD001739FF001829FE00DF11D649FE00DF11D929FF00DA3
:201D2000839FF00D749FF00D659FF00D9927729FB00DE11DF91F639FB00DE11DF91FBD013C
:201D4000CF0111240895AA1BBB1B51E107C0AA1FBB1FA617B70710F0A61BB70B881F991F4D
:201D60005A95A9F780959095BC01CD010895EE0FFF1F0590F491E02D09942F923F924F9220
:201D80005F926F927F928F929F92AF92BF92CF92DF92EF92FF920F931F93CF93DF93CDB7CC
:201DA000DEB7CA1BDB0B0FB6F894DEBF0FBECDBF09942A88398848885F846E847D848C84B6
:201DC0009B84AA84B984C884DF80EE80FD800C811B81AA81B981CE0FD11D0FB6F894DEBF9C
:201DE0000FBECDBFED010895F894FFCF53485254004C4F4E4700535452540053544F5000A1
:201E000053594E43004F56524E004F54485200010204081020408000FFFFFFFFFFFFFFFF0C
:201E2000FFFFFFFFFFFFFFFFFFFFFFFFFFFFFFFFFFFFFFFFFFFFFFFFFFFFFFFFFFFFFFFFC2
:201E4000FFFFFFFFFFFFFFFFFFFFFFFFFFFFFFFFFFFFFFFFFFFFFFFFFFFFFFFFFFFFFFFFA2
:201E6000FFFFFFFFFFFFFFFFFFFFFFFFFFFFFFFFFFFFFFFFFFFFFFFFFFFFFFFFFFFFFFFF82
:201E8000FFFFFFFFFFFFFFFFFFFFFFFFFFFFFFFFFFFFFFFFFFFFFFFFFFFFFFFFFFFFFFFF62
:207800000C94343C0C94513C0C94513C0C94513C0C94513C0C94513C0C94513C0C94513C1D
:207820000C94513C0C94513C0C94513C0C94513C0C94513C0C94513C0C94513C0C94513CE0
:207840000C94513C0C94513C0C94513C0C94513C0C94513C0C94513C0C94513C0C94513CC0
:207860000C94513C0C94513C11241FBECFEFD8E0DEBFCDBF11E0A0E0B1E0ECE9FFE702C07E
:2078800005900D92A230B107D9F712E0A2E0B1E001C01D92AD30B107E1F70E942D3D0C94CC
:2078A000CC3F0C94003C982F9595959595959595905D8F708A307CF0282F295A8091C000B5
:2078C00085FFFCCF9093C6008091C00085FFFCCF2093C6000895282F205DF0CF982F8091CF
:2078E000C00085FFFCCF9093C6000895EF92FF920F931F93EE24FF2487018091C00087FD7B
:2079000017C00894E11CF11C011D111D81E4E81682E4F8068FE0080780E0180770F3E09106
:207920000401F091050109958091C00087FFE9CF8091C6001F910F91FF90EF9008950E949A
:20794000763C982F8091C00085FFFCCF9093C60091362CF490330CF09053892F08959755DB
:20796000892F08951F930E949F3C182F0E949F3C1295107F810F1F9108951F93182F882308
:2079800021F00E94763C1150E1F71F9108951F93182F0E94763C803249F0809103018F5FC1
:2079A000809303018530C1F01F9108958091C00085FFFCCF84E18093C6008091C00085FF4A
:2079C000FCCF1093C6008091C00085FFFCCF80E18093C6001F910895E0910401F0910501CF
:2079E00009951F9108950E94763C803241F0809103018F5F80930301853081F00895809177
:207A0000C00085FFFCCF84E18093C6008091C00085FFFCCF80E18093C6000895E0910401AC
:207A2000F09105010995089540E951E08823A1F02D9A28EE33E0FA013197F1F72150304072
:207A4000D1F72D9828EE33E0FA013197F1F721503040D1F7815061F708953F924F925F92B3
:207A60006F927F928F929F92AF92BF92CF92DF92EF92FF920F931F93CF93DF93000080E1A3
:207A80008093C4001092C50088E18093C10086E08093C2005098589A259A81E00E94143D43
:207AA00024E1F22E9EE1E92E85E9D82E0FE0C02E10E1B12EAA24A394B1E49B2EA6E58A2E44
:207AC000F2E57F2EE0E26E2E79E4572E63E5462E50E5352E0E94763C8033B1F18133B9F187
:207AE000803409F46FC0813409F476C0823409F485C0853409F488C0803531F1823521F128
:207B0000813511F1853509F485C0863509F48DC0843609F496C0843709F403C1853709F46A
:207B200072C1863709F466C0809103018F5F80930301853079F6E0910401F0910501099559
:207B40000E94763C803351F60E94F33CC3CF0E94763C803249F78091C00085FFFCCFF0928C
:207B6000C6008091C00085FFFCCF9092C6008091C00085FFFCCF8092C6008091C00085FFEA
:207B8000FCCF7092C6008091C00085FFFCCF6092C6008091C00085FFFCCF5092C6008091A1
:207BA000C00085FFFCCF4092C6008091C00085FFFCCF3092C6008091C00085FFFCCFB09214
:207BC000C60088CF0E94763C863808F4BDCF0E94763C0E94F33C7ECF0E94763C803809F473
:207BE0009CC0813809F40BC1823809F43CC1883909F48FC080E00E94C73C6CCF84E10E949F
:207C0000BD3C0E94F33C66CF85E00E94BD3C0E94F33C60CF0E94763C809306010E94763CA3
:207C2000809307010E94F33C55CF0E94763C803309F41DC183E00E94BD3C80E00E94C73C4F
:207C400049CF0E94763C809309020E94763C8093080280910C028E7F80930C020E94763C88
:207C6000853409F415C18091080290910902892B89F000E010E00E94763CF801E85FFE4F53
:207C800080830F5F1F4F80910802909109020817190788F30E94763C803209F045CF8091E0
:207CA0000C0280FF01C16091060170910701660F771F7093070160930601A0910802B091E8
:207CC00009021097C9F0E8E0F1E09B01AD014E0F5F1FF999FECF32BD21BD819180BDFA9A6C
:207CE000F99A2F5F3F4FE417F50799F76A0F7B1F70930701609306018091C00085FFFCCF16
:207D0000F092C6008091C00085FFFCCFB092C600E1CE83E00E94C73CDDCE82E00E94C73C8A
:207D2000D9CE0E94763C809309020E94763C809308028091060190910701880F991F909306
:207D40000701809306010E94763C853409F4A6C080910C028E7F80930C020E94763C80323E
:207D600009F0B8CE8091C00085FFFCCFF092C600609108027091090261157105B9F140E05F
:207D800050E080910C02A82FA170B82FB27011C0BB2309F45CC0E0910601F0910701319613
:207DA000F0930701E09306014F5F5F4F46175707E8F4AA2369F3F999FECF209106013091CA
:207DC000070132BD21BDF89A90B58091C00085FFFCCF9093C6002F5F3F4F30930701209354
:207DE00006014F5F5F4F4617570718F38091C00085FDE5CE8091C00085FFF8CFE0CE81E029
:207E00000E94C73C67CE0E94763C803209F08CCE8091C00085FFFCCFF092C6008091C000F6
:207E200085FFFCCFE092C6008091C00085FFFCCFD092C6008091C00085FFFCCFC092C6003B
:207E40008091C00085FFFCCFB092C60043CEE0910601F091070194918091C00085FFFCCFA3
:207E60009093C6009CCF80E10E94C73C33CE0E94763C0E94763C182F0E94763C112309F433
:207E800083C0113009F484C08FE00E94C73C22CE80910C02816080930C02E5CE80910C0226
:207EA000816080930C0259CF809107018823880F880B8A2180930B0280910601909107019E
:207EC000880F991F90930701809306018091080280FF09C0809108029091090201969093AA
:207EE000090280930802F894F999FECF1127E0910601F0910701C8E0D1E0809108029091A1
:207F00000902103091F40091570001700130D9F303E000935700E895009157000170013067
:207F2000D9F301E100935700E895099019900091570001700130D9F301E000935700E8954C
:207F40001395103498F011270091570001700130D9F305E000935700E8950091570001707A
:207F60000130D9F301E100935700E8953296029709F0C7CF103011F00296E5CF11248091F8
:1E7F8000C00085FFB9CEBCCE8EE10E94C73CA2CD85E90E94C73C9ECDF894FFCF8000B3
:00000001FF
