:200000000C94D3050C94FB050C94FB050C94FB050C94FB050C94FB050C94FB050C94FB0508
:200020000C94FB050C94FB050C94FB050C94FB050C94FB050C94FB050C94FB050C94FB05C0
:200040000C9495260C94FB050C9427270C9475270C94FB050C94FB050C94FB050C94FB05FB
:200060000C94FB050C94FB0508000000BE922449123EABAAAA2ABECDCCCC4C3E00000080D5
:20008000BEABAAAAAA3E00000000BF000000803F0000000000084178D3BB4387D1133D19EA
:2000A0000E3CC3BD4282AD2B3E68EC8276BED98FE1A93E4C80EFFFBE01C4FF7F3F00000068
:2000C00000002320556E6B6E6F776E2073746174653A2025640A0023204C544332393433C7
:2000E00020696E6974206661696C65642028697320706F77657220636F6E6E656374656463
:200100003F290A0020256C7520256C7520256C752025750A0025752E253033752025752E8A
:20012000253033752025752E253033752025752E253033750023204C54433239343320766A
:200140006F6C746167652072656164696E67206661696C65640A0023204C544332393433A2
:20016000206368617267652072656164696E67206661696C6564202832290A0023204C54E6
:200180004332393433206368617267652072656164696E67206661696C6564202831290A95
:2001A000000A000A00253464004D6573736167653A200054657374204D6F646500646574CD
:2001C00065637465642E004572726F7200636F6D6D206572726F722E0043757272656E74DB
:2001E0002073656E736500616E616C797369732E2E2E0052657374617274696E67005665F5
:200200007220302E32313000504F57455220504C41590042002530345800520025752E2516
:2002200030337500490025752E25303375005600736563002536750054006D616800253494
:2002400075005177616B65002A0025356C75004E77616B6500760025752E25303375005644
:2002600000736563002536750054006D6168002534750051006D610049617667006D6100A7
:20028000490025303175002E00253475006D610049617667006D61004900FFD0FFE0FFC144
:2002A000FFD1AED580A83FD300408D142002A1C8DA1281CFD9F1DB402EA4A6AFFFD0FFFE31
:2002C000FFE0FFD11000FFFEFFE0FFD1AEFFD1FFFEFFE0FFD1AFFF32FFD1FFFE01080D00C6
:2002E000FE09016102CD20FFFE0BFE09FE0D008032198980808080808080008028438390BA
:2003000090901367874848FC48FC48481259892078A0A0702828F02012698944A44810106C
:20032000204854881267876090906094887438138380808032398920404080808040402007
:200340002239898040402020204040801665854830FC30481455852020F8202011438370C0
:200360006080165181F821338340E0400279890202040810204080801269893048848484FA
:20038000848448301259892060A02020202020F81269897884840408304080FC126989FCB5
:2003A0000408103804048478126989081828488888FC0808126989FC8080B8C404048478B5
:2003C00012698938408080B8C4848478126989FC0408101020204040126989788484847839
:2003E000848484781269897884848C740404087021388840E040000040E0401148882070E3
:20040000200000706080225989081020408040201008146484FC0000FC1259898040201020
:2004200008102040801269897884840408101000101269897884849CA4AC94807812698904
:200440003048848484FC848484126989F0888488F0888488F0126989788480808080808410
:2004600078126989F088848484848488F0126989FC808080F0808080FC126989FC80808010
:20048000F08080808012698978848080809C848C7412698984848484FC84848484125989B8
:2004A000F820202020202020F81279893E0808080808088870126989848890A0C0A090883A
:2004C000841269898080808080808080FC0279898282C6AA92928282821269898484C4A402
:2004E000948C848484126989788484848484848478126989F8848484F880808080116A8A3B
:20050000788484848484A4947804126989F8848484F8A090888412698978848080780404DF
:200520008478027989FE101010101010101012698984848484848484847802798982824455
:2005400044442828281002798982828282929292AA4402798982824428102844828202796C
:2005600089828244281010101010126989FC04081020408080FC224989F0808080808080D6
:2005800080F0027989808040201008040202124989F010101010101010F01853832050884D
:2005A000017181FE3A2282804012668678047C848C74126989808080B8C48484C4B8126636
:2005C00086788480808478126989040404748C84848C741266867884FC80847812698938D7
:2005E000444040F8404040401068887488887080788478126989808080B8C4848484841235
:20060000588820006020202020F8105A8A080018080808088888701269898080808890E0D2
:200620009088841259896020202020202020F8027686EC9292929282126686B8C484848438
:2006400084126686788484848478106888B8C484C4B8808080106888748C848C740404048C
:20066000126686B844404040401266867884601884781268884040F840404044381266865E
:2006800088888888887412568688888850502002768682829292AA44126686844830304872
:2006A000841068888484848C74048478126686FC08102040FC22598938404020C020404080
:2006C00038321989808080808080808080125989E010102018201010E018538348A890FFD5
:2006E000FFFFFFFFFFFFFFFFFFFFFFFFFFFFFFFFFFFFFFFFFFFFFFFFFFFFFFFFFFFFFFFF1A
:200700000D00803219898000808080808080801358882070A8A0A0A870200279891C222073
:200720007020202062DC136686847848487884027989828244287C107C10103219898080B4
:2007400080800080808080224A8A609080609090601090602A42829090037989384492AA88
:20076000A2AA924438145787700878887800F803778712244890482412136484FC040404B5
:20078000264181F0037989384492AAAAB2AA44381A6181FC2744846090906013578720204A
:2007A000F8202000F81646866090106080F01646866090201090603A228240801167878444
:2007C000848484CCB4801269897CE8E8E86828282828362181C030228240C016368640C00F
:2007E000404040E01546866090906000F003778790482412244890027A8A40C0404042E6EF
:200800000A121A06027A8A40C040404CF2020C101E027A8A6090201092660A121A061269C7
:2008200089200020204080848478126A8A20100030488484FC8484126A8A102000304884A3
:2008400084FC8484126A8A30480030488484FC8484126A8A64980030488484FC8484126A0C
:200860008A48480030488484FC8484126A8A30483030488484FC84840279896E9090909CEA
:20088000F090909E106B8B7884808080808084781020126A8A201000FC8080F08080FC12CC
:2008A0006A8A102000FC8080F08080FC126A8A304800FC8080F08080FC126A8A484800FC34
:2008C0008080F08080FC125A8A402000F82020202020F8125A8A102000F82020202020F890
:2008E000125A8A304800F82020202020F8125A8A888800F82020202020F802798978444262
:2009000042E242424478027A8A64980082C2A2928A8682027A8A2010007C82828282827CAF
:20092000027A8A0810007C82828282827C027A8A1824007C82828282827C027A8A64980051
:200940007C82828282827C027A8A4444007C82828282827C136686844830304884116B8B07
:2009600004788C9494A4A4A4C47880126A8A40200084848484848478126A8A10200084846B
:200980008484848478126A8A30480084848484848478126A8A484800848484848484781289
:2009A0005A8A1020008888502020202012698980F8848484F880808012698970888890A00F
:2009C000988484B812698920100078047C848C7412698908100078047C848C741269893043
:2009E000480078047C848C7412698964980078047C848C7412698948480078047C848C74A7
:200A0000126A8A3048300078047C848C740276866C127C90926C106888788480808478101E
:200A2000201269892010007884FC8084781269891020007884FC8084781269893048007852
:200A400084FC8084781269894848007884FC8084781259894020006020202020F812598972
:200A60002040006020202020F81259896090006020202020F812598990900060202020208E
:200A8000F8126A8A48305008788484848478126989649800B8C48484848412698940200098
:200AA00078848484847812698910200078848484847812698930480078848484847812690B
:200AC00089649800788484848478126989484800788484848478135787202000F800202094
:200AE00011688804788C94A4C47880126989402000888888888874126989102000888888AD
:200B0000888874126989304800888888888874126989505000888888888874106B8B1020C3
:200B2000008484848C74048478106A8A8080B8C48484C4B88080106B8B4848008484848C77
:200B40007404847800000000240027002A0000000000250028002B000000000023002600EB
:200B600029000404040404040404020202020202030303030303010204081020408001020C
:200B800004081020010204081020000000070002010000030406000000000000000066124B
:200BA000A2178718E12811241FBECFEFD8E0DEBFCDBF12E0A0E0B1E0E2E9FDE502C005901C
:200BC0000D92A233B107D9F715E0A2E3B2E001C01D92A333B107E1F71BE0C6EADBE004C00D
:200BE0002297FE010E94C32ECE39D107C9F70E9437290C94C72E0C940000A0E3B0E0E3E0FE
:200C0000F6E00C948A2EA8E04E010894811C911CF401BA2F1192BA95E9F729833A834B8302
:200C20005C836D837E838F839887CE010996FC011192AA95E9F7A986BA86CB86DC86ED86F1
:200C4000FE860F87188B29813A814B815C812DA73EA74FA758AB79018A018FEF9FEFA0E086
:200C6000B0E0E822F9220A231B231A014424552429853A854B855C8529A73AA74BA75CA794
:200C800059016A01A822B922CA22DB223A0188249924C601B501A80197010E94492E6DA376
:200CA0007EA38FA398A7C401B3010E94492E69A37AA38BA39CA3C601B501A20191010E9426
:200CC000492E7B018C01C401B3010E94492E5B016C0189A19AA1ABA1BCA18E0D9F1DA01F15
:200CE000B11F89A39AA3ABA3BCA32DA13EA14FA158A5CA01AA27BB2729A13AA14BA15CA168
:200D0000280F391F4A1F5B1F29A33AA34BA35CA32E153F054007510740F480E090E0A1E020
:200D2000B0E0A80EB91ECA1EDB1E89A19AA1ABA1BCA19D01442755272A0D3B1D4C1D5D1DB0
:200D40002D8F3E8F4F8F58A36C01BB24AA248DA19EA1AFA1B8A5A070B070A80EB91ECA1E58
:200D6000DB1EA98EBA8ECB8EDC8E9A8C8B8C7C8C9E8D6F8D78A1FE01719688E0DF011D92B6
:200D80008A95E9F72D8B9E8B6F8B788F2D853E854F8558896DA57EA58FA598A90E94492E85
:200DA0007B018C012D813E814F81588569A57AA58BA59CA50E94492EE60EF71E081F191FF1
:200DC0006D897E898F89988D6E0D7F1D801F911F6D8B7E8B8F8B988FEE892A2D392D482D88
:200DE000572D7E2F8F89988DE096E2E10C94A62EEF92FF920F93DF93CF93CDB7DEB7609740
:200E00000FB6F894DEBF0FBECDBFA82F002309F461C07E010894E11CF11C88E0F70111924B
:200E20008A95E9F729833A834B835C836D837E83AF83988780E2801BE82FFF27E7FDF095B8
:200E400049815A816B817C81181684F019861A861B861C86882799278E1B9F0B04C0440F07
:200E6000551F661F771F8A95D2F728C0202F332727FD3095DB01CA01022E04C0880F991F97
:200E8000AA1FBB1F0A94D2F789879A87AB87BC8704C07695679557954795EA95D2F78D81B9
:200EA0009E81AF81B88504C0880F991FAA1FBB1F2A95D2F7482B592B6A2B7B2B4D875E877D
:200EC0006F87788B29853A854B855C856D857E85AF8598898A2F60960FB6F894DEBF0FBE47
:200EE000CDBFCF91DF910F91FF90EF900895AEE5B0E0EDE7F7E00C948A2EA8E04E010894B2
:200F0000811C911CF4016A2E11926A94E9F729833A834B835C836D837E838F839887CE0172
:200F20000996FC011192AA95E9F7A986BA86CB86DC86ED86FE860F87188B29843A844B84C7
:200F40005C84ED84FE840F85188969807A808B809C806DA67EA68FA698AA6D807E808F80D7
:200F60009884E114F1040105110509F0B3C3621473048404950408F03DC100E0201600E0E6
:200F8000300601E0400600E0500688F41FEF211631044104510439F030F048E0E42EF12C8E
:200FA000012D112D18C0EE24FF24870114C020E0221620E0320620E0420621E0520630F02B
:200FC00038E1E32EF12C012D112D05C020E1E22EF12C012D112DD201C1010E2C04C0B69521
:200FE000A795979587950A94D2F78C5F9E4FDC012C9180E290E0A0E0B0E08E199F09A00BB8
:20100000B10B7C018D01E21AF10801091109E114F10401051105A1F10E2C04C0220C331CDD
:20102000441C551C0A94D2F7A40193010E2C04C0220F331F441F551F0A94D2F780E290E0AE
:201040008E199F096DA47EA48FA498A804C096948794779467948A95D2F7622A732A842ACD
:20106000952AADA4BEA4CFA4D8A804C0AA0CBB1CCC1CDD1CEA94D2F7ADA6BEA6CFA6D8AAE4
:201080006201EE24FF24CDAADEAAEFAAF8AE920181012070307009AF1AAF2BAF3CAFC4012A
:2010A000B301A70196010E94682E7B018C01C401B3012DA93EA94FA958AD0E94682EC901C7
:2010C000DA013C014D01C401B30129AD3AAD4BAD5CAD0E94492E9B01AC018701FF24EE2454
:2010E000ADA4BEA4CFA4D8A8C601AA27BB2757016801A82AB92ACA2ADB2AA216B306C40626
:20110000D506E0F408946108710881089108A20CB31CC41CD51CA214B304C404D50470F0C4
:20112000A216B306C406D50648F408946108710881089108A20CB31CC41CD51CA21AB30AF6
:20114000C40AD50AC601B5012DA93EA94FA958AD0E94682E7B018C01C601B5012DA93EA930
:201160004FA958AD0E94682EC901DA015C016D01C601B50129AD3AAD4BAD5CAD0E94492E76
:201180009B01AC018701FF24EE248DA59EA5AFA5B8A9A070B070E82AF92A0A2B1B2BE21647
:2011A000F30604071507C0F40894A108B108C108D108E20CF31C041D151DE214F304040575
:2011C000150550F0E216F3060407150728F40894A108B108C108D108D30199278827860117
:2011E0007501E82AF92A0A2B1B2BE9AAFAAA0BAB1CABCFC4211431044104510471F461E0D8
:2012000070E080E090E020E030E040E050E00E94682EC901DA011C012D0100E0201600E030
:20122000300601E0400600E0500688F41FEF211631044104510431F028F048E050E060E0BA
:2012400070E017C040E050E060E070E012C020E0221620E0320620E0420621E0520628F08C
:2012600048E150E060E070E004C040E150E060E070E0D201C101042E04C0B695A7959795A2
:2012800087950A94D2F78C5F9E4FDC012C91E0E2EE2EF12C012D112DD801C701841B950B12
:2012A000A60BB70B821B9109A109B1090097A105B10561F464015301A218B308C408D50801
:2012C00031E0632E712C812C912C1EC16F968FAF6F97082E04C0220C331C441C551C0A9457
:2012E000D2F7EE2DE81B640153010E2E04C0D694C794B794A7940A94D2F7A40193016F965E
:201300000FAC6F9704C0220F331F441F551F0A94D2F76DA47EA48FA498A80E2E04C09694B7
:201320008794779467940A94D2F784017301E22AF32A042B152BE9A6FAA60BA71CA73201BD
:2013400088249924920181012070307021960CAF1DAF2EAF3FAF2197C601B501A401930168
:201360000E94682E7B018C01C601B501A40193010E94682EC901DA0125968CAF9DAFAEAFFA
:20138000BFAF2597BC01CD0121962CAD3DAD4EAD5FAD21970E94492E9B01AC018701FF2452
:2013A000EE24A9A4BAA4CBA4DCA4C601AA27BB275C016D01AE28BF28C02AD12AA216B30629
:2013C000C406D50660F525966CAD7DAD8EAD9FAD2597615070408040904025966CAF7DAFDF
:2013E0008EAF9FAF2597A20CB31CC41CD51CA214B304C404D50498F0A216B306C406D506AC
:2014000070F4615070408040904025966CAF7DAF8EAF9FAF2597A20CB31CC41CD51CA21A24
:20142000B30AC40AD50AC601B501A40193010E94682E7B018C01C601B501A40193010E94F3
:20144000682EC901DA013C014D01C401B30121962CAD3DAD4EAD5FAD21970E94492E9B015F
:20146000AC018701FF24EE2489A59AA5ABA5BCA5A070B07057016801A82AB92ACA2ADB2A45
:20148000A216B306C406D506E0F408946108710881089108A20CB31CC41CD51CA214B30407
:2014A000C404D50470F0A216B306C406D50648F408946108710881089108A20CB31CC41CDC
:2014C000D51C8DA59EA5AFA5B8A96F960FAC6F9704C0880F991FAA1FBB1F0A94D2F78DA7DA
:2014E0009EA7AFA7B8ABA21AB30AC40AD50A2596ECACFDAC0EAD1FAD2597D7019927882742
:20150000682A792A8A2A9B2A82012227332729960CAF1DAF2EAF3FAF2997A2019101407041
:2015200050702D962CAF3DAF4EAF5FAF2D97C601B50129962CAD3DAD4EAD5FAD29970E942A
:20154000682E7B018C01C601B50129962CAD3DAD4EAD5FAD29970E94682EC901DA01619652
:201560008CAF9DAFAEAFBFAF6197BC01CD012D962CAD3DAD4EAD5FAD2D970E94492E9B0190
:20158000AC018701FF24EE24ADA4BEA4CFA4D8A8C601AA27BB2757016801A82AB92ACA2A57
:2015A000DB2AA216B306C406D50660F561966CAD7DAD8EAD9FAD6197615070408040904011
:2015C00061966CAF7DAF8EAF9FAF6197A20CB31CC41CD51CA214B304C404D50498F0A216AE
:2015E000B306C406D50670F4615070408040904061966CAF7DAF8EAF9FAF6197A20CB31CFA
:20160000C41CD51CA21AB30AC40AD50AC601B50129962CAD3DAD4EAD5FAD29970E94682ED5
:201620007B018C01C601B50129962CAD3DAD4EAD5FAD29970E94682EC901DA015C016D0133
:20164000C601B5012D962CAD3DAD4EAD5FAD2D970E94492E9B01AC018701FF24EE248DA56B
:201660009EA5AFA5B8A9A070B070E82AF92A0A2B1B2BE216F30604071507C0F40894A10881
:20168000B108C108D108E20CF31C041D151DE214F3040405150550F0E216F3060407150737
:2016A00028F40894A108B108C108D1086196ECACFDAC0EAD1FAD6197D701992788279601D9
:2016C0008501082B192B2A2B3B2B09AB1AAB2BAB3CAB62C26E147F048006910608F451C2C7
:2016E00020E0E21620E0F20621E0020720E0120788F43FEFE316F1040105110531F028F0EA
:2017000048E050E060E070E017C040E050E060E070E012C040E0E41640E0F40640E00407F9
:2017200041E0140728F048E150E060E070E004C040E150E060E070E0D801C701042E04C030
:20174000B695A795979587950A94D2F78C5F9E4FDC012C9130E2A32EB12CC12CD12CD60160
:20176000C501841B950BA60BB70B821B9109A109B1090097A105B10589F4E614F7040805E4
:20178000190508F4F2C16DA47EA48FA498A8621473048404950408F0E8C1F3C16E968FAF31
:2017A0006E97082E04C0EE0CFF1C001F111F0A94D2F76A2D681BD201C101062E04C0B6956D
:2017C000A795979587950A94D2F75C016D01AE28BF28C02AD12AADA2BEA2CFA2D8A67201A0
:2017E00061016E960FAC6E9704C0CC0CDD1CEE1CFF1C0A94D2F7C9A2DAA2EBA2FCA264012B
:201800005301062E04C0D694C794B794A7940A94D2F7D401C3016E960FAC6E9704C0880F12
:20182000991FAA1FBB1F0A94D2F7EDA4FEA40FA518A904C016950795F794E7946A95D2F765
:2018400037014801682A792A8A2A9B2A6D8E7E8E8F8E98A2EDA0FEA00FA118A5380188247E
:201860009924980187012070307065960CAF1DAF2EAF3FAF6597C601B501A40193010E94B9
:20188000682E7B018C01C601B501A40193010E94682EC901DA011C012D01C201B10165965B
:2018A0002CAD3DAD4EAD5FAD65970E94492E9B01AC018701FF24EE24AD8CBE8CCF8CD8A0ED
:2018C000C601AA27BB2757016801A82AB92ACA2ADB2AA216B306C406D50600F5089421084F
:2018E000310841085108EDA0FEA00FA118A5AE0CBF1CC01ED11EAE14BF04C006D10670F091
:20190000A216B306C406D50648F408942108310841085108AE0CBF1CC01ED11EA21AB30AFA
:20192000C40AD50AC601B501A40193010E94682E7B018C01C601B501A40193010E94682E15
:20194000C901DA013C014D01C401B30165962CAD3DAD4EAD5FAD65970E94492E9B01AC01BB
:201960008701FF24EE248D8D9E8DAF8DB8A1A070B07057016801A82AB92ACA2ADB2AA21679
:20198000B306C406D50600F5089461087108810891086DA17EA18FA198A5A60EB71EC81E4B
:2019A000D91EA616B706C806D90670F0A216B306C406D50648F408946108710881089108B8
:2019C000A60EB71EC81ED91ED601C501821B930BA40BB50B898F9A8FAB8FBC8FD101992702
:2019E000882764015301A82AB92ACA2ADB2AA9AABAAACBAADCAA860175012FEF3FEF40E0B6
:201A000050E0E222F32204231523A601662777276D964CAF5DAF6EAF7FAF6D97A9A0BAA050
:201A2000CBA0DCA06FEF7FEF80E090E0A622B722C822D92289A19AA1ABA1BCA11D01442409
:201A40005524C801B701A60195010E94492E69966CAF7DAF8EAF9FAF6997C801B701A20141
:201A600091010E94492E3B014C016D966CAD7DAD8EAD9FAD6D97A60195010E94492E7B018F
:201A80008C016D966CAD7DAD8EAD9FAD6D97A20191010E94492E5B016C01A8019701260D5D
:201AA000371D481D591D69966CAC7DAC8EAC9FAC6997C401AA27BB27280F391F4A1F5B1F48
:201AC0002E153F054007510748F4E12CF12C61E0062F112DAE0CBF1CC01ED11ECA01AA27C8
:201AE000BB27BC01CD016A0D7B1D8C1D9D1D698C7A8C8B8C9C8C661677068806990640F176
:201B0000661577058805990509F043C0D9019927882769962CAD3DAD4EAD5FAD69974070E5
:201B20005070820F931FA41FB51F2DA53EA54FA558A96E960FAC6E9704C0220F331F441FF3
:201B4000551F0A94D2F7281739074A075B0708F509A91AA92BA93CA90150104020403040DC
:201B600009AB1AAB2BAB3CAB14C066247724430121E030E040E050E029AB3AAB4BAB5CABDB
:201B80000BC066247724430119AA1AAA1BAA1CAA03C0662477244301FE01719688E0DF0185
:201BA0001D928A95E9F7A9A8BAA8CBA8DCA8A98ABA8ACB8ADC8A6D8A7E8A8F8A988E29A98B
:201BC0003A894B895C89662D7E898F89988DC25ADF4FE2E10C94A62EAEE0B0E0E2EFFDE065
:201BE0000C94982E0D891E898F89988D97FF02C080E090E801979E838D831A8309838EE075
:201C00008C839E01255E3F4FCE010196698D7A8DA9010E94470E4D815E8157FD0AC02F8186
:201C20003885421753070CF49A01020F131FF80110822E96E4E00C94B42EAEE0B0E0E3E2DE
:201C4000FEE00C94982E8C0177FF02C060E070E8615070407E836D831A8309838EE08C83EB
:201C6000CE010196BA01A9010E94470E2D813E8137FD09C0EF81F8852E173F070CF4F901C6
:201C8000E00FF11F10822E96E4E00C94B42EABE0B0E0EDE4FEE00C948A2E3C012B015A01C3
:201CA000FC0117821682838181FD03C06FEF7FEFC6C19AE0892E1E010894211C311CF301F4
:201CC0002381F20123FD859123FF81912F01882309F4B2C1853239F423FD859123FF81916A
:201CE0002F01853229F490E0B3010E943A10E7CF982FFF24EE249924FFE1FF15D0F09B32E0
:201D000069F09C3228F4903259F0933291F40EC09D3249F0903369F441E024C052E0F52ADF
:201D200084E0F82A28C098E0F92A25C0E0E1FE2A22C0F7FC29C0892F80538A3070F4F6FE71
:201D400005C0989C902C1124980E15C0E89CE02C1124E80EF0E2FF2A0EC09E3229F4F6FCBB
:201D60006BC140E4F42A07C09C3619F450E8F52A02C0983649F4F20123FD959123FF9191AE
:201D80002F01992309F0B8CF892F8554833018F08052833038F444E050E0A40EB51E5FE3BF
:201DA00059830FC0933631F0933779F0933509F056C020C0F5018081898342E050E0A40E9D
:201DC000B51E610101E010E012C0F501C080D180F6FC03C06FEF7FEF02C0692D70E042E059
:201DE00050E0A40EB51EC6010E942F108C015FE7F52214C0F501C080D180F6FC03C06FEF2E
:201E00007FEF02C0692D70E042E050E0A40EB51EC6010E9424108C0150E8F52AF3FE07C09C
:201E20001AC080E290E0B3010E943A10EA948E2D90E008171907A8F30EC0F601F7FC859105
:201E4000F7FE81916F0190E0B3010E943A10E110EA94015010400115110579F7EAC09436DB
:201E600011F0993669F5F7FE08C0F501208131814281538184E090E00AC0F50180819181F0
:201E80009C01442737FD4095542F82E090E0A80EB91E9FE6F92257FF09C050954095309511
:201EA00021953F4F4F4F5F4FE0E8FE2ACA01B901A1012AE030E00E946610D82ED21840C059
:201EC000953729F41F2D1F7E2AE030E01DC01F2D197F9F3661F0903720F4983509F0ACC022
:201EE0000FC0903739F0983709F0A6C004C028E030E00AC0106114FD146020E130E004C084
:201F000014FD166020E132E017FF08C0F501608171818281938144E050E008C0F501808156
:201F20009181BC0180E090E042E050E0A40EB51EA1010E946610D82ED2188FE7F82EF122D2
:201F4000F6FE0BC05EEFF522D91438F4F4FE07C0F2FC05C08FEEF82202C01D2D01C0192D2F
:201F6000F4FE0DC0FE01ED0DF11D8081803319F499EEF92208C01F5FF2FE05C003C08F2DBE
:201F8000867809F01F5F0F2DF3FC14C0F0FE0FC01E1510F09D2C0BC09D2C9E0C911A1E2DE0
:201FA00006C080E290E0B3010E943A101F5F1E15C0F304C01E1510F4E11A01C0EE2404FFB9
:201FC0000FC080E390E0B3010E943A1002FF1DC001FD03C088E790E00EC088E590E00BC0CB
:201FE000802F867891F001FF02C08BE201C080E2F7FC8DE290E0B3010E943A1006C080E3C6
:2020000090E0B3010E943A109A94D914C0F3DA94F101ED0DF11D808190E0B3010E943A1069
:20202000DD20A9F706C080E290E0B3010E943A10EA94EE20C1F743CEF30166817781CB01D7
:202040002B96E2E10C94A62EFC010590615070400110D8F7809590958E0F9F1F0895FC0186
:202060006150704001900110D8F7809590958E0F9F1F08950F931F93CF93DF938C01EB01BB
:202080008B8181FF1BC082FF0DC02E813F818C819D812817390764F4E881F9810193F98327
:2020A000E88306C0E885F985802F0995892B31F48E819F8101969F838E8302C00FEF1FEF17
:2020C000C801DF91CF911F910F910895FA01AA27283051F1203181F1E8946F936E7F6E5F19
:2020E0007F4F8F4F9F4FAF4FB1E03ED0B4E03CD0670F781F891F9A1FA11D680F791F8A1F25
:20210000911DA11D6A0F711D811D911DA11D20D009F468943F912AE0269F11243019305DAF
:202120003193DEF6CF010895462F4770405D4193B3E00FD0C9F7F6CF462F4F70405D4A33B8
:2021400018F0495D31FD4052419302D0A9F7EACFB4E0A6959795879577956795BA95C9F7E4
:2021600000976105710508959B01AC010A2E06945795479537952795BA95C9F7620F731FD2
:20218000841F951FA01D08952F923F924F925F926F927F928F929F92AF92BF92CF92DF9262
:2021A000EF92FF920F931F93DF93CF9300D000D0CDB7DEB79A8389837C836B83FC01A480F5
:2021C000B580C680D7809501A60160E070E080E090E0B0E8AB2EA8E8BA2EF2E0CF2EDD24D7
:2021E000EE24FF2400E010E00E94FD05292E922E832E742E652E562E472E382E292D382D1F
:20220000472D562D652D742D832DE0E4AE2EB2E4BB2EAFE0CA2E0E947707C901BA01EB812D
:20222000FC812083918342837383292D382D472D562D652D742D832D922D04E00E94F806D7
:20224000122FF32EE42ED52EA62E772E682E592E0E94F806A32FB42F052FC62EB72E882E59
:20226000922E911AF1E0291508F0F0E03A2F3F19E1E0A31708F0E0E0F32EFF1A21E03F1599
:2022800008F020E0E22B4B2F4E1931E0B41708F030E0E42EEE1A21E04E1508F020E0322BA1
:2022A000502F5D1941E0051708F040E0D52ED31A21E05D1508F020E0422B6C2D6A1931E0DF
:2022C000C61608F030E0C62EC41A21E06C1508F020E0322B7B2D771941E0B71608F040E033
:2022E000B72EB31A21E07B1508F020E0422B882D861921E0881608F020E0A82EA41A31E0A6
:202300008A1508F030E0232B192F1519121B292D3F2D4E2D5D2D6C2D7B2D8A2D912F04E0C2
:202320000E94F806A32FB42F052F862E772E682E522E5918F1E0251508F0F0E03A2F3F19A0
:20234000E1E0A31708F0E0E0932E9F1A21E0391508F020E0E22B4B2F4E19F1E0B41708F007
:20236000F0E0F42EFE1A21E04F1508F020E0F22B502F5D19E1E0051708F0E0E0052F0F1BF1
:2023800021E0501708F020E0E22B682D6C19F1E0861608F0F0E0B62FBE1B21E06B1708F048
:2023A00020E0F22B772D7B19E1E0771608F0E0E0A72FAF1B21E07A1708F020E0E22B862DD8
:2023C0008A19F1E0681608F0F0E0282F2E1BE22F21E08E1708F020E0F22B911B252D392D73
:2023E0004F2D502F6B2F7A2F8E2F9F1BF8EEAF2EE3E0BE2ECC24DD24EE24FF2400E010E0C0
:202400000E947707E981FA812080318042805380510162010E947707C901BA01EB81FC818E
:2024200024839583468377830F900F900F900F90CF91DF911F910F91FF90EF90DF90CF90A2
:20244000BF90AF909F908F907F906F905F904F903F902F900895CF92DF92EF92FF920F9313
:202460001F936C017A018B01CB01BA0120E432E44FE050E00E94682EF6013183208340E090
:2024800050E0CA01B90120EC3DEB40EF5FEF0E94492E6E0D7F1D801F911FF6016283738385
:2024A000848395836C507E4F8F4F9F4F28EE33E040E050E00E94682EF601378326831F91ED
:2024C0000F91FF90EF90DF90CF9008958BE290E0909333028093320289E290E09093350232
:2024E0008093340280E180933602549AF8945C9878940E94DD2660938402709385028093B2
:20250000860290938702089584E0809388020E94DD26609384027093850280938602909383
:20252000870282E06CED75E00E94411D08950E94A31F882331F083E080938802109237025A
:20254000089500D087ED90E0EDB7FEB7928381830E9467170F900F900E94841208952F92C4
:202560003F924F925F926F927F928F929F92AF92BF92CF92DF92EF92FF920F931F93DF9318
:20258000CF93CDB7DEB7C055D0400FB6F894DEBF0FBECDBFF894E0913202F091330280816C
:2025A00090913602892B80837894F894E0913202F0913302908180913602809589238083FA
:2025C000789480918902882341F50E949517982F813051F480918A028F5F80938A02843089
:2025E000E0F090938A0219C08230B9F400D081EA91E0ADB7BEB712969C938E9311970E945D
:20260000671783E080938802109237020F900F906EEE72E00E94411DC7C3809137028823F6
:2026200009F0A6C08CE392E00E941D20882321F400D08CE791E025C281E0809337020E94D1
:20264000DD26609338027093390280933A0290933B0210923E0210923F0210924002109212
:20266000410210924202109243021092440210924502109246021092470210924802109216
:20268000490210924A0210924B0210924C0210924D0210924E0210924F02109250021092B6
:2026A000510210925202109253021092540210925502109256021092570210925802109256
:2026C000590210925A0210925B0210925C0210925D0210925E0210925F02109260021092F6
:2026E000610210926202109263021092640210926502109266021092670210926802109296
:20270000690210926A0210926B0210926C0210926D0210926E0210926F0210927002109235
:202720007102109272021092730210927402109275021092760210927702109278021092D5
:20274000790210927A0210927B0210927C0210927D0210927E0210927F0210928002109275
:20276000810210928202109283020E946D181CC30E94DD26209138023091390240913A02EA
:2027800050913B02621B730B840B950B64367105810591050CF408C32C593F4F4F4F5F4F9B
:2027A000209338023093390240933A0250933B02CE0101960E941D20882351F400D087E58E
:2027C00091E0ADB7BEB712969C938E9311975DC129813A8180913C0290913D02A901481BD0
:2027E000590B30933D0220933C02E0E04A30510538F0E1E0F0E080914602882321F402C05E
:20280000F0E001C0F1E084E690E0A0E0B0E080933E0290933F02A0934002B09341026A014F
:20282000EE24FF24C0924202D0924302E0924402F0924502E0934602409060025090610275
:202840006090620270906302480E591E6A1E7B1E409260025092610260926202709263029B
:202860008090640290906502A0906602B09067028C0C9D1CAE1CBF1C809264029092650223
:20288000A0926602B092670200914F021091500220915102309152020C591F4F2F4F3F4F26
:2028A00000934F021093500220935102309352024091530250915402609155027091560224
:2028C0004C0D5D1D6E1D7F1D40935302509354026093550270935602809157028F5F80938D
:2028E00057028A3090F100934702109348022093490230934A0240934B0250934C0260932A
:202900004D0270934E0210924F0210925002109251021092520210925302109254021092B2
:2029200055021092560210925702409258025092590260925A0270925B0280925C029092A3
:202940005D02A0925E02B0925F02EE2309F452C08091700290917102A0917202B091730251
:202960008C599F4FAF4FBF4F8093700290937102A0937202B09373028091740290917502DF
:20298000A0917602B0917702C80ED91EEA1EFB1EC0927402D0927502E0927602F092770260
:2029A00080917C0290917D02A0917E02B0917F020196A11DB11D80937C0290937D02A093EC
:2029C0007E02B0937F02FF2309F44FC08091800290918102A0918202B09183020196A11D7E
:2029E000B11D8093800290938102A0938202B09383023BC08091680290916902A0916A02B0
:202A0000B0916B028C599F4FAF4FBF4F8093680290936902A0936A02B0936B0280916C0250
:202A200090916D02A0916E02B0916F02C80ED91EEA1EFB1EC0926C02D0926D02E0926E0252
:202A4000F0926F028091780290917902A0917A02B0917B020196A11DB11D8093780290931E
:202A60007902A0937A02B0937B02CE010396BE016B5F7F4F0E94F71F882371F400D085E3AD
:202A800091E0EDB7FEB7928381830E9467170F900F900E94841288C10D811E81B80180E02E
:202AA00090E028EE33E040E050E00E94682E38872F8340E050E0CA01B90128E13CEF4FEF3D
:202AC0005FEF0E94492E060F171F1A8709878EE392E0BE01655F7F4F0E94C41093E1A92E1E
:202AE000B12CAC0EBD1E4F85588969897A89C5010E942B126F85788989899A8928EE33E0C2
:202B000040E050E00E94682E79018A0187E492E0BE01655E7F4F0E94C41088E592E0BE01E7
:202B20006D5D7F4F0E94C41080E692E0BE01655D7F4F0E94C4104BA55CA56DA57EA5CE01F5
:202B4000C3960E942B124FA558A969A97AA9CE01CB960E942B128091600290916102A091DC
:202B60006202B091630261968CAF9DAFAEAFBFAF6197BC01CD0128EE33E040E050E00E9464
:202B8000682E19012A012D963FAF2EAF2D9783E4C82ED12CCC0EDD1E80E792E0B6010E94A7
:202BA000C410C7010E94FF1E80918902882361F009811A810E949A17282FCE010796B50131
:202BC000A8010E945F1D55C080918A02813059F46F8D78A189A19AA12FA138A549A55AA56A
:202BE0000E94B11E46C08230E9F4AF8CB8A0C9A0DAA06FA078A489A49AA46BA57CA58DA560
:202C00009EA528EE33E040E050E00E94682E79018A01C601B501A4019301870171010E9469
:202C2000D51D27C0833001F5E0908002F09081020091820210918302D6016D917D918D91E1
:202C40009C9128EE33E040E050E00E94682E59016A01CE01079660914602A8019701850165
:202C600071010E948F1D05C084E064E670E00E94411DEDB7FEB772970FB6F894FEBF0FBE94
:202C8000EDBF0DB71EB70F5F1F4F85E191E0928381832D96EEADFFAD2D97D8011396FC9344
:202CA000EE931297BF0180E090E028E13CEF4FEF5FEF0E94492E2F962EAD3FAD2F97620FBE
:202CC000731FD80115967C936E9314978B899C8917969C938E931697898D9A8D19969C9325
:202CE0008E9318978BA99CA91B969C938E931A9789AD9AAD1D969C938E931C978BAD9CAD25
:202D00001F969C938E931E97FE01EF5BFF4F8081918151969C938E9350970E9467170F9072
:202D20000F90EDB7FEB7319684E091E0ADB7BEB712969C938E93119780916802909169027F
:202D4000A0916A02B0916B0282839383A483B5838091700290917102A0917202B09173023C
:202D600086839783A087B1878091800290918102A0918202B091830282879387A487B58795
:202D800020E030E080914602882311F021E030E0378726870E946717EDB7FEB770960FB65E
:202DA000F894FEBF0FBEEDBFC05BDF4F0FB6F894DEBF0FBECDBFCF91DF911F910F91FF9012
:202DC000EF90DF90CF90BF90AF909F908F907F906F905F904F903F902F9008950E94E71723
:202DE00020918802233039F0243041F02130E9F40E94971208950E94AF1208950E94DD26DC
:202E000020918402309185024091860250918702621B730B840B950B685E7340804090403D
:202E2000D8F081E080938802089500D000D0EDB7FEB7319682EC90E0ADB7BEB712969C93E1
:202E40008E931197228313820E9467170F900F900F900F900E94841208951F9381E195E075
:202E600040E052EC61E070E00E94B02700D083EA91E0EDB7FEB7928381830E9467170F900B
:202E80000F900E94D81702C00E94E7170E949F178823D1F30E949A17809389020E94E51E43
:202EA00011E010938A020E94222010938802789480918902882321F085E060ED77E003C0B1
:202EC00081E064EC79E00E94411D1F910895EF92FF921F93DF93CF93CDB7DEB7FE0138961D
:202EE000419151918BE892E060E570E09F010E941D0E8BE8E82E82E0F82EF70111917F010C
:202F0000112369F01A3029F481E195E06DE00E94702981E195E0612F0E947029EECFCF919F
:202F2000DF911F91FF90EF9008958091EC021092EC0208958091EB02811181E008958091FB
:202F4000E60208950E94DD266093DB027093DC028093DD029093DE0282E390E09093E002C7
:202F60008093DF020E94DD266093E2027093E3028093E4029093E5021092E1020E94DD26CC
:202F80006093E2027093E3028093E4029093E5021092E6021092E70289E290E09093E90271
:202FA0008093E80284E08093EA0252985A9A08951092EB020E94DD266093DB027093DC0251
:202FC0008093DD029093DE021092EC0208950F931F93E091E802F091E902808120E0909192
:202FE000EA02892309F421E08091E102281769F02093E1020E94DD266093E2027093E302B5
:203000008093E4029093E50220C00E94DD262091E2023091E3024091E4025091E502621BF1
:20302000730B840B950B2091DF023091E00240E050E0261737074807590738F481E0809394
:20304000E6028091E1028093E7020091E7021091EB02113049F0113018F0123079F52CC031
:203060000023C1F181E01BC00E94DD269B01AC018091DB029091DC02A091DD02B091DE0233
:20308000281B390B4A0B5B0B243C89E0380780E0480780E0580730F082E08093EC028093E2
:2030A000EB020EC00023B1F4255F31404040504028F41093EC0202C0002361F41092EB0212
:2030C0000E94DD266093DB027093DC028093DD029093DE021F910F91089510923E03109233
:2030E0007F030895FF920F931F938C01262FFC01F3AC04966F2D44AD0E949A22F80EF801CA
:20310000F3AE81E090E01F910F91FF900895EF92FF920F931092F0021092EF028FEEE82E53
:2031200082E0F82E8EE192E0F701929382937F01CF016CE072E04FEF27E006E00E94782998
:2031400086E192E0F701918380830E94DD2660932B0370932C0380932D0390932E030F9158
:20316000FF90EF90089580912F038823F1F00E94DD2620912B0330912C0340912D0350917F
:203180002E03621B730B840B950B209130033091310340E050E0621773078407950710F48D
:2031A00081E0089510922F0380E00895CF93DF93EC018DAD882331F481E08DAFCE0104966F
:2031C0000E942224CE0104960E943224DF91CF910895EF920F931F93DF93CF93CDB7DEB777
:2031E0002C970FB6F894DEBF0FBECDBF81EF92E06CED72E00E94CB2181EF92E060E040E068
:2032000020E800E435E0E32E0E941F2680912F03813079F481EF92E066E149E128E032E0E7
:203220000E94492281EF92E06BE14EE22EEF31E03BC0833079F481EF92E065E14AE123EF75
:2032400031E00E94492281EF92E065E14DE227EE31E02AC0823079F481EF92E06BE04AE172
:2032600029ED31E00E94492281EF92E06BE04DE22DEC31E019C0843079F481EF92E06BE06D
:203280004AE127EC31E00E94492281EF92E06BE04DE22DEB31E008C0853049F481EF92E0B1
:2032A0006BE145E223EB31E00E94492239C081EF92E06FE041E229EA31E00E9449228DB7AD
:2032C0009EB708970FB6F8949EBF0FBE8DBFEDB7FEB731968E010F5F1F4FADB7BEB7129627
:2032E0001C930E9311978CE090E09383828385EA91E09583848380912F03868317820E9459
:20330000EC0D8DB79EB708960FB6F8949EBF0FBE8DBF81EF92E061E441E298010E9472229D
:203320002C960FB6F894DEBF0FBECDBFCF91DF911F910F91EF900895CF92DF92EF92FF9264
:203340000F931F93CF93DF93182FEB017A01690181EF92E06CED72E00E94CB211123D1F518
:2033600081EF92E060E04AE02EE232E00E9449228DB79EB70A970FB6F8949EBF0FBE8DBFD1
:20338000EDB7FEB7319602E313E0ADB7BEB712961C930E9311978CE090E09383828386E25D
:2033A00092E09583848388819981978386838A819B81918780870E94EC0D8DB79EB70A961C
:2033C0000FB6F8949EBF0FBE8DBF81EF92E069E34AE071C01130E1F581EF92E060E04BE138
:2033E00024E232E00E944922ADB7BEB71A970FB6F894BEBF0FBEADBFEDB7FEB7319602E312
:2034000013E012961C930E9311978CE090E0938382838CE192E095838483D7018D919C9101
:2034200011979783868316968D919C911797918780870E94EC0D8DB79EB70A960FB6F894D8
:203440009EBF0FBE8DBF81EF92E069E34BE133C0123099F581EF92E060E04CE22AE132E06C
:203460000E944922ADB7BEB718970FB6F894BEBF0FBEADBFEDB7FEB7319602E313E0129610
:203480001C930E9311978CE090E09383828385E192E095838483D782C6820E94EC0D8DB7C6
:2034A0009EB708960FB6F8949EBF0FBE8DBF81EF92E069E34CE2980115C01330A9F481EF38
:2034C00092E060E04DE323E132E00E944922002319F420E031E002C022E031E081EF92E0EF
:2034E00069E34DE30E947222DF91CF911F910F91FF90EF90DF90CF9008956F927F928F924E
:203500009F92AF92BF92CF92DF92EF92FF920F931F93CF93DF93B82EEB01A42E38014901B5
:2035200081EF92E06CED72E00E94CB21BB2009F043C081EF92E060E04AE02FE532E00E9485
:2035400049228DB79EB70A970FB6F8949EBF0FBE8DBFEDB7FEB7319602E313E0ADB7BEB72E
:2035600012961C930E9311978CE090E09383828387E592E095838483888199819783868371
:203580008A819B81918780870E94EC0D8DB79EB70A960FB6F8949EBF0FBE8DBF81EF92E068
:2035A00069E34AE098010E94722281EF92E067E64AE025E532E0BFC091E0B91609F040C099
:2035C00081EF92E060E04BE12FE432E00E944922ADB7BEB71A970FB6F894BEBF0FBEADBFDA
:2035E000EDB7FEB7319602E313E012961C930E9311978CE090E0938382838AE492E0958344
:20360000848366827782808691860E94EC0D8DB79EB70A960FB6F8949EBF0FBE8DBF81EF9A
:2036200092E069E34BE198010E947222AA2009F484C081EF92E067E64BE128E432E07BC012
:2036400092E0B916D9F581EF92E060E04CE222E432E00E944922ADB7BEB718970FB6F8940D
:20366000BEBF0FBEADBFEDB7FEB7319602E313E012961C930E9311978CE090E09383828305
:203680008EE392E095838483F782E6820E94EC0D8DB79EB708960FB6F8949EBF0FBE8DBFAE
:2036A00081EF92E061E44CE298010E94722281EF92E067E64CE22AE332E03DC093E0B9162B
:2036C000E1F581EF92E060E04DE328E332E00E944922ADB7BEB718970FB6F894BEBF0FBE75
:2036E000ADBFEDB7FEB7319602E313E012961C930E9311978CE090E09383828384E392E0F6
:2037000095838483D782C6820E94EC0D8DB79EB708960FB6F8949EBF0FBE8DBF81EF92E06E
:2037200061E34DE398010E94722281EF92E065E64DE320E332E00E944922DF91CF911F9147
:203740000F91FF90EF90DF90CF90BF90AF909F908F907F906F9008952F923F924F925F9202
:203760006F927F928F929F92AF92BF92CF92DF92EF92FF920F931F93382E262ECA01B901DC
:20378000980140E050E00E94682E79018A01C801B7012AE030E040E050E00E94682E490196
:2037A0008DB79EB708970FB6F8949EBF0FBE8DBFEDB7FEB7319652E3452E53E0552EADB728
:2037C000BEB712965C924E9211970CE010E01383028389E892E095838483378326830E9458
:2037E000EC0DEDB7FEB738960FB6F894FEBF0FBEEDBF41EF642E42E0742EC301632D422DD9
:2038000092010E947222FFE13F0EC301632D422D27E832E00E9449228DB79EB708970FB6C4
:20382000F8949EBF0FBE8DBFCDB6DEB60894C11CD11CADB7BEB712965C924E921197F6011B
:203840001383028382E892E095838483AA24BB24C501B40126EF3FEF4FEF5FEF0E94492E42
:203860006E0D7F1DD60117967C936E9316970E94EC0DEDB7FEB738960FB6F894FEBF0FBE53
:20388000EDBFF6E03F0EC301632D422D92010E9472221F910F91FF90EF90DF90CF90BF9052
:2038A000AF909F908F907F906F905F904F903F902F9008952F923F924F925F926F927F92FE
:2038C0008F929F92BF92CF92DF92EF92FF920F931F93B82E3A014B011801290181EF92E07B
:2038E0006CED72E00E94CB21BB20B9F481EF92E060E04AE020E832E00E94492284E36AE0E3
:20390000A401930104E610E00E94AC1B81EF92E067E64AE02DE732E095C081E0B816B9F47B
:2039200081EF92E060E04BE128E732E00E94492284E36BE1A201910104E610E00E94AC1BE0
:2039400081EF92E067E64BE125E732E07BC092E0B916D9F581EF92E060E04CE223E732E038
:203960000E944922ADB7BEB718970FB6F894BEBF0FBEADBFEDB7FEB7319602E313E012960B
:203980001C930E9311978CE090E0938382838FE692E095838483F782E6820E94EC0D8DB772
:2039A0009EB708960FB6F8949EBF0FBE8DBF81EF92E061E44CE298010E94722281EF92E047
:2039C00067E64CE22BE632E03DC093E0B916E1F581EF92E060E04DE329E632E00E944922B4
:2039E000ADB7BEB718970FB6F894BEBF0FBEADBFEDB7FEB7319602E313E012961C930E9348
:203A000011978CE090E09383828385E692E095838483D782C6820E94EC0D8DB79EB7089698
:203A20000FB6F8949EBF0FBE8DBF81EF92E061E34DE398010E94722281EF92E065E64DE33D
:203A400021E632E00E9449221F910F91FF90EF90DF90CF90BF909F908F907F906F905F907A
:203A60004F903F902F9008958DEE92E00E94D6180E94E91881EF92E00E9438248823C1F7D9
:203A800008950F931F93182F00912F0380932F0370933103609330030E94DD2660932B03C3
:203AA00070932C0380932D0390932E03112321F0101711F00E94341D1F910F910895BF929F
:203AC000CF92DF92EF92FF920F931F93CF93DF936C017B01EA01B22E0E94B3188823A9F471
:203AE0008DEE92E00E94D61880E0182F1F5FB601A7019E010B2D0E949C1981EF92E00E9413
:203B00003824882311F0812FF0CFDF91CF911F910F91FF90EF90DF90CF90BF9008952F9285
:203B20003F924F925F926F927F928F929F92AF92BF92CF92DF92EF92FF920F931F93CF9352
:203B4000DF932C01262E49015A013801E7010E94B3188823B9F48DEE92E00E94D61880E00A
:203B6000382E3394B201422D9501840173016E010E947D1A81EF92E00E943824882311F033
:203B8000832DEECFDF91CF911F910F91FF90EF90DF90CF90BF90AF909F908F907F906F90D2
:203BA0005F904F903F902F9008952F923F924F925F926F927F928F929F92AF92BF92CF9251
:203BC000DF92EF92FF920F931F93DF93CF9300D00F92CDB7DEB72B013C0149015A01180189
:203BE000FB82EA820E94B3188823C9F48DEE92E00E94D61880E0982F9F5F9983B301A201F2
:203C0000950184017101CA80DB800E945A1C81EF92E00E943824882311F08981ECCF0F906A
:203C20000F900F90CF91DF911F910F91FF90EF90DF90CF90BF90AF909F908F907F906F9060
:203C40005F904F903F902F9008957F928F929F92AF92BF92CF92DF92EF92FF920F931F933E
:203C6000782E6A017B01480159018823B9F481EF92E060E04AE028E932E00E9449228EE3CF
:203C80006AE0A701960104E610E00E94AC1B81EF92E061E74AE025E932E019C081E078161C
:203CA000C9F481EF92E060E049E120E932E00E9449228EE369E1A501940104E610E00E9461
:203CC000AC1B81EF92E061E749E12DE832E00E9449223BC081E08715C0F5E0903E03EE2D1C
:203CE000F0E0E15CFC4F408160E0DD24D39415C0E3948FE38E1508F4EE24EE2DF0E0E15C6C
:203D0000FC4FF080162F1E5F81EF92E0212F0F2D0E94B622D394612F4F2D80917F03D8164A
:203D200038F3262F2F5F81EF92E0622F4FE300E20E94B62283E0781641F481EF92E060E02C
:203D40004FE32FE70FE30E94B6221F910F91FF90EF90DF90CF90BF90AF909F908F907F9098
:203D600008957F928F929F92AF92BF92CF92DF92EF92FF920F931F934B015C0169017A01EB
:203D80000E94B3188823A9F48DEE92E00E94D61880E0782E7394B501A401970186010E94C8
:203DA000251E81EF92E00E943824882311F0872DF0CF1F910F91FF90EF90DF90CF90BF9046
:203DC000AF909F908F907F90089510922F0310923103109230030E94DD2660932B03709362
:203DE0002C0380932D0390932E0310923E0310927F0381EF92E061E00E946224089527E007
:203E0000813D920710F080ED97E04E96BC0180E090E00E94DE2C0E94712D20E030E040EECC
:203E200050E40E94B12D20E030E048EB51E40E94482C20E030E040E05FE30E94492C0E9415
:203E4000AD2C2FE3261B90917F0380913E03903469F4E82FF0E0E15CFC4F20838F5F80930D
:203E60003E03803478F010923E030895890F803408F08054E82FF0E0E15CFC4F20839F5F3D
:203E800090937F0308951092B9008CE08093B8000895982F84EA8093BC008091BC0087FF5A
:203EA000FCCF8091B900887F883021F0803111F080E008959093BB0084E88093BC008091C4
:203EC000BC0087FFFCCF9091B900987F983111F481E0089580E0903409F481E0089584E98C
:203EE0008093BC008091BC0084FFFCCF08958093BB0084E88093BC008091BC0087FFFCCF14
:203F00008091B90090E0887F883209F491E0892F0895FC0184EC8093BC008091BC0087FF54
:203F2000FCCF8091BB00808381E00895FC0184E88093BC008091BC0087FFFCCF8091BB00C7
:203F4000808381E008951F9388EC0E94491F882361F081E00E94771F882339F080EC0E94B9
:203F6000771F811181E0182F01C010E00E946F1F812F1F910895EF92FF921F93DF93CF93FB
:203F800000D0CDB7DEB7182F7B0188EC0E94491F8823C1F0812F0E94771F882399F089EC0A
:203FA0000E94491F882371F0CE0101960E94891F882341F0CE0102960E94961F882311F0F5
:203FC00011E001C010E00E946F1F112339F089816A810E948229F70191838083812F0F9012
:203FE0000F90CF91DF911F91FF90EF9008950F931F93CF93DF93EC018B0188E0BE010E948D
:20400000BB1F8823A9F06881798180E090E020E33CE540E050E00E94492E605070488F4FFC
:204020009F4FBC0188279927F8017183608381E0DF91CF911F910F910895BC0182E00E94B7
:20404000BB1F08950E94431F0895AF92BF92DF92EF92FF920F931F93CF93DF937C01EB01A2
:20406000D42E590180E1481709F460C0841728F0EAE04E1709F065C009C0F1E14F1709F409
:2040800059C085E1481709F05CC00BC0C70142E00E944B2AC701BE014AE952E00E948A2A1F
:2040A00050C00A811B81C70140EC52E00E948A2AF8014481440F406BC701BE010E947A2AC4
:2040C000C701BE0141E00E94712AF80126813781C701BE0145810E94832AC701BE0140E060
:2040E0000E94542AC701BE0140EC52E00E948A2AF8014481440F4F5F406BC701BE010E94D2
:204100007A2AC701BE0141E00E94712AF801458126813781240F311DC701BE010E94832AA1
:20412000C701BE0140E00E94542A0BC0C70148EC52E003C0C70141ED52E00E948A2A81E01D
:2041400006C0C701BE014D2D95010E944D25DF91CF911F910F91FF90EF90DF90BF90AF90C3
:204160000895FC01E60FF11D8491382F20E03196E4912E0F311DC9010895FC018491089549
:204180000E94BD20882321F0823011F083E0089586E0089566E00E94B120089568E00E94EE
:2041A000B1200895FC013A96E4918E2F0895FC013B96E4918E2F08959F92AF92BF92CF9234
:2041C000DF92EF92FF920F931F93CF93DF93EC01C62EFC80ED800F2D1E2D8F2D9E2D0E94BA
:2041E000BD20B82E8F2D9E2D0E94C020982E81E0B81619F48FE0A82E02C0AA24AA948F2D22
:204200009E2D0E94D720D82E80E68C1558F48F2D9E2D0E94CE20009729F0F801E80FF91F12
:2042200081E614C080E48C1558F48F2D9E2D0E94CA20009729F0F801E80FF91F81E406C0FC
:204240008F2D9E2D0E94D220F8017196DC1408F445C0D81608F442C0282F492D50E0949144
:204260009F3F11F4319636C02C1509F02BC0BB2019F082E0B81681F484918B8B31968491E9
:204280008C8B32968491888B31968491898B3196849135978A8B29C0892F8F7082508A8BE3
:2042A00092959F70998B31968491982F9F709C8B82958F708B8B31968491329782958F70E4
:2042C000888B13C03296849132978A21E80FF11DE40FF51F2D1511F02F5FC1CF188A1B8AF3
:2042E0001C8A198A1A8AE0E0F0E0CF01DF91CF911F910F91FF90EF90DF90CF90BF90AF90E7
:204300009F900895DC011496ED91FC911597309709F438C057968C915797882339F435963C
:20432000849158968C93589737960AC0813011F43F9601C03D96849158968C9358973196DE
:20434000849159968C93599758968C915897282F332727FD309559968C915997992787FD76
:204360009095281B390B5A968C915A97803441F0289F9001112496E0369527959A95E1F71D
:204380005B962C93089580E0089523EC31E2FC01368B258B0895CF93DF93EC018C819D81BA
:2043A0008617970749F07D836C83CE010E94822183EC91E29E8B8D8BDF91CF9108954F9215
:2043C0005F926F927F928F929F92AF92BF92CF92DF92EF92FF920F931F93CF93DF937C016D
:2043E000062FB42E622F0E94DC20EC01009711F480E03EC0F701C480D5801389748881885E
:20440000800E82899B2C9718981AC701682D492D212F072D0E94272A882341F1C6010E944B
:20442000C02067E0A62EA10EA694A694A6946E01C80ED11CBB244A2C552411C0FE010491BF
:20444000C701612F462D20E00E9451242196185F9E012C192A1590F3C40CD51CB3946B2C07
:20446000690CB71418F4E601182DF2CFF7018089DF91CF911F910F91FF90EF90DF90CF9006
:20448000BF90AF909F908F907F906F905F904F900895DF92EF92FF920F931F93CF93DF931C
:2044A0008C01D62EE42EE901DC015596ED91FC9156970995E80EFF24FE012491222349F0C6
:2044C000C8016D2D4E2D0E94DF21D80EF80E2196F3CF8F2DDF91CF911F910F91FF90EF900D
:2044E000DF900895DF92EF92FF920F931F93CF93DF938C01D62EE42EE901DC015596ED9132
:20450000FC9156970995E80EFF2408C0C8016D2D4E2D0E94DF21D80EF80E21962881222391
:20452000A9F78F2DDF91CF911F910F91FF90EF90DF900895DF92EF92FF920F931F938C0181
:20454000E62EF42ED22EDC015596ED91FC9156970995F80EC8016E2D4F2D2D2D0E94DF21E5
:204560001F910F91FF90EF90DF900895AF92BF92CF92DF92EF92FF920F931F93CF93DF9333
:20458000EC01122F261718F4D62ED21A02C0D22ED61A041718F4C42EC01A02C0C02EC41A81
:2045A000DC1460F48C2DCD2CD82E842F462F682F812F102F082FAA24A39401C0AA24161759
:2045C00030F4842F402F082F812F162F682F401718F0BB24BA9402C0BB24B394FD2CF694AB
:2045E000062FE42E11C0AA2021F4CE01602F4E2D03C0CE016E2D402F0E944824FC18F7FE38
:2046000002C0EB0CFD0C0F5F101768F7DF91CF911F910F91FF90EF90DF90CF90BF90AF905A
:204620000895EF92FF920F931F938C017B01DC01D196ED91FC91D29782E00995D701ED9160
:20464000FC91C801B7014AE020E030E00995F82ED801D196ED91FC91D29783E00995D801C0
:20466000D196ED91FC91D29780E009958F2D1F910F91FF90EF900895EF92FF920F931F9344
:204680008C017B01DC01D196ED91FC91D29782E00995D801D196ED91FC91D29781E00995A6
:2046A000D701ED91FC91C801B70144E120E030E0099598012D5C3F4FD701ED91FC91C80167
:2046C000B70147E10995D801D196ED91FC91D29780E009951F910F91FF90EF900895FF921E
:2046E0000F931F93CF93DF93EC018B01E9A9FAA982E00995E9A9FAA981E00995D801ED9159
:20470000FC91CE01B80145E120E030E00995F82E882351F09E012D5C3F4FD801ED91FC9104
:20472000CE01B80147E10995E9A9FAA980E009958F2DDF91CF911F910F91FF9008950F934E
:204740001F93FC01DB01448F258F0D911C9142E37C969F01F80109951F910F910895EF9220
:204760000F93CF93DF93FC01448F258F078FE68EEB01A881B9814BE37C969F01FD0109956A
:20478000DF91CF910F91EF900895DF93CF930F92CDB7DEB7FB01A081B18146E49E012F5F59
:2047A0003F4FFD01099589810F90CF91DF910895DF93CF930F92CDB7DEB7FB01A081B181DC
:2047C00047E49E012F5F3F4FFD01099589810F90CF91DF910895FB01A081B18148E420E0C6
:2047E00030E0FD01099508950F931F938C01DC0112966D917C9113970E94C523F8018083CF
:2048000062817381C8010E94D823D80111968C93119712966D917C911397C8010E94EB233E
:20482000F80183870280F381E02DA081B181C801BF0147E10D5C1F4F9801FD0109951F91B2
:204840000F910895CF93DF93EC016A817B810E941123882321F0CE010E94F42381E0DF9188
:20486000CF910895FC01628173810E943C230895CF93DF93EC01EE85FF85309709F00995B3
:204880006A817B81CE010E946F23DF91CF910895FC01362F242F62817381432F0E949F235F
:2048A0000895EF920F93FC01362F542FA22FE02E62817381432F252F0A2F0E94AF230F918A
:2048C000EF900895FC0160A308951F93CF93DF93EC011D821C821F821E82198681E088871F
:2048E00082E28A871F861E86FE01B39680E09FEF91938F5F8E30E1F711E018A3CE010E94FF
:20490000C5211F8B188E198E80E48A8F1B8E84E996E29AAB89ABDF91CF911F910895BF92C8
:20492000CF92DF92EF92FF920F931F937C016B01142FB22E0E946524F701D382C28215A3BF
:20494000B4A203A3C7010E9422241F910F91FF90EF90DF90CF90BF900895DC01FB01108228
:2049600012968C911297818315968C9115978150828313968C9183830895DC01FB01218197
:204980008381813021F0833029F0322F05C0322F385F02C0322F285040E013968C9113973C
:2049A000821708F041E050E012968C91381708F051E090E0321708F491E0892F8423942B94
:2049C0009523892B0895FC01362F668177818281481B483020F08581680F711D477081E07C
:2049E00090E002C0880F991F4A95E2F7FB01E30FF11D3081222311F0382B02C080953823F6
:204A000030830895FC01DB0111964C9111978281481760F08381841748F06C918581681736
:204A200028F4CF0114962C910E94E3240895CF92DF92FF920F931F93CF93DF936C01EB01F9
:204A4000FA808B81813061F0813028F0823059F0833019F40AC001E001C000E010E007C047
:204A600000E011E004C00FEFF9CF00E01FEFF7FE04C0C601BE010E9402258881800F888342
:204A80008981810F8983FF0C91F7DF91CF911F910F91FF90DF90CF9008950F931F93CF930D
:204AA000DF93FB018901C281D3814233D9F0433340F4453161F14731E1F1443109F043C0FC
:204AC00016C04634D9F14734D9F14B33E1F5CE01B9010E94BD248823B1F1CE01B8010E94A0
:204AE000172531C0CE01B9010E9402252CC0EE81FF818D8190E0880F991F8E0F9F1F119291
:204B0000E817F907E1F7CE010E94762B1CC0CE010E947D2B8823C1F0EE81FF818D8190E0EE
:204B2000880F991F8E0F9F1F1192E817F907E1F70AC0CE01B9010E94AD2405C08D8101C0F7
:204B40008981F801808381E0DF91CF911F910F910895CF92DF92EF92FF920F931F93CF9397
:204B6000DF93EC01C62ED42EE22EF42E122F0AC0CE016C2D4F2D21E00FEF0E945124185041
:204B800088E0F80E1830A0F79E2D97704E2D487F4D0D992381F087E098279F5F97700FEF04
:204BA00010E002C0000F111F9A95E2F7CE016C2D21E00E945124DF91CF911F910F91FF90CD
:204BC000EF90DF90CF900895CF92DF92EF92FF920F931F93CF93DF93EC01D62EC42EE22EEC
:204BE000F62E122F0AC0CE016F2D4C2D20E00FEF0E945124185088E0F80E1830A0F79E2D0D
:204C000097706E2D687F6D0D992381F087E098279F5F97700FEF10E002C0000F111F9A951B
:204C2000E2F7CE014C2D20E00E945124DF91CF911F910F91FF90EF90DF90CF9008956F92A2
:204C40007F928F929F92AF92BF92CF92DF92EF92FF920F931F93CF93DF93EC01862E942EF0
:204C6000722E602EAE2C0E94272A882309F44DC0FE2CF80CE90C8A94B82CB70C8394DB2C7E
:204C8000DA189A94C92CC60C93941C2D1A19CE016F2D4E2D2A2D02E00E94DC29CE016D2D5B
:204CA0004E2D2A2D01E00E94DC29CE016F2D412F2A2D04E00E94DC29CE016D2D412F2A2DAD
:204CC00008E00E94DC29172D1A191A191250062D0A190A190250F394E394CE016F2D492D8F
:204CE000212F0E94E425CE016F2D4C2D212F0E94E425CE01682D4E2D202F0E94A925CE016D
:204D00006B2D4E2D202F0E94A925DF91CF911F910F91FF90EF90DF90CF90BF90AF909F9008
:204D20008F907F906F90089508951F920F920FB60F9211242F933F938F939F93AF93BF93A3
:204D40008091840490918504A0918604B0918704309188040196A11DB11D232F2D5F2D37D7
:204D600020F02D570196A11DB11D209388048093840490938504A0938604B093870480915A
:204D8000800490918104A0918204B09183040196A11DB11D8093800490938104A09382044F
:204DA000B0938304BF91AF919F918F913F912F910F900FBE0F901F9018958FB7F8942091CF
:204DC00084043091850440918604509187048FBFB901CA010895789484B5826084BD84B529
:204DE000816084BD85B5826085BD85B5816085BDEEE6F0E0808181608083E1E8F0E0108222
:204E0000808182608083808181608083E0E8F0E0808181608083E1EBF0E0808184608083C6
:204E2000E0EBF0E0808181608083EAE7F0E08081846080838081826080838081816080839E
:204E40008081806880831092C100089508951F920F920FB60F9211242F933F934F938F9344
:204E60009F93EF93FF938091C00082FD1DC04091C6002091C9043091CA042F5F3F4F2F735D
:204E800030708091CB049091CC042817390771F0E091C904F091CA04E757FB4F4083309326
:204EA000CA042093C90402C08091C600FF91EF919F918F914F913F912F910F900FBE0F9030
:204EC0001F901895E0911D05F0911E05E05CFF4F8191919120813181821B930B8F739070F1
:204EE000892B11F00E94262708951F920F920FB60F9211242F933F938F939F93EF93FF9388
:204F000020910D0530910E0580910F05909110052817390731F48091C1008F7D8093C10049
:204F200014C0E0910F05F0911005E353FB4F208180910F059091100501968F73907090934A
:204F4000100580930F052093C600FF91EF919F918F913F912F910F900FBE0F901F90189545
:204F6000AF92BF92DF92EF92FF920F931F93CF93DF93EC017A018B01DD24403081EE5807C1
:204F800080E0680780E0780711F0DD24D39491E0A92EB12CEC89FD89DD2069F0C50108A016
:204FA00002C0880F991F0A94E2F7808360E079E08DE390E005C0108260E874E88EE190E013
:204FC000A80197010E94682E2150304040405040569547953795279580E12030380720F018
:204FE000DD2011F0DD24D6CFE889F9893083EA89FB89208319A2EE89FF89408121E030E041
:20500000C9010C8C02C0880F991F0A94E2F7482B4083EE89FF894081C9010D8C02C0880FF4
:20502000991F0A94E2F7482B4083EE89FF894081C9010E8C02C0880F991F0A94E2F7482BEC
:205040004083EE89FF8980810F8C02C0220F331F0A94E2F7209528232083DF91CF911F9113
:205060000F91FF90EF90DF90BF90AF900895DC011C96ED91FC911D97E05CFF4F219131919C
:2050800080819181281B390B2F733070C9010895DC011C96ED91FC911D97E05CFF4F208154
:2050A0003181E054F040DF01AE5BBF4F8D919C9111972817390719F42FEF3FEF07C08D9133
:2050C0009C91E80FF91F8081282F30E0C9010895DC011C96ED91FC911D97E05CFF4F20814C
:2050E0003181E054F040DF01AE5BBF4F8D919C9111972817390719F42FEF3FEF10C08D91EA
:205100009C911197E80FF91F20818D919C91119701968F73907011969C938E9330E0C901AD
:205120000895DC0191968C919197882339F05496ED91FC915597808186FFF9CF91961C92B1
:205140000895CF93DF93EC01EE85FF85E05CFF4F20813181E054F0402F5F3F4F2F7330705B
:20516000DF01AE5BBF4F8D919C91119728173907D1F3E05CFF4F80819181E054F040E80F0A
:20518000F91F6083EE85FF85E05CFF4F31832083EE89FF89208181E090E00F8C02C0880FD7
:2051A000991F0A94E2F7282B208381E089A3EC89FD8980818064808381E090E0DF91CF91B9
:2051C0000895109214051092130588EE93E0A0E0B0E08093150590931605A0931705B093C7
:2051E000180586E292E0909312058093110589E894E090931E0580931D058DEC94E09093E5
:20520000200580931F0585EC90E0909322058093210584EC90E0909324058093230580ECFB
:2052200090E0909326058093250581EC90E0909328058093270582EC90E090932A058093C4
:20524000290586EC90E090932C0580932B0584E080932D0583E080932E0587E080932F05A7
:2052600085E08093300581E0809331050895CF93DF930E94EB260E942D17C2E6D7E20E94CA
:20528000EE162097E1F30E946227F9CFCF92DF92EF92FF920F931F93CF93DF937C016B0197
:2052A0008A01C0E0D0E00FC0D6016D916D01D701ED91FC910190F081E02DC7010995C80FD2
:2052C000D91F015010400115110571F7CE01DF91CF911F910F91FF90EF90DF90CF90089539
:2052E000DC01ED91FC910190F081E02D099508950F93FC0113AE14AE15AE04960E948F24A8
:205300000F91089570E0382F20E0622B732BCB010895DF92EF92FF920F931F93CF93DF935A
:20532000EC01D62EF42E122FE0FE0EC0622F6D0D402F4F19CE010E944824612F6F0D402F33
:205340004D19CE010E944824E1FE0EC0612F6D19402F4F19CE010E944824612F6F19402F0C
:205360004D19CE010E944824E3FE0EC0612F6D0D402F4F0DCE010E944824612F6F0D402F0E
:205380004D0DCE010E944824E2FE0EC0612F6D19402F4F0DCE010E9448241F190D0DCE0149
:2053A000612F402F0E944824DF91CF911F910F91FF90EF90DF9008956F927F928F929F9242
:2053C000AF92BF92CF92DF92EF92FF920F931F93DF93CF930F92CDB7DEB73C01862E942EC2
:2053E0002983A02E11E0121BB22EB194BB0C60E0422F282D092DEA2C0E948929D980FF2407
:2054000023E0C22E12C017FD04C0DA9482E0B80E1B0DF3941C0DC3016F2D4D2D282D092D1C
:20542000EA2C0E948929E2E0CE0EFD1460F30F90CF91DF911F910F91FF90EF90DF90CF9065
:20544000BF90AF909F908F907F906F9008950F93FC014150040F4F5F94A986A9841718F0C5
:20546000091728F402C0091798F0041788F46150260F6F5F93A985A9861718F0291718F0E4
:2054800005C0291728F080E0261718F481E001C080E00F910895FB010480F581E02D61E043
:2054A00020E030E009950895FB010480F581E02D63E020E030E009950895FB010480F5811A
:2054C000E02D64E040E020E030E009950895FB010480F581E02D64E041E020E030E00995FA
:2054E0000895FB010480F581E02D62E020E030E009950895FB010480F581E02D65E020E037
:2055000030E009950895FB010480F581E02D66E009950895CF92DF92EF92FF920F931F9384
:20552000CF93DF937C01EB016A0100E0F6011491002361F41F3F11F401E045C0C701BE01FF
:20554000412F0E947A2A8823F1F541C01F3F41F4C701BE014FEF0E947A2A882399F537C035
:205560001E3F11F481E034C0103F60F5103E38F01F70C701BE01412F0E94712A23C0103D67
:2055800038F01F70C701BE01412F0E94542A1AC0103C80F0C701BE010E945D2A1295107FC1
:2055A0001E5F812F90E00E946C2BC701BE010E94672A04C01E3B30F417FD04C0812F90E022
:2055C0000E946C2B00E00894C11CD11CAFCF80E0DF91CF911F910F91FF90EF90DF90CF9072
:2055E00008950F931F93CF93DF93EC01162F042F643009F445C0653040F4623081F163308B
:2056000080F5613009F062C009C0663009F445C06630E8F1673009F059C04CC00E94262CF0
:205620008DE061E00E94932B8DE060E00E94D22B8BE061E00E94932B8BE060E00E94D22BBA
:205640008AE061E00E94932B8AE061E00E94D22B1CBC80E58CBD0230C8F51DBD37C061E06E
:2056600014C0442319F462E041E007C064E040E00E943E2CCE0162E040E00E943E2C26C025
:205680008BA18F3F19F1CE0160E0402FF6CF4EBD0DB407FEFDCF8EB519C0F90108C0808147
:2056A0008EBD0DB407FEFDCF31968EB501500023B1F70CC0F90108C084918EBD0DB407FE33
:2056C000FDCF8EB5319601500023B1F781E0DF91CF911F910F9108952EE93FE004C0F901C6
:2056E0003197F1F701970097D1F70895FC01128280818150838314820895FC012081828129
:20570000820F82839181891710F080E0089584818F5F84838381820F891710F0892F81508C
:20572000838381E00895CF93DF93482F50E0CA018A58944FFC0134914E59544FFA0184913E
:20574000882369F190E0880F991FFC01EC5BF44FA591B491FC01E25BF44FC591D4916623C2
:2057600051F42FB7F8948C91932F909589238C93888189230BC0623061F42FB7F8948C91AD
:20578000932F909589238C938881832B88832FBF06C09FB7F8948C91832B8C939FBFDF9147
:2057A000CF910895482F50E0CA018657944FFC012491CA018A58944FFC0194914E59544F0C
:2057C000FA013491332309F440C0222351F1233071F0243028F42130A1F0223011F514C0FD
:2057E0002630B1F02730C1F02430D9F404C0809180008F7703C0809180008F7D809380003B
:2058000010C084B58F7702C084B58F7D84BD09C08091B0008F7703C08091B0008F7D8093FE
:20582000B000E32FF0E0EE0FFF1FE25BF44FA591B4912FB7F894662321F48C9190958923C2
:2058400002C08C91892B8C932FBF08951F93CF93DF93EC01A39610E088818F3F39F061E02E
:205860000E94932B888161E00E94D22B1F5F21961D3091F7DF91CF911F910895FC01E60FC6
:20588000F11D83A18F3F19F0642F0E94D22B08955058BB27AA270ED0E5C0D6D030F0DBD0E1
:2058A00020F031F49F3F11F41EF4CBC00EF4E095E7FBC1C0E92FE7D080F3BA176207730763
:2058C0008407950718F071F49EF5FFC00EF4E0950B2EBA2FA02D0B01B90190010C01CA014D
:2058E000A0011124FF27591B99F0593F50F4503E68F11A16F040A22F232F342F4427585FE4
:20590000F3CF469537952795A795F0405395C9F77EF41F16BA0B620B730B840BBAF09150DD
:20592000A1F0FF0FBB1F661F771F881FC2F70EC0BA0F621F731F841F48F4879577956795C6
:20594000B795F7959E3F08F0B3CF9395880F08F09927EE0F97958795089504D06894B1112D
:20596000B5C0089598D088F09F5790F0B92F9927B751A0F0D1F0660F771F881F991F1AF04A
:20598000BA95C9F712C0B13081F09FD0B1E008959CC0672F782F8827B85F39F0B93FCCF3F8
:2059A000869577956795B395D9F73EF490958095709561957F4F8F4F9F4F0895E89409C0C9
:2059C00097FB3EF490958095709561957F4F8F4F9F4F9923A9F0F92F96E9BB279395F695A3
:2059E000879577956795B795F111F8CFFAF4BB0F11F460FF1BC06F5F7F4F8F4F9F4F16C039
:205A0000882311F096E911C0772321F09EE8872F762F05C0662371F096E8862F70E060E08C
:205A20002AF09A95660F771F881FDAF7880F9695879597F9089597F99F6780E870E060E001
:205A400008959FEF80EC089500240A941616170618060906089500240A9412161306140620
:205A600005060895092E0394000C11F4882352F0BB0F40F4BF2B11F460FF04C06F5F7F4F06
:205A80008F4F9F4F089557FD9058440F551F59F05F3F71F04795880F97FB991F61F09F3F66
:205AA00079F087950895121613061406551FF2CF4695F1DF08C0161617061806991FF1CFE2
:205AC00086957105610508940895E894BB2766277727CB0197F908950EF0A6C0B2CF689433
:205AE000AACFD9DFC8F39923D1F3C6F3DF93CF931F930F93FF92C92FDD2788232AF021974F
:205B0000660F771F881FDAF720E030E040E85FEB9FE3883920F0803E30F021968F77B9DEFB
:205B2000E8E6F0E003C0B5DEE5E9F0E08DD08B01BE01EC01FB2E6F5771097595771F880BA2
:205B4000990B3EDF28E132E741E35FE316D0AF2D9801AE01FF900F911F91CF91DF91AADEBB
:205B600081CF0BD07FCF70DF28F075DF18F0952309F061CF66CF1124A9CF85DFA0F3959FFB
:205B8000D1F3950F50E0551F629FF001729FBB27F00DB11D639FAA27F00DB11DAA1F649FDF
:205BA0006627B00DA11D661F829F2227B00DA11D621F739FB00DA11D621F839FA00D611D97
:205BC000221F749F3327A00D611D231F849F600D211D822F762F6A2F11249F5750408AF0B8
:205BE000E1F088234AF0EE0FFF1FBB1F661F771F881F91505040A9F79E3F510570F01BCFAA
:205C000065CF5F3FECF3983EDCF3869577956795B795F795E7959F5FC1F7FE2B880F911D93
:205C20009695879597F908959F3F49F0915028F4869577956795B7959F5F80389F4F880F32
:205C40009695879597F90895DF93CF931F930F93FF92EF92DF927B018C01689405C0DA2E53
:205C6000EF018BDFFE01E894A5912591359145915591AEF3EF011EDEFE019701A801DA94A6
:205C800079F7DF90EF90FF900F911F91CF91DF910895629FD001739FF001829FE00DF11D69
:205CA000649FE00DF11D929FF00D839FF00D749FF00D659FF00D9927729FB00DE11DF91FE4
:205CC000639FB00DE11DF91FBD01CF0111240895A1E21A2EAA1BBB1BFD010DC0AA1FBB1FBB
:205CE000EE1FFF1FA217B307E407F50720F0A21BB30BE40BF50B661F771F881F991F1A947D
:205D000069F760957095809590959B01AC01BD01CF0108952F923F924F925F926F927F9205
:205D20008F929F92AF92BF92CF92DF92EF92FF920F931F93CF93DF93CDB7DEB7CA1BDB0B8F
:205D40000FB6F894DEBF0FBECDBF09942A88398848885F846E847D848C849B84AA84B984AC
:205D6000C884DF80EE80FD800C811B81AA81B981CE0FD11D0FB6F894DEBF0FBECDBFED01FF
:205D80000895EE0FFF1F0590F491E02D0994F894FFCF5F002A00000102020303030304048B
:205DA00004040404040405050505050505050505050505050505060606060606060606063F
:205DC0000606060606060606060606060606060606060606060607070707070707070707F9
:205DE0000707070707070707070707070707070707070707070707070707070707070707C3
:205E0000070707070707070707070707070707070707070707070808080808080808080898
:205E2000080808080808080808080808080808080808080808080808080808080808080862
:205E4000080808080808080808080808080808080808080808080808080808080808080842
:205E6000080808080808080808080808080808080808080808080808080808080808080822
:205E80000808080808080808080808080808080808080808080810400000008080032520BA
:205EA0000402F12A0000000072184629000000007218462900000000A128462937286828A8
:205EC00048289128FFFFFFFFFFFFFFFFFFFFFFFFFFFFFFFFFFFFFFFFFFFFFFFFFFFFFFFFB5
:205EE000FFFFFFFFFFFFFFFFFFFFFFFFFFFFFFFFFFFFFFFFFFFFFFFFFFFFFFFFFFFFFFFFC2
:205F00007727CB0197F908950EF0A6C0B2CF6894AACFD9DFC8F39923D1F3C6F3DF93CF9310
:205F20001F930F93FF92C92FDD2788232AF02197660F771F881FDAF720E030E040E85FEBFE
:205F40009FE3883920F0803E30F021968F77B9DEE8E6F0E003C0B5DEE5E9F0E08DD08B0141
:205F6000BE01EC01FB2E6F5771097595771F880B990B3EDF28E132E741E35FE316D0AF2DCE
:205F80009801AE01FF900F911F91CF91DF91AADE81CF0BD07FCF70DF28F075DF18F095238E
:205FA00009F061CF66CF1124A9CF85DFA0F3959FD1F3950F50E0551F629FF001729FBB27BA
:205FC000F00DB11D639FAA27F00DB11DAA1F649F6627B00DA11D661F829F2227B00DA11D1A
:205FE000621F739FB00DA11D621F839FA00D611D221F749F3327A00D611D231F849F600D1A
:20600000211D822F762F6A2F11249F5750408AF0E1F088234AF0EE0FFF1FBB1F661F771F58
:20602000881F91505040A9F79E3F510570F01BCF65CF5F3FECF3983EDCF3869577956795B2
:20604000B795F795E7959F5FC1F7FE2B880F911D9695879597F908959F3F49F0915028F440
:20606000869577956795B7959F5F80389F4F880F9695879597F90895DF93CF931F930F93DA
:20608000FF92EF92DF927B018C01689405C0DA2EEF018BDFFE01E894A5912591359145914E
:2060A0005591AEF3EF011EDEFE019701A801DA9479F7DF90EF90FF900F911F91CF91DF91B2
:2060C0000895629FD001739FF001829FE00DF11D649FE00DF11D929FF00D839FF00D749FD4
:2060E000F00D659FF00D9927729FB00DE11DF91F639FB00DE11DF91FBD01CF0111240895C9
:20610000A1E21A2EAA1BBB1BFD010DC0AA1FBB1FEE1FFF1FA217B307E407F50720F0A21B59
:20612000B30BE40BF50B661F771F881F991F1A9469F760957095809590959B01AC01BD01EF
:20614000CF0108952F923F924F925F926F927F928F929F92AF92BF92CF92DF92EF92FF9294
:206160000F931F93CF93DF93CDB7DEB7CA1BDB0B0FB6F894DEBF0FBECDBF09942A883988BC
:2061800048885F846E847D848C849B84AA84B984C884DF80EE80FD800C811B81AA81B9819B
:2061A000CE0FD11D0FB6F894DEBF0FBECDBFED010895EE0FFF1F0590F491E02D0994F894D7
:2061C000FFCF5F002A005F002A000001020203030303040404040404040405050505050590
:2061E0000505050505050505050506060606060606060606060606060606060606060606E9
:206200000606060606060606060607070707070707070707070707070707070707070707A8
:2062200007070707070707070707070707070707070707070707070707070707070707077E
:20624000070707070707070707070808080808080808080808080808080808080808080848
:2062600008080808080808080808080808080808080808080808080808080808080808081E
:206280000808080808080808080808080808080808080808080808080808080808080808FE
:2062A0000808080808080808080808080808080808080808080808080808080808080808DE
:2062C000080808080808080808081040000000806C033D220802092D00000000841A5E2B69
:2062E00000000000841A5E2B00000000B92A5E2B4F2A802A602AA92AFFFFFFFFFFFFFFFF93
:20630000FFFFFFFFFFFFFFFFFFFFFFFFFFFFFFFFFFFFFFFFFFFFFFFFFFFFFFFFFFFFFFFF9D
:20632000FFFFFFFFFFFFFFFFFFFFFFFFFFFFFFFFFFFFFFFFFFFFFFFFFFFFFFFFFFFFFFFF7D
:20634000FFFFFFFFFFFFFFFFFFFFFFFFFFFFFFFFFFFFFFFFFFFFFFFFFFFFFFFFFFFFFFFF5D
:20636000FFFFFFFFFFFFFFFFFFFFFFFFFFFFFFFFFFFFFFFFFFFFFFFFFFFFFFFFFFFFFFFF3D
:207800000C94343C0C94513C0C94513C0C94513C0C94513C0C94513C0C94513C0C94513C1D
:207820000C94513C0C94513C0C94513C0C94513C0C94513C0C94513C0C94513C0C94513CE0
:207840000C94513C0C94513C0C94513C0C94513C0C94513C0C94513C0C94513C0C94513CC0
:207860000C94513C0C94513C11241FBECFEFD8E0DEBFCDBF11E0A0E0B1E0ECE9FFE702C07E
:2078800005900D92A230B107D9F712E0A2E0B1E001C01D92AD30B107E1F70E942D3D0C94CC
:2078A000CC3F0C94003C982F9595959595959595905D8F708A307CF0282F295A8091C000B5
:2078C00085FFFCCF9093C6008091C00085FFFCCF2093C6000895282F205DF0CF982F8091CF
:2078E000C00085FFFCCF9093C6000895EF92FF920F931F93EE24FF2487018091C00087FD7B
:2079000017C00894E11CF11C011D111D81E4E81682E4F8068FE0080780E0180770F3E09106
:207920000401F091050109958091C00087FFE9CF8091C6001F910F91FF90EF9008950E949A
:20794000763C982F8091C00085FFFCCF9093C60091362CF490330CF09053892F08959755DB
:20796000892F08951F930E949F3C182F0E949F3C1295107F810F1F9108951F93182F882308
:2079800021F00E94763C1150E1F71F9108951F93182F0E94763C803249F0809103018F5FC1
:2079A000809303018530C1F01F9108958091C00085FFFCCF84E18093C6008091C00085FF4A
:2079C000FCCF1093C6008091C00085FFFCCF80E18093C6001F910895E0910401F0910501CF
:2079E00009951F9108950E94763C803241F0809103018F5F80930301853081F00895809177
:207A0000C00085FFFCCF84E18093C6008091C00085FFFCCF80E18093C6000895E0910401AC
:207A2000F09105010995089540E951E08823A1F02D9A28EE33E0FA013197F1F72150304072
:207A4000D1F72D9828EE33E0FA013197F1F721503040D1F7815061F708953F924F925F92B3
:207A60006F927F928F929F92AF92BF92CF92DF92EF92FF920F931F93CF93DF93000080E1A3
:207A80008093C4001092C50088E18093C10086E08093C2005098589A259A81E00E94143D43
:207AA00024E1F22E9EE1E92E85E9D82E0FE0C02E10E1B12EAA24A394B1E49B2EA6E58A2E44
:207AC000F2E57F2EE0E26E2E79E4572E63E5462E50E5352E0E94763C8033B1F18133B9F187
:207AE000803409F46FC0813409F476C0823409F485C0853409F488C0803531F1823521F128
:207B0000813511F1853509F485C0863509F48DC0843609F496C0843709F403C1853709F46A
:207B200072C1863709F466C0809103018F5F80930301853079F6E0910401F0910501099559
:207B40000E94763C803351F60E94F33CC3CF0E94763C803249F78091C00085FFFCCFF0928C
:207B6000C6008091C00085FFFCCF9092C6008091C00085FFFCCF8092C6008091C00085FFEA
:207B8000FCCF7092C6008091C00085FFFCCF6092C6008091C00085FFFCCF5092C6008091A1
:207BA000C00085FFFCCF4092C6008091C00085FFFCCF3092C6008091C00085FFFCCFB09214
:207BC000C60088CF0E94763C863808F4BDCF0E94763C0E94F33C7ECF0E94763C803809F473
:207BE0009CC0813809F40BC1823809F43CC1883909F48FC080E00E94C73C6CCF84E10E949F
:207C0000BD3C0E94F33C66CF85E00E94BD3C0E94F33C60CF0E94763C809306010E94763CA3
:207C2000809307010E94F33C55CF0E94763C803309F41DC183E00E94BD3C80E00E94C73C4F
:207C400049CF0E94763C809309020E94763C8093080280910C028E7F80930C020E94763C88
:207C6000853409F415C18091080290910902892B89F000E010E00E94763CF801E85FFE4F53
:207C800080830F5F1F4F80910802909109020817190788F30E94763C803209F045CF8091E0
:207CA0000C0280FF01C16091060170910701660F771F7093070160930601A0910802B091E8
:207CC00009021097C9F0E8E0F1E09B01AD014E0F5F1FF999FECF32BD21BD819180BDFA9A6C
:207CE000F99A2F5F3F4FE417F50799F76A0F7B1F70930701609306018091C00085FFFCCF16
:207D0000F092C6008091C00085FFFCCFB092C600E1CE83E00E94C73CDDCE82E00E94C73C8A
:207D2000D9CE0E94763C809309020E94763C809308028091060190910701880F991F909306
:207D40000701809306010E94763C853409F4A6C080910C028E7F80930C020E94763C80323E
:207D600009F0B8CE8091C00085FFFCCFF092C600609108027091090261157105B9F140E05F
:207D800050E080910C02A82FA170B82FB27011C0BB2309F45CC0E0910601F0910701319613
:207DA000F0930701E09306014F5F5F4F46175707E8F4AA2369F3F999FECF209106013091CA
