:200000000C94F8050C9420060C9420060C9420060C9420060C9420060C9420060C942006D9
:200020000C9420060C9420060C9420060C9420060C9420060C9420060C9420060C94200690
:200040000C94DD1A0C9420060C944B1D0C947D1D0C9420060C9420060C9420060C942006E9
:200060000C9420060C94200627144B144D145B1461146514701408000000BE922449123E03
:20008000ABAAAA2ABECDCCCC4C3E00000080BEABAAAAAA3E00000000BF000000803F0000E7
:2000A000000000084178D3BB4387D1133D190E3CC3BD4282AD2B3E68EC8276BED98FE1A94D
:2000C0003E4C80EFFFBE01C4FF7F3F00000000005B25635D000A0020256C7520256C752032
:2000E000256C752025750A0025752E253033752025752E253033752025752E253033752087
:2001000025752E253033750023204C54433239343320766F6C746167652072656164696E7D
:2001200067206661696C65640A00232052657665727365642063757272656E740A002320D6
:200140004C544332393433206368617267652072656164696E67206661696C656420283267
:20016000290A0023204C544332393433206368617267652072656164696E67206661696C14
:200180006564202831290A000A0023204C54433239343320696E6974206661696C6564206F
:2001A00028697320706F77657220636F6E6E65637465643F290A002320556E6B6E6F776E76
:2001C0002073746174653A2025640A00232054657374206D6F64652E0A000A232056657297
:2001E00020312E30310A00253464004D6573736167653A200054657374204D6F6465006490
:20020000657465637465642E004572726F7200636F6D6D206572726F722E004375727265A3
:200220006E742073656E73650043757272656E74005265766572736500616E616C797369EE
:20024000732E2E2E0052657374617274696E670056657220312E303100504F574552205074
:200260004C41590042002530345800520025752E253033750049002532752E25303375001E
:200280005600736563002536750054006D616800253475005177616B65002A0025356C7547
:2002A000004E77616B650076002532752E25303275005600736563002536750054006D6159
:2002C00068002534750051006D610049617667006D6100490025303175002E002534750034
:2002E0006D610049617667006D61004900FFE0FFD1AFFF32FFD1FFFEFFE0FFD1AEFFD1FF0A
:20030000FEFFE0FFD11000FFFEFFD0FFE0FFC1FFD1AED580A83FD300408D142002A1C8DAE2
:200320001281CFD9F1DB402EA4A6AFFFD0FFFE01080D00FE09016102CD20FFFE0BFE09FE08
:200340000D00803219898080808080808000802843839090901367874848FC48FC4848122B
:2003600059892078A0A0702828F02012698944A4481010204854881267876090906094885F
:2003800074381383808080323989204040808080404020223989804040202020404080168D
:2003A00065854830FC30481455852020F82020114383706080165181F821338340E04002C1
:2003C00079890202040810204080801269893048848484848448301259892060A02020209F
:2003E0002020F81269897884840408304080FC126989FC04081038040484781269890818CD
:2004000028488888FC0808126989FC8080B8C40404847812698938408080B8C48484781246
:200420006989FC04081010202040401269897884848478848484781269897884848C7404D6
:2004400004087021388840E040000040E04011488820702000007060802259890810204022
:200460008040201008146484FC0000FC125989804020100810204080126989788484040824
:20048000101000101269897884849CA4AC9480781269893048848484FC848484126989F0AC
:2004A000888488F0888488F0126989788480808080808478126989F088848484848488F030
:2004C000126989FC808080F0808080FC126989FC808080F080808080126989788480808040
:2004E0009C848C7412698984848484FC84848484125989F820202020202020F81279893EA6
:200500000808080808088870126989848890A0C0A09088841269898080808080808080FC77
:200520000279898282C6AA92928282821269898484C4A4948C8484841269897884848484ED
:2005400084848478126989F8848484F880808080116A8A788484848484A49478041269894E
:20056000F8848484F8A0908884126989788480807804048478027989FE10101010101010D5
:20058000101269898484848484848484780279898282444444282828100279898282828247
:2005A000929292AA44027989828244281028448282027989828244281010101010126989DB
:2005C000FC04081020408080FC224989F080808080808080F00279898080402010080402D1
:2005E00002124989F010101010101010F0185383205088017181FE3A2282804012668678DA
:20060000047C848C74126989808080B8C48484C4B81266867884808084781269890404044C
:20062000748C84848C741266867884FC80847812698938444040F84040404010688874884C
:20064000887080788478126989808080B8C48484848412588820006020202020F8105A8AC0
:20066000080018080808088888701269898080808890E0908884125989602020202020208E
:2006800020F8027686EC9292929282126686B8C48484848412668678848484847810688806
:2006A000B8C484C4B8808080106888748C848C74040404126686B84440404040126686783E
:2006C00084601884781268884040F84040404438126686888888888874125686888888507C
:2006E000502002768682829292AA441266868448303048841068888484848C7404847812E2
:200700006686FC08102040FC22598938404020C020404038321989808080808080808080B5
:20072000125989E010102018201010E018538348A890FFFFFFFFFFFFFFFFFFFFFFFFFFFF0D
:20074000FFFFFFFFFFFFFFFFFFFFFFFFFFFFFFFFFFFFFF0D0080321989800080808080804B
:2007600080801358882070A8A0A0A870200279891C22207020202062DC13668684784848DB
:200780007884027989828244287C107C1010321989808080800080808080224A8A60908087
:2007A000609090601090602A42829090037989384492AAA2AA924438145787700878887852
:2007C00000F803778712244890482412136484FC040404264181F0037989384492AAAAB2A0
:2007E000AA44381A6181FC274484609090601357872020F8202000F81646866090106080E9
:20080000F01646866090201090603A2282408011678784848484CCB4801269897CE8E8E811
:200820006828282828362181C030228240C016368640C0404040E01546866090906000F021
:2008400003778790482412244890027A8A40C0404042E60A121A06027A8A40C040404CF2DF
:20086000020C101E027A8A6090201092660A121A06126989200020204080848478126A8A38
:2008800020100030488484FC8484126A8A10200030488484FC8484126A8A30480030488470
:2008A00084FC8484126A8A64980030488484FC8484126A8A48480030488484FC8484126A94
:2008C0008A30483030488484FC84840279896E9090909CF090909E106B8B788480808080F4
:2008E0008084781020126A8A201000FC8080F08080FC126A8A102000FC8080F08080FC12FE
:200900006A8A304800FC8080F08080FC126A8A484800FC8080F08080FC125A8A402000F8B7
:200920002020202020F8125A8A102000F82020202020F8125A8A304800F82020202020F86B
:20094000125A8A888800F82020202020F802798978444242E242424478027A8A6498008217
:20096000C2A2928A8682027A8A2010007C82828282827C027A8A0810007C82828282827C97
:20098000027A8A1824007C82828282827C027A8A6498007C82828282827C027A8A44440081
:2009A0007C82828282827C136686844830304884116B8B04788C9494A4A4A4C47880126A63
:2009C0008A40200084848484848478126A8A10200084848484848478126A8A304800848451
:2009E0008484848478126A8A48480084848484848478125A8A102000888850202020201231
:200A0000698980F8848484F880808012698970888890A0988484B812698920100078047C30
:200A2000848C7412698908100078047C848C7412698930480078047C848C741269896498A2
:200A40000078047C848C7412698948480078047C848C74126A8A3048300078047C848C74E0
:200A60000276866C127C90926C10688878848080847810201269892010007884FC80847820
:200A80001269891020007884FC8084781269893048007884FC80847812698948480078842E
:200AA000FC8084781259894020006020202020F81259892040006020202020F81259896012
:200AC00090006020202020F81259899090006020202020F8126A8A48305008788484848464
:200AE00078126989649800B8C48484848412698940200078848484847812698910200078E2
:200B00008484848478126989304800788484848478126989649800788484848478126989CD
:200B2000484800788484848478135787202000F800202011688804788C94A4C47880126944
:200B40008940200088888888887412698910200088888888887412698930480088888888A4
:200B60008874126989505000888888888874106B8B1020008484848C74048478106A8A8073
:200B800080B8C48484C4B88080106B8B4848008484848C74048478000000080002010000A8
:200BA0000304070000000000000000010204081020408001020408102001020408102004A6
:200BC0000404040404040402020202020203030303030300000000250028002B0000000063
:200BE00000240027002A00004907A10CFF11AD1D11241FBECFEFD8E0DEBFCDBF11E0A0E087
:200C0000B1E0E6EBF8E402C005900D92A633B107D9F724E0A6E3B1E001C01D92AA32B2071C
:200C2000E1F71BE0C0EFDBE004C02297FE010E947B20C83ED107C9F70E94F11D0C94592453
:200C40000C9400002F923F924F925F926F927F928F929F92AF92BF92CF92DF92EF92FF92B6
:200C60000F931F93CF93DF9300D000D0CDB7DEB79A8389837C836B83FC016481758186819E
:200C8000978120E838E842E050E00E94992019012A013B014C0180E4A82E92E4B92E2FE0F3
:200CA000C22ED12CE12CF12C00E010E09101A201B301C4010E94C620EB81FC8120833183D7
:200CC000428353839101A201B301C40104E00E94232151016201730184010E943C215901FA
:200CE0006A017B01E82F192F04E00E9423210E2F0E943C2104E00E942321E8EEAE2EF3E059
:200D0000BF2EC12CD12CE12CF12C00E010E00E94C620E981FA81C080D180E280F380160118
:200D2000270156016201E12CF12C0E94C620EB81FC8124833583468357830F900F900F9057
:200D40000F90DF91CF911F910F91FF90EF90DF90CF90BF90AF909F908F907F906F905F901F
:200D60004F903F902F900895CF92DF92EF92FF92CF93DF93EC016A017B01CB01BA0120E452
:200D800032E44FE050E00E9457203983288360EC7DEB80EF9FEF0E9433206C0D7D1D8E1DFA
:200DA0009F1D6A837B838C839D836C507E4F8F4F9F4F28EE33E040E050E00E9457203F83B4
:200DC0002E83DF91CF91FF90EF90DF90CF900895F894DC01ED91FC911197208114968C9195
:200DE00080958223808378940895CF9326E040E052EC61E070E08DE893E00E94E91C8AED30
:200E000091E09F938F930E94D30B0E940C0C0F900F900E949E0C811103C00E94150CF9CF69
:200E20000E94970C80938D01882341F08CEC91E09F938F930E94D30B0F900F900E94D00D76
:200E4000C1E0C0938E010E94C812C0938701789480918D01882311F086E001C081E06CED80
:200E600075E0CF910C94DF11CF93C82F84E0809387010E94271B6093360170933701809379
:200E80003801909339016CED75E08C2FCF910C94DF118BE290E0909389018093880189E2D2
:200EA00090E090938B0180938A0180E180938C01549A88E891E00E94E8060E94271B60933E
:200EC000360170933701809338019093390108954F925F926F927F928F929F92AF92BF9292
:200EE000CF92DF92EF92FF920F931F93CF93DF93CDB7DEB7CE54D1090FB6F894DEBF0FBE16
:200F0000CDBFF894E0918801F0918901808190918C01892B8083789488E891E00E94E806D1
:200F200080918D01882309F18DE893E00E94061C892BD9F08DE893E00E941F1C282F992768
:200F40002A3011F02D3029F49F938F9385ED90E004C09F938F9380ED90E09F938F930E949B
:200F6000D30B0F900F900F900F9080918D01811120C00E94920C813051F490918E019F5F22
:200F800090938E019430A8F080938E0112C0823081F488E891E09F938F930E94D30B83E090
:200FA00080938701109286016EEE72E00E94DF1113C0809186018111AEC080E891E00E9447
:200FC000E61281110CC083E691E09F938F930E94D30B82E00E9434070F900F907DC381E0EF
:200FE000809386010E94271B6093820170938301809384019093850110923A0110923B017A
:2010000010923C0110923D0110923E0110923F0110924001109241011092420110924301BC
:2010200010924401109245011092460110924701109248011092490110924A0110924B015C
:2010400010924C0110924D0110924E0110924F0110925001109251011092520110925301FC
:2010600010925401109255011092560110925701109258011092590110925A0110925B019C
:2010800010925C0110925D0110925E0110925F01109260011092610110926201109263013C
:2010A00010926401109265011092660110926701109268011092690110926A0110926B01DC
:2010C00010926C0110926D0110926E0110926F01109270011092710110927201109273017C
:2010E00010927401109275011092760110927701109278011092790110927A0110927B011C
:2011000010927C0110927D0110927E0110927F010E94860DE1C20E94271BC0908201D0905E
:201120008301E0908401F09085016C197D098E099F0964367105810591050CF4CDC224E621
:20114000C20ED11CE11CF11CC0928201D0928301E0928401F0928501CE01875B9F4F0E94CD
:20116000E612811103C08EE391E063C12B962EAD3FAD2B978091800190918101A901481B90
:20118000590BCA01309381012093800157FF08C08AE291E09F938F930E94D30B84E01ACF8B
:2011A00031E04A30510518F430E020E003C020914201232744E650E060E070E040933A0139
:2011C00050933B0160933C0170933D01A0E0B0E080933E0190933F01A0934001B0934101C1
:2011E00030934201C0905C01D0905D01E0905E01F0905F0154E6C50ED11CE11CF11CC09279
:201200005C01D0925D01E0925E01F0925F0140916001509161016091620170916301480F79
:20122000591F6A1F7B1F4093600150936101609362017093630140904B0150904C016090A4
:201240004D0170904E01E4E64E0E511C611C711C40924B0150924C0160924D0170924E0176
:2012600080904F0190905001A0905101B0905201880E991EAA1EBB1E80924F0190925001C5
:20128000A0925101B0925201E0915301EF5FE0935301EA3090F14092430150924401609291
:2012A0004501709246018092470190924801A0924901B0924A0110924B0110924C01109252
:2012C0004D0110924E0110924F0110925001109251011092520110925301C0925401D09202
:2012E0005501E0925601F0925701409358015093590160935A0170935B01332309F452C07A
:2013000040916C0150916D0160916E0170916F014C595F4F6F4F7F4F40936C0150936D01FF
:2013200060936E0170936F0140917001509171016091720170917301480F591F6A1F7B1F78
:20134000409370015093710160937201709373018091780190917901A0917A01B0917B0189
:201360000196A11DB11D8093780190937901A0937A01B0937B01222309F44FC080917C01D5
:2013800090917D01A0917E01B0917F010196A11DB11D80937C0190937D01A0937E01B093F4
:2013A0007F013BC0409164015091650160916601709167014C595F4F6F4F7F4F409364015D
:2013C000509365016093660170936701409168015091690160916A0170916B01480F591FE2
:2013E0006A1F7B1F409368015093690160936A0170936B018091740190917501A0917601AF
:20140000B09177010196A11DB11D8093740190937501A0937601B0937701BE016B5B7F4F17
:20142000CE01895B9F4F0E94EA12811108C088E091E09F938F930E94D30B85E0CBCD2796AC
:20144000AEACBFAC2797B50180E090E028EEC22E23E0D22EE12CF12CA70196010E945720F8
:2014600023963FAF2EAF239768E17CEF629FC001639F900D729F900D11248A0D9B1D25962C
:201480009FAF8EAF2597BE01675C7F4F8AE391E00E94220621964CAD5DAD6EAD7FAD219754
:2014A000CE01C1960E94B40621966CAD7DAD8EAD9FAD2197A70196010E94572029013A01B4
:2014C000BE01675D7F4F83E491E00E942206BE016F5D7F4F84E591E00E942206BE01675E98
:2014E0007F4F8CE591E00E942206498D5A8D6B8D7C8DCE0141960E94B4064D8D5E8D6F8DF1
:2015000078A1CE0109960E94B40620915C0130915D0140915E0150915F012F962CAF3DAFBE
:201520004EAF5FAF2F97CA01B901A70196010E94572049015A01BE016F5F7F4F8CE691E01A
:201540000E942206C2010E948B0D80918D01882381F00E94970C2B964EAD5FAD2B97282FE3
:20156000BE016F5C7F4FCE018F5B9F4F0E9448104BC080918E01813059F42DA13EA14FA12C
:2015800058A56DA57EA58FA598A90E94E70D3CC08230B9F4698D7A8D8B8D9C8DA701960136
:2015A0000E9457204DA05EA06FA078A46DA57EA58FA598A974018901A30192010E947A0EF2
:2015C00023C08330E1F469817A818B819C81A70196010E94572080917C0190917D01A091DC
:2015E0007E01B0917F01740189019C01AD0160914201CE018F5B9F4F0E94440F05C064E682
:2016000070E085E00E94DF1180918D01811164C088898F938F858F938A858F9389858F9364
:20162000888D8F938F898F938A898F9389898F9388AD8F938FA98F938AA98F9389A98F9376
:2016400028E13CEF289DC001299D900D389D900D11242D964EAD5FAD2D97840F951F9F93BF
:201660008F939F928F9288EE90E09F938F930E94D30B809142011F928F9380917F018F9362
:2016800080917E018F9380917D018F9380917C018F9380916F018F9380916E018F938091E1
:2016A0006D018F9380916C018F93809167018F93809166018F93809165018F9380916401B6
:2016C0008F9387ED90E09F938F930E94D30B0FB6F894DEBF0FBECDBFC25BDF4F0FB6F8944D
:2016E000DEBF0FBECDBFDF91CF911F910F91FF90EF90DF90CF90BF90AF909F908F907F900D
:201700006F905F904F9008950F931F930E94150C809187018330C1F08430D1F0813079F5B7
:201720000E94CA12882331F083E0809387011092860136C08AE891E09F938F930E94D30B8B
:201740000F900F9082E028C01F910F910C9468070E94271B00913601109137012091380133
:2017600030913901601B710B820B930B683E734081059105A8F081E08093870111C01F92C1
:201780008F9387EB91E09F938F930E94D30B0F900F900F900F9085E01F910F910C94340764
:2017A0001F910F910895FF920F931F93CF93DF93CDB7DEB7FE013896419151919F0160E504
:2017C00070E08FE891E00E947E210FE811E0F801F1908F01FF2071F0FAE0FF1205C06DE021
:2017E0008DE893E00E94281E6F2D8DE893E00E94281EEDCFDF91CF911F910F91FF900895A5
:20180000CF93DF93EC010E94271B688379838A839B83DF91CF9108951092F0018CEE91E026
:201820000E94000C1092EB0108950F931F93CF93DF93E091DF01F091E00190818091E101F0
:20184000982381E009F080E09091E401891739F08093E40185EE91E00E94000C20C00E9438
:20186000271B0091E5011091E6012091E7013091E801601B710B820B930B0091E2011091AD
:20188000E30120E030E0061717072807390738F481E08093E9018091E4018093EA01D091CB
:2018A000EA01C091F001C13041F018F0C23049F12AC0DD2391F181E017C00E94271B00918C
:2018C000EC011091ED012091EE013091EF01601B710B820B930B603D27E0720781059105E0
:2018E00030F082E08093EB018093F0010EC0D11114C0653F71408105910528F4C093EB0113
:2019000002C0D1110AC01092F0018CEE91E0DF91CF911F910F910C94000CDF91CF911F918F
:201920000F9108958091EB011092EB01089581E09091F001911101C080E008958091E90174
:2019400008958CEE91E00E94000C82E390E09093E3018093E20185EE91E00E94000C10924B
:20196000E40185EE91E00E94000C1092E9011092EA0189E290E09093E0018093DF0184E0A1
:201980008093E10152985A9A0895CF93DF93EC01262F4CAD6BAD04960E9461162BAD992765
:2019A00087FD9095820F911D8BAF81E090E0DF91CF9108950F931F93809145028823F1F08F
:2019C0000E94271B00913F02109140022091410230914202601B710B820B930B009143027D
:2019E0001091440220E030E0601771078207930718F01092450202C081E001C080E01F91F9
:201A00000F910895CF93DF93FC0185ADEF012496811105C081E085AFCE010E949B18CE01FD
:201A2000DF91CF910C94D11804960C94811604960C94B816AF92BF92CF92DF92EF92FF92FE
:201A40000F931F93CF93DF93A82EB62ECA01B90124E630E040E050E00E94572069017A01B7
:201A6000CA01B9012AE030E040E050E00E94572066EF6203E001639FD00D1124CC0DDD1DDC
:201A80003F932F938CED92E09F938F931F928CE0F82EFF9201EF11E01F930F930E944E2159
:201AA00098014B2D6A2D86E492E00E94140D6FE16A0D2AED32E04B2D86E492E00E94170DD5
:201AC000DF93CF9385ED92E09F938F931F92FF921F930F930E944E218DB79EB740960FB61F
:201AE000F8949EBF0FBE8DBF65E26A0D98014B2D86E492E0DF91CF911F910F91FF90EF900B
:201B0000DF90CF90BF90AF900C94140D1092FE011092FD010895813D27E0920710F080EDFF
:201B200097E0BC01625E7F4F80E090E00E94CA1E0E945D1F20E030E040EE50E40E949D1F9B
:201B400020E030E048EB51E40E94341E20E030E040E05FE30E94351E0E94991E8FE3861B46
:201B60009091FD01E091FE01903471F4AE2FB0E0A150BE4F8C93EF5FE03418F4E093FE0143
:201B800008951092FE010895E90FE03408F0E054F0E0E150FE4F80839F5F9093FD01089525
:201BA0001092450210924402109243020E94271B60933F0270934002809341029093420253
:201BC0000E94860D61E08AE492E00C94FE186F927F928F929F92AF92BF92CF92DF92EF92B0
:201BE000FF920F931F93CF93DF936B017C0149015A010E94DA0C81116EC086E492E00E94D8
:201C0000020DD0E0D11112C02BEE32E04AE060E086E492E00E94170DA70196016AE08EE320
:201C20000E941A0D28EE32E04AE013C0D130B9F423EE32E049E160E086E492E00E94170DD9
:201C4000A501940169E18EE30E941A0D20EE32E049E161E786E492E00E94170D35C0C0914B
:201C6000FE01EC2FF0E0E150FE4F408111E060E08091FD011817B0F4CF5FC03408F0C0E06E
:201C8000EC2FF0E0E150FE4F708092E0692E660E072D262D8AE492E00E9441171F5F662DFC
:201CA000472DE6CF6F5F00E2262F4FE38AE492E00E944117D33041F40FE32FE74FE360E038
:201CC0008AE492E00E9441178AE492E00E94D618DF5F811197CFDF91CF911F910F91FF90D5
:201CE000EF90DF90CF90BF90AF909F908F907F906F9008952F923F924F925F926F927F929A
:201D00008F929F92AF92BF92CF92DF92EF92FF920F931F93CF93DF931F92CDB7DEB71B01ED
:201D20002C0149015A0119830E94DA0C811198C086E492E00E94020D10E028EBC22E22E041
:201D4000D22E32EC632E32E0732E6FE273E08AE492E00E942D17111112C023ED32E04AE077
:201D600060E086E492E00E94170DA20191016AE084E30E941A0D20ED32E04AE013C0113075
:201D8000B9F42BEC32E04BE160E086E492E00E94170DA50194016BE184E30E941A0D28EC94
:201DA00032E04BE167E686E492E00E94170D51C0123019F526EC32E04CE260E086E492E027
:201DC0000E94170D89818F930F937F926F921F929CE09F93A1EFB1E0BF93AF930E944E2138
:201DE00021EF31E04CE261E486E492E00E94140D2EEB32E04CE267E623C0133051F52CEB87
:201E000032E04DE360E086E492E00E94170DFF92EF92DF92CF921F929CE09F93A1EFB1E03A
:201E2000BF93AF930E944E2121EF31E04DE361E386E492E00E94140D24EB32E04DE365E62D
:201E400086E492E00E94170D0FB6F894DEBF0FBECDBF8AE492E00E94D6181F5F811175CFD5
:201E60000F90DF91CF911F910F91FF90EF90DF90CF90BF90AF909F908F907F906F905F90EE
:201E80004F903F902F9008952F923F924F925F926F927F928F929F92AF92BF92CF92DF920C
:201EA000EF92FF920F931F93CF93DF931F92CDB7DEB76C01862E722E632E542E452E19833B
:201EC0000E94DA0C8111D0C086E492E00E94020D10E046E8242E42E0342E5CE0952E69EA85
:201EE000A62E62E0B62E6FE273E08AE492E00E942D1711112EC022EB32E04AE060E086E47B
:201F000092E00E94170DD60112968D919C9113976AE070E00E9443207F936F93F601818169
:201F20008F9380818F93BF92AF921F929F92A1EFB1E0BF93AF930E944E2121EF31E04AE0D7
:201F400069E386E492E00E94140D27EA32E04AE057C0113089F521EA32E04BE160E086E480
:201F600092E00E94170D4F925F926F927F92ACE9B2E0BF93AF931F929F92A1EFB1E0BF9335
:201F8000AF930E944E2121EF31E04BE169E386E492E00E94140D0FB6F894DEBF0FBECDBF6F
:201FA000882009F45AC02AE932E04BE167E686E492E00E94170D51C0123021F524E932E09A
:201FC0004CE260E086E492E00E94170D99819F930F93A0E9B2E0BF93AF931F929F92A1EFE2
:201FE000B1E0BF93AF930E944E2121EF31E04CE261E486E492E00E94140D2CE832E04CE224
:2020000067E622C0133049F52AE832E04DE360E086E492E00E94170DFF92EF923F922F9236
:202020001F929F92A1EFB1E0BF93AF930E944E2121EF31E04DE361E386E492E00E94140DC4
:2020400022E832E04DE365E686E492E00E94170D0FB6F894DEBF0FBECDBF8AE492E00E947E
:20206000D6181F5F81113FCF0F90DF91CF911F910F91FF90EF90DF90CF90BF90AF909F90FC
:202080008F907F906F905F904F903F902F9008953F924F925F926F927F928F929F92AF92D2
:2020A000BF92CF92DF92EF92FF920F931F93CF93DF938C017B01442E352E522E0E94DA0CDD
:2020C0008111B9C086E492E00E94020D712C76E6C72E72E0D72EECE06E2EC1EFD1E0FDE677
:2020E000AF2EF2E0BF2EA7E78A2EA2E09A2E6FE273E08AE492E00E942D1771102AC020E8D7
:2021000032E04AE060E086E492E00E94170DF80183818F9382818F9381818F9380818F9316
:202120009F928F921F926F92DF93CF930E944E2121EF31E04AE061E386E492E00E94140D88
:20214000EDB7FEB73A960FB6F894FEBF0FBEEDBF6BC0F1E07F122AC025E732E04BE160E0CE
:2021600086E492E00E94170DF70187818F9386818F9381818F9380818F93BF92AF921F92E8
:202180006F92DF93CF930E944E2121EF31E04BE169E386E492E00E94140DEDB7FEB73A96F8
:2021A0000FB6F894FEBF0FBEEDBF3EC0F2E07F1223C02BE632E04CE260E086E492E00E9445
:2021C000170D3F924F92DF92CF921F926F92DF93CF930E944E2121EF31E04CE269E386E4BB
:2021E00092E00E94140DEDB7FEB738960FB6F894FEBF0FBEEDBF18C0F3E07F1215C024E6E1
:2022000032E04DE360E086E492E00E94170D552019F022E131E002C024E131E04DE369E3B4
:2022200086E492E00E94140D8AE492E00E94D618739481115CCFDF91CF911F910F91FF901C
:20224000EF90DF90CF90BF90AF909F908F907F906F905F904F903F900895CF92DF92EF92BA
:20226000FF920F931F93CF93DF93CDB7DEB72C970FB6F894DEBF0FBECDBF86E492E00E9404
:20228000020DB7EECB2EB1E0DB2E1CE0CE0101967C016FE273E08AE492E00E942D1700E4CA
:2022A00020E840E060E08AE492E00E94A11A80914502813061F429E532E049E166E186E420
:2022C00092E00E94170D20E532E04EE23DC0833059F425E432E04AE165E186E492E00E9478
:2022E000170D29E332E00CC0843069F421E332E04AE165E186E492E00E94170D29E232E079
:202300004DE265E122C0823059F42BE132E04AE16BE086E492E00E94170D2FE032E00CC044
:20232000853069F429E032E04AE16BE086E492E00E94170D2FEF31E04DE26BE006C0863033
:2023400049F425EF31E045E26BE186E492E00E94170D20C02BEE31E041E26FE086E492E0AE
:202360000E94170D809145021F928F93DF92CF921F921F93FF92EF920E944E21970141E259
:2023800061E486E492E00E94140D0FB6F894DEBF0FBECDBF8AE492E00E94D618811179CFC8
:2023A0002C960FB6F894DEBF0FBECDBFDF91CF911F910F91FF90EF90DF90CF900895CF9319
:2023C000DF93C82FD09145028093450270934402609343020E94271B60933F0270934002B4
:2023E0008093410290934202CC2331F0CD1721F0DF91CF910C942D11DF91CF9108950F935E
:20240000CF93DF931092490210924802C6E4D2E08AE191E09983888306E027E04FEF64E041
:2024200071E0CE010E940A1382E291E0998388830E94271B60933F0270934002809341020E
:2024400090934202DF91CF910F91089591E001C0990F8A95EAF78091BC008923E1F3089544
:202460001092B9008CE08093B8000895CF93C82F84EA8093BC0087E00E9426129091B9007C
:20248000987F983011F0903181F4C093BB0084E88093BC0087E00E9426129091B900987FAB
:2024A00081E0983119F0903409F080E0CF91089584E98093BC0084E00C9426128093BB0089
:2024C00084E88093BC0087E00E9426129091B900987F81E0983209F080E00895CF93DF939A
:2024E000EC0184EC8093BC0087E00E9426128091BB00888381E0DF91CF910895CF93DF93F6
:20250000EC0184E88093BC0087E00E9426128091BB00888381E0DF91CF910895FF920F937A
:202520001F93CF93DF9300D0CDB7DEB7F82E8B0188EC0E943612811102C0F12C15C08F2D1A
:202540000E945E128823C9F389EC0E9436128823A1F3CE0102960E946E12882371F3CE01FD
:2025600001960E947E12F82E0E945812FF2039F069818A810E942F1EF801918380838F2D68
:202580000F900F90DF91CF911F910F91FF9008950C943012CF93DF931F92CDB7DEB788ECBD
:2025A0000E943612811102C080E008C081E00E945E128823C9F380EC0E945E1289830E94AF
:2025C000581289810F90DF91CF910895BC0182E00C948E120F931F93CF93DF93EC018B017B
:2025E000BC0188E00E948E12882371F028813981A0E3BCE50E947F2070588F4F9F4FF80113
:202600009183808381E001C080E0DF91CF911F910F9108950F93FC0113AE14AE15AE0496E5
:202620000E94AD180F9108950F93FC010150040F84A996A9941718F0081728F402C00817B8
:2026400050F0041740F42150260F83A995A9961720F4281720F480E007C0281720F481E0EC
:20266000261710F0F8CF81E00F910895DB011496ED91FC91159720E030E061E00994DB01B1
:202680001496ED91FC91159720E030E063E00994DB011496ED91FC91159720E030E040E07C
:2026A00064E00994DB011496ED91FC91159720E030E041E064E00994DB011496ED91FC9159
:2026C000159720E030E062E00994DB011496ED91FC91159720E030E065E00994DB011496AA
:2026E000ED91FC91159766E00994AF92BF92CF92DF92EF92FF920F931F93CF93DF931F92F1
:20270000CDB7DEB75C018B017A0180E0F7014491811109C04F3FD9F1B801C5010E946513C3
:2027200081112EC039C04F3FB9F34E3FB9F1403F38F5403E30F04F70B801C5010E945C1316
:202740001FC0403D30F04F70B801C5010E943F1317C0403CB8F0B801C50149830E94481388
:2027600049814295407F4E5FC42ED12CC6010E948814B801C5010E945213C6010E948814CD
:2027800080E006C047FDFCCF842F90E0F7CF81E0FFEFEF1AFF0ABACF80E001C081E00F9010
:2027A000DF91CF911F910F91FF90EF90DF90CF90BF90AF900895860F911DFC0183A18F3FC0
:2027C00019F0642F0C94D01B0895EF92FF920F931F93CF93DF937C01C0E0D0E087010C0F8B
:2027E0001D1FF80183A18F3F41F061E00E94971B61E0F80183A10E94D01B2196CD30D10577
:2028000069F7DF91CF911F910F91FF90EF9008958EBD0DB407FEFDCF8EB50895CF92DF92FE
:20282000EF92FF920F931F93CF93DF931F92CDB7DEB76C017901062F10E0F8013197E730B0
:20284000F10508F05AC0EC5CFF4F0C94792049830E94E51361E08DE00E94971B60E08DE08C
:202860000E94D01B61E08BE00E94971B60E08BE00E94D01B61E08AE00E94971B61E08AE0E9
:202880000E94D01B1CBC80E58CBD49814230A8F581E08DBD32C061E004C0411106C041E071
:2028A00062E0C6010E94DB1328C040E064E00E94DB1340E0F5CFFC0183A18F3FF1F060E0AF
:2028C000F0CF842F0E94081418C04423B1F0F70181917F0149830E94081449814150F5CFB5
:2028E000442359F0F701849149830E940814FFEFEF1AFF0A49814150F3CF81E00F90DF9104
:20290000CF911F910F91FF90EF90DF90CF9008952EE93FE0009729F0F9013197F1F7019766
:20292000F9CF0895BF92CF92DF92EF92FF920F931F93CF93DF938C01EB01B42E690180E1AF
:20294000481709F45CC0841770F0EAE04E136BC042E0C8010E94361349E053E0BE01C801F4
:202960000E94751360C0F1E14F1709F44BC085E1481359C0EA80FB8041E053E0C8010E944F
:202980007513F7014481440F406BBE01C8010E94651341E0BE01C8010E945C13F7012681F9
:2029A00037814581BE01C8010E946E1340E0BE01C8010E943F1341E053E0BE01C8010E94D4
:2029C0007513F7014481440F4F5F406BBE01C8010E94651341E0BE01C8010E945C13F701B2
:2029E000458126813781240F311DBE01C8010E946E1340E0BE01C8010E943F1314C048EFDF
:202A000052E002C04DEE52E0BE01C8010E94751381E0DF91CF911F910F91FF90EF90DF90A5
:202A2000CF90BF90089596014B2DBE01C801DF91CF911F910F91FF90EF90DF90CF90BF9069
:202A40000C94D819FC01E60FF11D849190E0982F88273196E4918E0F911D0895FC018491B4
:202A600008950E942E15882311F0823011F486E0089583E0089580E0089566E00C94221554
:202A800068E00C9422150A96FC01849108950B96FC0184910895BF92CF92DF92EF92FF9243
:202AA0000F931F93CF93DF93EC01E62E0C811D81C8010E942E15F82E8C819D810E943115DB
:202AC000B82E21E0F21619F0CC24CA9402C05FE0C52E8C819D810E944315F82E8C819D8146
:202AE0000E944715D82E8C819D810E944015E0E6EE1538F4009729F0080F191F41E6F42E73
:202B000010C08C819D810E943D15F0E4FE1538F4009729F0080F191F31E4F32E02C00F5E4F
:202B20001F4FDE1440F4188A1B8A1C8A198A1A8A80E090E050C0DF14B0F32B2D30E0F801F6
:202B400084918F3F19F40F5F1F4F40C0FE1036C08C819D810E942E1598012F5F3F4FF801E7
:202B6000882311F0823091F484918B8BF90124912C8BF8013396E491E88BF8013496E491FF
:202B8000E98BF8013596E491EA8B16C09491892F8F7082508A8B92959F70998BF901249171
:202BA000822F8F708C8B22952F702B8BF8013296E491E295EF70E88BC8010DC0F80132966C
:202BC000E491EC210E0F111D020F131FFD1409F4AACFF394B4CFDF91CF911F910F91FF90A5
:202BE000EF90DF90CF90BF9008954F925F927F928F929F92AF92BF92CF92DF92EF92FF92F1
:202C00000F931F93CF93DF931F92CDB7DEB72C01162F742E622F0E944B156C01009709F41A
:202C20003EC0F201848195810E943115F82EF201838804899188910E8289781A172D101B2B
:202C4000282D412F692DC2010E941413882321F1CF0CD11CF7E08F0E869486948694A82C72
:202C6000B12C1715C9F0392D76018E2D8C19881578F4F701049120E0412F632FC20139833E
:202C80000E94ED18FFEFEF1AFF0A3981385FEDCFCA0CDB1C1F5FE5CFF201808901C080E064
:202CA0000F90DF91CF911F910F91FF90EF90DF90CF90BF90AF909F908F907F905F904F90C0
:202CC00008950F931F93CF93DF9300D01F92CDB7DEB78C01DC015596ED91FC9156972B839A
:202CE0004A83698309954A81480F2B816981C8010F900F900F90DF91CF911F910F910C945F
:202D0000F515AF92BF92DF92EF92FF920F931F93CF93DF9300D0CDB7DEB78C01E62EF42EC0
:202D2000DC015596ED91FC91569729833A830995F80E2981A22E3A81B32ED12CF50121910B
:202D40005F01222341F04F2D6E2DC8010E94F515E80ED80EF3CF8D2D0F900F90DF91CF91AB
:202D60001F910F91FF90EF90DF90BF90AF900895DF92EF92FF920F931F93CF93DF93EC01C3
:202D8000F62EE42E8901ED89FE890995E80ED12CF8012491222351F04E2D6F2DCE010E9429
:202DA000F515F80ED80E0F5F1F4FF2CF8D2DDF91CF911F910F91FF90EF90DF900895DC01AF
:202DC00014968D919C911597009709F43FC057962C915797FC01211108C03596E491589602
:202DE000EC935897FC013C9611C0213041F43F96E4915896EC935897FC01709607C03D96FC
:202E0000E4915896EC935897FC013E96849159968C93599758968C915897992787FD90959A
:202E200059962C915997821B910927FD93955A962C915A97203441F0829FC0011124E6E073
:202E400096958795EA95E1F75B968C9308952BE335E1FC01368B258B0895CF93DF93EC0137
:202E60008C819D818617970749F07D836C83CE010E94DF168BE395E19E8B8D8BDF91CF9169
:202E80000895AF92BF92CF92DF92EF92FF920F931F93CF93DF93EC01162FF42EE22E261756
:202EA00018F4C62EC21A02C0C22EC61A0F1518F4DF2CD01A02C0D02EDF18CD1428F08D2D15
:202EC000DC2CC82EA12C08C08E2DE02E082F812F1F2DF82EAA24A394E11630F48F2DF02E43
:202EE000082F812F1E2DE82EBD2CB694F01610F401E00FC00FEF0DC0A1100EC04F2D612F47
:202F0000CE010E94E518BC18B7FE02C0F00EBD0C1F5FE11688F703C0412F6F2DF1CFDF913E
:202F2000CF911F910F91FF90EF90DF90CF90BF90AF9008951F93CF93DF93EC011D821C822A
:202F40001F821E82198681E0888782E28A871F861E8680E090E02FEFFE01E80FF91F23A3A1
:202F600001968E309105C1F711E018A3CE010E9427171F8B188E198E80E48A8F1B8E8CEDBD
:202F80009AE19AAB89ABDF91CF911F910895DB01ED91FC910994EF92FF921F93CF93DF9304
:202FA00000D0CDB7DEB77C01DC01D196ED91FC91D29782E069837A83099520E030E04AE0D0
:202FC00069817A81C7010E94C717182FD701D196ED91FC91D29783E00995D701D196ED910C
:202FE000FC91D29780E00995812F0F900F90DF91CF911F91FF90EF9008950F931F93CF930E
:20300000DF93EC018B01E9A9FAA982E00995E9A9FAA981E0099520E030E044E1B801CE019F
:203020000E94C7179E012D5C3F4F47E1B801CE010E94C717E9A9FAA980E0DF91CF911F9115
:203040000F910994FF920F931F93CF93DF93EC018B01E9A9FAA982E00995E9A9FAA981E036
:20306000099520E030E045E1B801CE010E94C717F82E882341F09E012D5C3F4F47E1B801DB
:20308000CE010E94C717E9A9FAA980E009958F2DDF91CF911F910F91FF900895FC01448FD6
:2030A000258F9C01245E3F4F42E30C94C717CF93DF931F92CDB7DEB79E012F5F3F4F46E489
:2030C0000E94C71789810F90DF91CF910895CF93DF931F92CDB7DEB79E012F5F3F4F47E4D6
:2030E0000E94C71789810F90DF91CF91089520E030E048E40C94C717CF93DF93EC016A81D4
:203100007B810E94571888836A817B81CE010E94671889836A817B81CE010E9477188B87BB
:203120009E012D5C3F4F6A817B8147E1CE01DF91CF910C94C717CF93DF93EC016A817B8105
:203140000E94CB17882329F0CE010E947C1881E001C080E0DF91CF910895CF92DF92EF92E0
:20316000FF920F93CF93DF9300D0CDB7DEB76C017B012A8349830E949A17F601F382E282DA
:20318000498145A32A8124A303A3C6010F900F90DF91CF910F91FF90EF90DF90CF900C9474
:2031A0009B18FC01628173810C94FD17CF93DF93EC01EE85FF85309709F009956A817B81D7
:2031C000CE01DF91CF910C942218362F242FFC0162817381432F0C944E180F93FC018281D0
:2031E0009381648F458F278F068F9F01245E3F4F4BE3BC01CF010F910C94C717FC0160A320
:203200000895FC01128280818150838314820895FC0120818281820F82839181891760F438
:2032200084818F5F84838381820F891710F08FEF890F838381E0089580E00895FC0191E0DA
:203240008381861708F490E021E0461708F020E0322F392B81E05281451708F480E08323B4
:203260009223892B0895DC01FB01108212968C911297818315968C91159781508283139678
:203280008C9183830895FB0141812381213029F0233031F468EF640F04C0642F485F01C0A1
:2032A000642F0C941E19DC0115962C9115971696ED91FC911797CF01820F911D820F911D00
:2032C0001192E817F907E1F70895FC01A681B7818281481B483020F08581A80FB11D47704B
:2032E00081E090E0042E01C0880F0A94EAF7FD01E60FF11D3081222311F0832B02C0809577
:20330000832380830895FB014181DC0112962C911297421768F013962C911397241740F092
:20332000608115962C91621718F424810C9465190895CF92DF92FF920F931F93CF93DF93D4
:2033400000D0CDB7DEB78C016B01FB01F2808381813039F070F0823039F0833041F020E020
:2033600001C021E030E007C020E03FEF04C02FEFF9CF20E031E0F7FE08C0B601C8012983E2
:203380003A830E9483193A812981F6018081830F80838181820F8183FF0C69F70F900F9000
:2033A000DF91CF911F910F91FF90DF90CF9008950F931F93CF93DF938901FB01C281D381AE
:2033C0004233F9F068F4453109F1473141F1443181F5CE010E945319CE010E94011929C0DD
:2033E000463411F1473411F14B3319F5B901CE010E9443198823E9F0B801CE010E94991961
:2034000018C0B901CE010E94831913C0CE010E940819882381F0CE010E9453190AC0B9012B
:20342000CE010E94331905C08D8101C08981F801808381E001C080E0DF91CF911F910F9193
:203440000895AF92BF92DF92EF92FF920F931F93CF93DF931F92CDB7DEB75C01E62EF42E35
:20346000122F322FD62ED20E6D2D631B383050F00FEF20E04F2DC50139830E94ED183981A9
:203480003850F2CF612F687F6E0D177079F087E081278F5F87700FEF10E001C0000F8A9530
:2034A000EAF720E04F2DC5010E94ED180F90DF91CF911F910F91FF90EF90DF90BF90AF9078
:2034C0000895AF92BF92DF92EF92FF920F931F93CF93DF931F92CDB7DEB75C01F62EE42EB5
:2034E000122F322FD42ED20E4D2D431B383050F00FEF21E06F2DC50139830E94ED1839814A
:203500003850F2CF412F487F4E0D177079F087E081278F5F87700FEF10E001C0000F8A950F
:20352000EAF721E06F2DC5010E94ED180F90DF91CF911F910F91FF90EF90DF90BF90AF90D6
:203540000895DF92EF92FF920F931F93CF93DF93EC01162FF42EE22ED02E0E94141388234D
:2035600019F12E2D4F2D612FCE010E94211A2D2D4F2D612FCE010E94611A6FEF6E0D610F93
:203580002D2D4F2DCE010E94611A4FEF4D0D4F0D2E2D612FCE01DF91CF911F910F91FF900C
:2035A000EF90DF900C94211ADF91CF911F910F91FF90EF90DF90089508951F920F920FB654
:2035C0000F9211242F933F938F939F93AF93BF938091850390918603A0918703B0918803CF
:2035E0003091840323E0230F2D3720F40196A11DB11D05C026E8230F0296A11DB11D2093D7
:2036000084038093850390938603A0938703B09388038091890390918A03A0918B03B09106
:203620008C030196A11DB11D8093890390938A03A0938B03B0938C03BF91AF919F918F9116
:203640003F912F910F900FBE0F901F9018952FB7F894609185037091860380918703909142
:2036600088032FBF0895789484B5826084BD84B5816084BD85B5826085BD85B5816085BDB6
:20368000EEE6F0E0808181608083E1E8F0E01082808182608083808181608083E0E8F0E013
:2036A000808181608083E1EBF0E0808184608083E0EBF0E0808181608083EAE7F0E080817F
:2036C000846080838081826080838081816080838081806880831092C1000895833081F028
:2036E00028F4813099F08230A1F008958730A9F08830B9F08430D1F4809180008F7D03C00A
:20370000809180008F7780938000089584B58F7702C084B58F7D84BD08958091B0008F77F7
:2037200003C08091B0008F7D8093B0000895CF93DF9390E0FC01E555F44F2491FC01E154F4
:20374000F44F8491882349F190E0880F991FFC01E352F44FA591B4918D52944FFC01C59168
:20376000D4919FB7611108C0F8948C91209582238C93888182230AC0623051F4F8948C913A
:20378000322F309583238C938881822B888304C0F8948C91822B8C939FBFDF91CF91089579
:2037A0000F931F93CF93DF931F92CDB7DEB7282F30E0F901E956F44F8491F901E555F44FA8
:2037C0001491F901E154F44F04910023C9F0882321F069830E946E1B6981E02FF0E0EE0FC8
:2037E000FF1FED52F44FA591B4919FB7F8948C91611103C01095812301C0812B8C939FBF47
:203800000F90DF91CF911F910F910895FC01818D228D90E0805C9F4F821B91098F7399275F
:203820000895FC01918D828D981731F0828DE80FF11D858D90E008958FEF9FEF0895FC0118
:20384000918D828D981761F0828DDF01A80FB11D5D968C91928D9F5F9F73928F90E008955A
:203860008FEF9FEF089583EA9DE1892B49F080E090E0892B29F00E94A31D81110C94000096
:203880000895FC01848DDF01A80FB11DA35ABF4F2C91848D90E001968F739927848FA68934
:2038A000B7892C93A089B1898C9180648C93938D848D981306C00288F389E02D80818F7DC4
:2038C00080830895CF93DF93EC01888D8823C9F0EA89FB89808185FD05C0A889B9898C913F
:2038E00086FD0FC00FB607FCF5CF808185FFF2CFA889B9898C9185FFEDCFCE010E94411C06
:20390000E7CFDF91CF910895CF92DF92FF920F931F93CF93DF931F92CDB7DEB76C01DC01E5
:203920005B969C915B975C968C915C97981307C05096ED91FC915197808185FD32C0F601BE
:20394000038D10E00F5F1F4F0F731127F02EF601848DF81211C00FB607FCF9CFD601509603
:20396000ED91FC915197808185FFF1CFC60169830E94411C6981EBCF838DE80FF11DE35A67
:20398000FF4F6083D6015B960C935B975296ED91FC91539780818062808381E058968C936C
:2039A0000DC0D6015696ED91FC91579760835096ED91FC91519780818064808381E090E009
:2039C0000F90DF91CF911F910F91FF90DF90CF900895BF92CF92DF92EF92FF92CF93DF9325
:2039E000EC016A017B01B22EE889F98982E08083411581EE580761057105A1F060E079E091
:203A00008DE390E0A70196010E94572021503109410951095695479537952795211580E139
:203A2000380798F0E889F989108260E874E88EE190E0A70196010E9457202150310941096A
:203A400051095695479537952795EC85FD853083EE85FF852083188EEC89FD89B082EA8937
:203A6000FB89808180618083EA89FB89808188608083EA89FB89808180688083EA89FB8920
:203A800080818F7D8083DF91CF91FF90EF90DF90CF90BF9008951F920F920FB60F92112491
:203AA0002F938F939F93EF93FF93E0919D03F0919E038081E091A303F091A40382FD12C018
:203AC00090818091A6038F5F8F732091A703821751F0E091A603F0E0E357FC4F958F809350
:203AE000A60301C08081FF91EF919F918F912F910F900FBE0F901F9018951F920F920FB6BD
:203B00000F9211242F933F934F935F936F937F938F939F93AF93BF93EF93FF938DE893E06F
:203B20000E94411CFF91EF91BF91AF919F918F917F916F915F914F913F912F910F900FBEBA
:203B40000F901F9018958DE893E00E94061C21E0892B09F420E0822F0895109290031092E7
:203B60008F0388EE93E0A0E0B0E08093910390939203A0939303B09394038AE291E09093B8
:203B80008E0380938D0385EC90E090939A038093990384EC90E090939C0380939B0380ECE2
:203BA00090E090939E0380939D0381EC90E09093A00380939F0382EC90E09093A20380930D
:203BC000A10386EC90E09093A4038093A3031092A6031092A7031092A8031092A90308950D
:203BE00008950E94331B0E94F01D0E94F506C3E3DCE10E94840B2097E1F30E94331CF9CF14
:203C0000CF92DF92EF92FF920F931F93CF93DF936C017A01EB01E60EF71E00E010E0CE1508
:203C2000DF0561F06991D601ED91FC910190F081E02DC6010995080F191FF1CFC801DF91B7
:203C4000CF911F910F91FF90EF90DF90CF900895DC01ED91FC910190F081E02D099470E057
:203C60009B01382BC90108955058BB27AA270ED0E5C0D6D030F0DBD020F031F49F3F11F477
:203C80001EF4CBC00EF4E095E7FBC1C0E92FE7D080F3BA17620773078407950718F071F423
:203CA0009EF5FFC00EF4E0950B2EBA2FA02D0B01B90190010C01CA01A0011124FF27591BAD
:203CC00099F0593F50F4503E68F11A16F040A22F232F342F4427585FF3CF4695379527956B
:203CE000A795F0405395C9F77EF41F16BA0B620B730B840BBAF09150A1F0FF0FBB1F661F41
:203D0000771F881FC2F70EC0BA0F621F731F841F48F4879577956795B795F7959E3F08F053
:203D2000B3CF9395880F08F09927EE0F97958795089504D06894B111B5C0089598D088F024
:203D40009F5790F0B92F9927B751A0F0D1F0660F771F881F991F1AF0BA95C9F712C0B130B6
:203D600081F09FD0B1E008959CC0672F782F8827B85F39F0B93FCCF3869577956795B3958B
:203D8000D9F73EF490958095709561957F4F8F4F9F4F0895E89409C097FB3EF49095809572
:203DA000709561957F4F8F4F9F4F9923A9F0F92F96E9BB279395F695879577956795B7956D
:203DC000F111F8CFFAF4BB0F11F460FF1BC06F5F7F4F8F4F9F4F16C0882311F096E911C0E9
:203DE000772321F09EE8872F762F05C0662371F096E8862F70E060E02AF09A95660F771F71
:203E0000881FDAF7880F9695879597F9089597F99F6780E870E060E008959FEF80EC08955D
:203E200000240A941616170618060906089500240A9412161306140605060895092E03941A
:203E4000000C11F4882352F0BB0F40F4BF2B11F460FF04C06F5F7F4F8F4F9F4F089557FDFB
:203E60009058440F551F59F05F3F71F04795880F97FB991F61F09F3F79F087950895121615
:203E800013061406551FF2CF4695F1DF08C0161617061806991FF1CF8695710561050894D5
:203EA0000895E894BB2766277727CB0197F908950EF0A6C0B2CF6894AACFD9DFC8F399235A
:203EC000D1F3C6F3DF93CF931F930F93FF92C92FDD2788232AF02197660F771F881FDAF7B0
:203EE00020E030E040E85FEB9FE3883920F0803E30F021968F77B9DEE6E7F0E003C0B5DEC8
:203F0000E3EAF0E08BD08B01BE01EC01FB2E6F5771097595771F880B990B3EDF28E132E7F2
:203F200041E35FE316D0AF2D9801AE01FF900F911F91CF91DF91AADE81CF0BD07FCF70DF12
:203F400028F075DF18F0952309F061CF66CF1124A9CF85DFA0F3959FD1F3950F50E0551FF3
:203F6000629FF001729FBB27F00DB11D639FAA27F00DB11DAA1F649F6627B00DA11D661F9A
:203F8000829F2227B00DA11D621F739FB00DA11D621F839FA00D611D221F749F3327A00D05
:203FA000611D231F849F600D211D822F762F6A2F11249F5750408AF0E1F088234AF0EE0F9C
:203FC000FF1FBB1F661F771F881F91505040A9F79E3F510570F01BCF65CF5F3FECF3983E12
:203FE000DCF3869577956795B795F795E7959F5FC1F7FE2B880F911D9695879597F90895E3
:204000009F3F31F0915020F4879577956795B795880F911D9695879597F90895DF93CF93AF
:204020001F930F93FF92EF92DF927B018C01689405C0DA2EEF018DDFFE01E894A591259114
:20404000359145915591AEF3EF0120DEFE019701A801DA9479F7DF90EF90FF900F911F9164
:20406000CF91DF910895DB018F939F930E948E20BF91AF91A29F800D911DA39F900DB29F17
:20408000900D11240895AA1BBB1B51E107C0AA1FBB1FA617B70710F0A61BB70B881F991F1D
:2040A0005A95A9F780959095BC01CD010895A1E21A2EAA1BBB1BFD010DC0AA1FBB1FEE1F2E
:2040C000FF1FA217B307E407F50720F0A21BB30BE40BF50B661F771F881F991F1A9469F766
:2040E00060957095809590959B01AC01BD01CF010895EE0FFF1F0590F491E02D0994A29FF8
:20410000B001B39FC001A39F700D811D1124911DB29F700D811D1124911D08950E947F206E
:20412000A59F900DB49F900DA49F800D911D11240895E894DF93CF93FC01DB010E947F20F4
:204140007F936F93E9019A01AC01BF93AF933F932F93DF010E947F2026F46C1B7D0B820B1A
:20416000930B9E01EB01FC010E944521AF91BF912F913F910E944521BE01CF01F9012F91A0
:204180003F91CF91DF910895689401C0E8948F929F92CF93DF930E94D220DF91CF919F90F0
:2041A0008F90089588249924F401E401B0E49F93AA279A158B049C04ED05FE05CF05D007EB
:2041C000A10798F4AD2FDC2FCF2FFE2FE92D982C892E982F872F762F652F542F432F322FFC
:2041E0002227B85031F7BF9127C01B2EBF91BB27220F331F441F551F661F771F881F991FC0
:20420000881C991CEE1FFF1FCC1FDD1FAA1FBB1F8A149B04EC05FD05CE05DF05A007B1074A
:2042200048F08A189B08EC09FD09CE09DF09A00BB10B21601A94E1F62EF49401AF01BE01B4
:20424000CD01000C08950F93083090F0982F872F762F652F542F432F322F22270850F4CF1D
:20426000220F331F441F551F661F771F881F991F0A95B2F70F9108952A193B094C095D09A3
:204280006E097F09800B910B08950E947F20460F571FC81FD91F08F431960895AEE0B0E0F2
:2042A000E4E5F1E20C9430240D891E898F89988D2EE02C831A83098397FF02C080E090E8DE
:2042C00001979E838D83AE01455E5F4F698D7A8DCE0101960E94AA214D815E8157FD0AC07A
:2042E0002F813885421753070CF49A01F801E20FF31F10822E96E4E00C944C24AEE0B0E0BF
:20430000E4E8F1E20C9430248C01CA014EE04C831A83098377FF02C060E070E86150710991
:204320007E836D83A901BC01CE0101960E94AA214D815E8157FD0AC02F8138854217530767
:204340000CF49A01F801E20FF31F10822E96E4E00C944C24ACE0B0E0E0EBF1E20C942224FC
:204360007C016B018A01FC0117821682838181FFBDC1CE0101964C01F7019381F60193FD53
:20438000859193FF81916F01882309F4ABC1853239F493FD859193FF81916F01853229F46D
:2043A000B70190E00E949223E7CF512C312C20E02032A0F48B3269F030F4803259F083321E
:2043C00069F420612CC08D3239F0803339F4216026C02260246023C0286021C027FD27C087
:2043E00030ED380F3A3078F426FF06C0FAE05F9E300D1124532E13C08AE0389E300D112449
:20440000332E20620CC08E3221F426FD6BC1206406C08C3611F4206802C0883641F4F60184
:2044200093FD859193FF81916F018111C1CF982F9F7D9554933028F40C5F1F4FFFE3F983BE
:204440000DC0833631F0833771F0833509F05BC022C0F801808189830E5F1F4F44244394CC
:20446000512C540115C03801F2E06F0E711CF801A080B18026FF03C0652D70E002C06FEF4C
:204480007FEFC5012C870E9487232C0183012C852F77222E17C03801F2E06F0E711CF801AC
:2044A000A080B18026FF03C0652D70E002C06FEF7FEFC5012C870E947C232C012C85206833
:2044C000222E830123FC1BC0832D90E048165906B0F4B70180E290E00E9492233A94F4CF1B
:2044E000F50127FC859127FE81915F01B70190E00E94922331103A94F1E04F1A5108411480
:20450000510471F7E5C0843611F0893639F5F80127FF07C060817181828193810C5F1F4FE8
:2045200008C060817181882777FD8095982F0E5F1F4F2F76B22E97FF09C0909580957095E3
:2045400061957F4F8F4F9F4F2068B22E2AE030E0A4010E94C423A82EA81844C0853729F4A8
:204560002F7EB22E2AE030E025C0F22FF97FBF2E8F36C1F018F4883579F0B4C0803719F04D
:20458000883721F0AFC02F2F2061B22EB4FE0DC08B2D8460B82E09C024FF0AC09F2F9660A2
:2045A000B92E06C028E030E005C020E130E002C020E132E0F801B7FE07C060817181828140
:2045C00093810C5F1F4F06C06081718180E090E00E5F1F4FA4010E94C423A82EA818FB2DBE
:2045E000FF77BF2EB6FE0BC02B2D2E7FA51450F4B4FE0AC0B2FC08C02B2D2E7E05C07A2C76
:204600002B2D03C07A2C01C0752C24FF0DC0FE01EA0DF11D8081803311F4297E09C022FF39
:2046200006C07394739404C0822F867809F0739423FD13C020FF06C05A2C731418F4530CE3
:204640005718732C731468F4B70180E290E02C870E94922373942C85F5CF731410F437187F
:2046600001C0312C24FF12C0B70180E390E02C870E9492232C8522FF17C021FF03C088E599
:2046800090E002C088E790E0B7010CC0822F867859F021FD02C080E201C08BE227FD8DE28A
:2046A000B70190E00E949223A51438F4B70180E390E00E9492235A94F7CFAA94F401EA0DD6
:2046C000F11D8081B70190E00E949223A110F5CF332009F451CEB70180E290E00E94922387
:2046E0003A94F6CFF7018681978102C08FEF9FEF2C96E2E10C943E24FC01059061507040C8
:204700000110D8F7809590958E0F9F1F0895FC016150704001900110D8F7809590958E0FE1
:204720009F1F08950F931F93CF93DF93182F092FEB018B8181FD03C08FEF9FEF20C082FFD1
:2047400010C04E815F812C813D81421753077CF4E881F9819F012F5F3F4F398328831083B3
:2047600006C0E885F985812F0995892B29F72E813F812F5F3F4F3F832E83812F902FDF9189
:20478000CF911F910F910895FA01AA27283051F1203181F1E8946F936E7F6E5F7F4F8F4FBF
:2047A0009F4FAF4FB1E03ED0B4E03CD0670F781F891F9A1FA11D680F791F8A1F911DA11D7E
:2047C0006A0F711D811D911DA11D20D009F468943F912AE0269F11243019305D3193DEF69D
:2047E000CF010895462F4770405D4193B3E00FD0C9F7F6CF462F4F70405D4A3318F0495DBC
:2048000031FD4052419302D0A9F7EACFB4E0A6959795879577956795BA95C9F700976105AE
:20482000710508959B01AC010A2E06945795479537952795BA95C9F7620F731F841F951F91
:20484000A01D08952F923F924F925F926F927F928F929F92AF92BF92CF92DF92EF92FF92C0
:204860000F931F93CF93DF93CDB7DEB7CA1BDB0B0FB6F894DEBF0FBECDBF09942A883988D5
:2048800048885F846E847D848C849B84AA84B984C884DF80EE80FD800C811B81AA81B981B4
:2048A000CE0FD11D0FB6F894DEBF0FBECDBFED010895F894FFCF0100000092140A010E142D
:2048C00010400000008084022A005F0000000000C50C001E00000000C50C001E000000001B
:2048E000841C001E061C1F1C111C621CFFFFFFFFFFFFFFFFFFFFFFFFFFFFFFFFFFFFFFFF06
:20490000CF93DF93EC016A817B810E946F23882321F0CE010E94522481E0DF91CF9108954A
:20492000FC01628173810E949A230895CF93DF93EC01EE85FF85309709F009956A817B81AA
:20494000CE010E94CD23DF91CF910895FC01362F242F62817381432F0E94FD230895EF92AB
:204960000F93FC01362F542FA22FE02E62817381432F252F0A2F0E940D240F91EF9008956C
:20498000FC0160A308951F93CF93DF93EC011D821C821F821E82198681E0888782E28A8705
:2049A0001F861E86FE01B39680E09FEF91938F5F8E30E1F711E018A3CE010E9423221F8BC4
:2049C000188E198E80E48A8F1B8E81EB96E29AAB89ABDF91CF911F910895BF92CF92DF92C7
:2049E000EF92FF920F931F937C016B01142FB22E0E94C324F701D382C28215A3B4A203A377
:204A0000C7010E9480241F910F91FF90EF90DF90CF90BF900895DC01FB01108212968C9140
:204A20001297818315968C9115978150828313968C9183830895DC01FB01218183818130E6
:204A400021F0833029F0322F05C0322F385F02C0322F285040E013968C911397821708F09F
:204A600041E050E012968C91381708F051E090E0321708F491E0892F8423942B9523892BF8
:204A80000895FC01362F668177818281481B483020F08581680F711D477081E090E002C0F5
:204AA000880F991F4A95E2F7FB01E30FF11D3081222311F0382B02C0809538233083089517
:204AC000FC01DB0111964C9111978281481760F08381841748F06C918581681728F4CF01DA
:204AE00014962C910E9441250895CF92DF92FF920F931F93CF93DF936C01EB01FA808B8140
:204B0000813061F0813028F0823059F0833019F40AC001E001C000E010E007C000E011E03B
:204B200004C00FEFF9CF00E01FEFF7FE04C0C601BE010E9460258881800F88838981810F5A
:204B40008983FF0C91F7DF91CF911F910F91FF90DF90CF9008950F931F93CF93DF93FB0178
:204B60008901C281D3814233D9F0433340F4453161F14731E1F1443109F043C016C0463459
:204B8000D9F14734D9F14B33E1F5CE01B9010E941B258823B1F1CE01B8010E94752531C045
:204BA000CE01B9010E9460252CC0EE81FF818D8190E0880F991F8E0F9F1F1192E817F907A0
:204BC000E1F7CE010E94F52A1CC0CE010E94FC2A8823C1F0EE81FF818D8190E0880F991FE2
:204BE0008E0F9F1F1192E817F907E1F70AC0CE01B9010E940B2505C08D8101C08981F80124
:204C0000808381E0DF91CF911F910F910895CF92DF92EF92FF920F931F93CF93DF93EC017A
:204C2000C62ED42EE22EF42E122F0AC0CE016C2D4F2D21E00FEF0E94AF24185088E0F80E13
:204C40001830A0F79E2D97704E2D487F4D0D992381F087E098279F5F97700FEF10E002C0FF
:204C6000000F111F9A95E2F7CE016C2D21E00E94AF24DF91CF911F910F91FF90EF90DF9072
:204C8000CF900895CF92DF92EF92FF920F931F93CF93DF93EC01D62EC42EE22EF62E122FB4
:204CA0000AC0CE016F2D4C2D20E00FEF0E94AF24185088E0F80E1830A0F79E2D97706E2DB1
:204CC000687F6D0D992381F087E098279F5F97700FEF10E002C0000F111F9A95E2F7CE0155
:204CE0004C2D20E00E94AF24DF91CF911F910F91FF90EF90DF90CF900895DF92EF92FF92AA
:204D00000F931F93CF93DF93EC01F62E142FD22EE02E0E94A6298823E1F0CE016F2D412F41
:204D20002D2D0E944226CE016F2D412F2E2D0E9407266F2D61506D0DCE01412F2E2D0E9407
:204D4000072611501E0DCE016F2D412F2D2D0E944226DF91CF911F910F91FF90EF90DF90BE
:204D6000089508951F920F920FB60F9211242F933F938F939F93AF93BF93809184049091D6
:204D80008504A0918604B0918704309188040196A11DB11D232F2D5F2D3720F02D57019626
:204DA000A11DB11D209388048093840490938504A0938604B093870480918004909181041B
:204DC000A0918204B09183040196A11DB11D8093800490938104A0938204B0938304BF911F
:204DE000AF919F918F913F912F910F900FBE0F901F9018958FB7F8942091840430918504D7
:204E000040918604509187048FBFB901CA010895789484B5826084BD84B5816084BD85B55E
:204E2000826085BD85B5816085BDEEE6F0E0808181608083E1E8F0E0108280818260808357
:204E4000808181608083E0E8F0E0808181608083E1EBF0E0808184608083E0EBF0E08081D0
:204E600081608083EAE7F0E08081846080838081826080838081816080838081806880830E
:204E80001092C100089508951F920F920FB60F9211242F933F934F938F939F93EF93FF93AA
:204EA0008091C00082FD1DC04091C6002091C9043091CA042F5F3F4F2F7330708091CB04E3
:204EC0009091CC042817390771F0E091C904F091CA04E757FB4F40833093CA042093C90418
:204EE00002C08091C600FF91EF919F918F914F913F912F910F900FBE0F901F901895E09171
:204F00001D05F0911E05E05CFF4F8191919120813181821B930B8F739070892B11F00E9426
:204F2000432708951F920F920FB60F9211242F933F938F939F93EF93FF9320910D053091FD
:204F40000E0580910F05909110052817390731F48091C1008F7D8093C10014C0E0910F0534
:204F6000F0911005E353FB4F208180910F059091100501968F7390709093100580930F0527
:204F80002093C600FF91EF919F918F913F912F910F900FBE0F901F901895AF92BF92DF923E
:204FA000EF92FF920F931F93CF93DF93EC017A018B01DD24403081EE580780E0680780E055
:204FC000780711F0DD24D39491E0A92EB12CEC89FD89DD2069F0C50108A002C0880F991FF4
:204FE0000A94E2F7808360E079E08DE390E005C0108260E874E88EE190E0A80197010E9401
:20500000E72D2150304040405040569547953795279580E12030380720F0DD2011F0DD243D
:20502000D6CFE889F9893083EA89FB89208319A2EE89FF89408121E030E0C9010C8C02C0DB
:20504000880F991F0A94E2F7482B4083EE89FF894081C9010D8C02C0880F991F0A94E2F7A9
:20506000482B4083EE89FF894081C9010E8C02C0880F991F0A94E2F7482B4083EE89FF8919
:2050800080810F8C02C0220F331F0A94E2F7209528232083DF91CF911F910F91FF90EF90E7
:2050A000DF90BF90AF900895DC011C96ED91FC911D97E05CFF4F2191319180819181281BB4
:2050C000390B2F733070C9010895DC011C96ED91FC911D97E05CFF4F20813181E054F04054
:2050E000DF01AE5BBF4F8D919C9111972817390719F42FEF3FEF07C08D919C91E80FF91FCD
:205100008081282F30E0C9010895DC011C96ED91FC911D97E05CFF4F20813181E054F04031
:20512000DF01AE5BBF4F8D919C9111972817390719F42FEF3FEF10C08D919C911197E80FF3
:20514000F91F20818D919C91119701968F73907011969C938E9330E0C9010895DC01919698
:205160008C919197882339F05496ED91FC915597808186FFF9CF91961C920895CF93DF93A1
:20518000EC01EE85FF85E05CFF4F20813181E054F0402F5F3F4F2F733070DF01AE5BBF4F95
:2051A0008D919C91119728173907D1F3E05CFF4F80819181E054F040E80FF91F6083EE8553
:2051C000FF85E05CFF4F31832083EE89FF89208181E090E00F8C02C0880F991F0A94E2F7D6
:2051E000282B208381E089A3EC89FD8980818064808381E090E0DF91CF9108951092140550
:205200001092130588EE93E0A0E0B0E08093150590931605A0931705B093180586E292E0E7
:20522000909312058093110589E894E090931E0580931D058DEC94E09093200580931F053F
:2052400085EC90E0909322058093210584EC90E0909324058093230580EC90E09093260559
:205260008093250581EC90E0909328058093270582EC90E090932A058093290586EC90E032
:2052800090932C0580932B0584E080932D0583E080932E0587E080932F0585E080933005CA
:2052A00081E0809331050895CF93DF930E9408270E948417CFE7D7E20E9445172097E1F3CD
:2052C0000E947F27F9CFCF92DF92EF92FF920F931F93CF93DF937C016B018A01C0E0D0E0EE
:2052E0000FC0D6016D916D01D701ED91FC910190F081E02DC7010995C80FD91F01501040D4
:205300000115110571F7CE01DF91CF911F910F91FF90EF90DF90CF900895DC01ED91FC91A9
:205320000190F081E02D099508950F93FC0113AE14AE15AE04960E94ED240F91089570E064
:20534000382F20E0622B732BCB0108950F93FC014150040F4F5F94A986A9841718F0091732
:2053600028F402C0091798F0041788F46150260F6F5F93A985A9861718F0291718F005C040
:20538000291728F080E0261718F481E001C080E00F910895FB010480F581E02D61E020E009
:2053A00030E009950895FB010480F581E02D63E020E030E009950895FB010480F581E02D0E
:2053C00064E040E020E030E009950895FB010480F581E02D64E041E020E030E0099508956B
:2053E000FB010480F581E02D62E020E030E009950895FB010480F581E02D65E020E030E0C5
:2054000009950895FB010480F581E02D66E009950895CF92DF92EF92FF920F931F93CF9333
:20542000DF937C01EB016A0100E0F6011491002361F41F3F11F401E045C0C701BE01412FF2
:205440000E94F9298823F1F541C01F3F41F4C701BE014FEF0E94F929882399F537C01E3F4D
:2054600011F481E034C0103F60F5103E38F01F70C701BE01412F0E94F02923C0103D38F01F
:205480001F70C701BE01412F0E94D3291AC0103C80F0C701BE010E94DC291295107F1E5F71
:2054A000812F90E00E94EB2AC701BE010E94E62904C01E3B30F417FD04C0812F90E00E9402
:2054C000EB2A00E00894C11CD11CAFCF80E0DF91CF911F910F91FF90EF90DF90CF900895FA
:2054E0000F931F93CF93DF93EC01162F042F643009F445C0653040F4623081F1633080F5B4
:20550000613009F062C009C0663009F445C06630E8F1673009F059C04CC00E94A52B8DE07B
:2055200061E00E94122B8DE060E00E94512B8BE061E00E94122B8BE060E00E94512B8AE0C2
:2055400061E00E94122B8AE061E00E94512B1CBC80E58CBD0230C8F51DBD37C061E014C007
:20556000442319F462E041E007C064E040E00E94BD2BCE0162E040E00E94BD2B26C08BA1D2
:205580008F3F19F1CE0160E0402FF6CF4EBD0DB407FEFDCF8EB519C0F90108C080818EBD29
:2055A0000DB407FEFDCF31968EB501500023B1F70CC0F90108C084918EBD0DB407FEFDCFB3
:2055C0008EB5319601500023B1F781E0DF91CF911F910F9108952EE93FE004C0F9013197CB
:2055E000F1F701970097D1F70895FC01128280818150838314820895FC0120818281820F61
:2056000082839181891710F080E0089584818F5F84838381820F891710F0892F8150838318
:2056200081E00895CF93DF93482F50E0CA018956944FFC0134914D57544FFA0184918823A0
:2056400069F190E0880F991FFC01EB59F44FA591B491FC01E159F44FC591D491662351F42F
:205660002FB7F8948C91932F909589238C93888189230BC0623061F42FB7F8948C91932F31
:20568000909589238C938881832B88832FBF06C09FB7F8948C91832B8C939FBFDF91CF91AA
:2056A0000895482F50E0CA018555944FFC012491CA018956944FFC0194914D57544FFA017B
:2056C0003491332309F440C0222351F1233071F0243028F42130A1F0223011F514C02630A3
:2056E000B1F02730C1F02430D9F404C0809180008F7703C0809180008F7D8093800010C0C2
:2057000084B58F7702C084B58F7D84BD09C08091B0008F7703C08091B0008F7D8093B0001F
:20572000E32FF0E0EE0FFF1FE159F44FA591B4912FB7F894662321F48C919095892302C0B4
:205740008C91892B8C932FBF08951F93CF93DF93EC01A39610E088818F3F39F061E00E944F
:20576000122B888161E00E94512B1F5F21961D3091F7DF91CF911F910895FC01E60FF11D5D
:2057800083A18F3F19F0642F0E94512B08955058BB27AA270ED0E5C0D6D030F0DBD020F061
:2057A00031F49F3F11F41EF4CBC00EF4E095E7FBC1C0E92FE7D080F3BA17620773078407E9
:2057C000950718F071F49EF5FFC00EF4E0950B2EBA2FA02D0B01B90190010C01CA01A00138
:2057E0001124FF27591B99F0593F50F4503E68F11A16F040A22F232F342F4427585FF3CFC4
:20580000469537952795A795F0405395C9F77EF41F16BA0B620B730B840BBAF09150A1F00F
:20582000FF0FBB1F661F771F881FC2F70EC0BA0F621F731F841F48F4879577956795B7950C
:20584000F7959E3F08F0B3CF9395880F08F09927EE0F97958795089504D06894B111B5C005
:20586000089598D088F09F5790F0B92F9927B751A0F0D1F0660F771F881F991F1AF0BA9571
:20588000C9F712C0B13081F09FD0B1E008959CC0672F782F8827B85F39F0B93FCCF386952D
:2058A00077956795B395D9F73EF490958095709561957F4F8F4F9F4F0895E89409C097FB53
:2058C0003EF490958095709561957F4F8F4F9F4F9923A9F0F92F96E9BB279395F69587951A
:2058E00077956795B795F111F8CFFAF4BB0F11F460FF1BC06F5F7F4F8F4F9F4F16C08823AB
:2059000011F096E911C0772321F09EE8872F762F05C0662371F096E8862F70E060E02AF01E
:205920009A95660F771F881FDAF7880F9695879597F9089597F99F6780E870E060E008957F
:205940009FEF80EC089500240A941616170618060906089500240A941216130614060506B3
:205960000895092E0394000C11F4882352F0BB0F40F4BF2B11F460FF04C06F5F7F4F8F4F34
:205980009F4F089557FD9058440F551F59F05F3F71F04795880F97FB991F61F09F3F79F0DC
:2059A00087950895121613061406551FF2CF4695F1DF08C0161617061806991FF1CF869531
:2059C0007105610508940895E894BB2766277727CB0197F908950EF0A6C0B2CF6894AACFD6
:2059E000D9DFC8F39923D1F3C6F3DF93CF931F930F93FF92C92FDD2788232AF02197660F54
:205A0000771F881FDAF720E030E040E85FEB9FE3883920F0803E30F021968F77B9DEE8E6A3
:205A2000F0E003C0B5DEE5E9F0E08DD08B01BE01EC01FB2E6F5771097595771F880B990BCD
:205A40003EDF28E132E741E35FE316D0AF2D9801AE01FF900F911F91CF91DF91AADE81CF10
:205A60000BD07FCF70DF28F075DF18F0952309F061CF66CF1124A9CF85DFA0F3959FD1F388
:205A8000950F50E0551F629FF001729FBB27F00DB11D639FAA27F00DB11DAA1F649F662717
:205AA000B00DA11D661F829F2227B00DA11D621F739FB00DA11D621F839FA00D611D221FE4
:205AC000749F3327A00D611D231F849F600D211D822F762F6A2F11249F5750408AF0E1F029
:205AE00088234AF0EE0FFF1FBB1F661F771F881F91505040A9F79E3F510570F01BCF65CF48
:205B00005F3FECF3983EDCF3869577956795B795F795E7959F5FC1F7FE2B880F911D96959D
:205B2000879597F908959F3F49F0915028F4869577956795B7959F5F80389F4F880F969533
:205B4000879597F90895DF93CF931F930F93FF92EF92DF927B018C01689405C0DA2EEF018F
:205B60008BDFFE01E894A5912591359145915591AEF3EF011EDEFE019701A801DA9479F727
:205B8000DF90EF90FF900F911F91CF91DF910895629FD001739FF001829FE00DF11D649FD7
:205BA000E00DF11D929FF00D839FF00D749FF00D659FF00D9927729FB00DE11DF91F639FE6
:205BC000B00DE11DF91FBD01CF0111240895A1E21A2EAA1BBB1BFD010DC0AA1FBB1FEE1FB1
:205BE000FF1FA217B307E407F50720F0A21BB30BE40BF50B661F771F881F991F1A9469F72B
:205C000060957095809590959B01AC01BD01CF0108952F923F924F925F926F927F928F9245
:205C20009F92AF92BF92CF92DF92EF92FF920F931F93CF93DF93CDB7DEB7CA1BDB0B0FB6EC
:205C4000F894DEBF0FBECDBF09942A88398848885F846E847D848C849B84AA84B984C88426
:205C6000DF80EE80FD800C811B81AA81B981CE0FD11D0FB6F894DEBF0FBECDBFED010895AF
:205C8000EE0FFF1F0590F491E02D0994F894FFCF5F002A0000010202030303030404040421
:205CA00004040404050505050505050505050505050505050606060606060606060606063C
:205CC0000606060606060606060606060606060606060606070707070707070707070707F8
:205CE0000707070707070707070707070707070707070707070707070707070707070707C4
:205D0000070707070707070707070707070707070707070708080808080808080808080897
:205D2000080808080808080808080808080808080808080808080808080808080808080863
:205D4000080808080808080808080808080808080808080808080808080808080808080843
:205D6000080808080808080808080808080808080808080808080808080808080808080823
:205D8000080808080808080808080808080808080808080810400000008080038320040267
:205DA000702A00000000D418632900000000D418632900000000BE28632954288528652831
:205DC000AE28FFFFFFFFFFFFFFFFFFFFFFFFFFFFFFFFFFFFFFFFFFFFFFFFFFFFFFFFFFFF0B
:205DE000FFFFFFFFFFFFFFFFFFFFFFFFFFFFFFFFFFFFFFFFFFFFFFFFFFFFFFFFFFFFFFFFC3
:205E00000707070707070707070707070707070707070707070707070707070707070707A2
:205E2000070707070707070707070707070707070707070707070808080808080808080878
:205E4000080808080808080808080808080808080808080808080808080808080808080842
:205E6000080808080808080808080808080808080808080808080808080808080808080822
:205E8000080808080808080808080808080808080808080808080808080808080808080802
:205EA00008080808080808080808080808080808080808080808104000000080800373204C
:205EC0000402012B00000000C418532900000000C418532900000000AE2853294428752885
:205EE00055289E28FFFFFFFFFFFFFFFFFFFFFFFFFFFFFFFFFFFFFFFFFFFFFFFFFFFFFFFF7B
:205F000069295A288B286B28B428FFFFFFFFFFFFFFFFFFFFFFFFFFFFFFFFFFFFFFFFFFFF61
:205F2000FFFFFFFFFFFFFFFFFFFFFFFFFFFFFFFFFFFFFFFFFFFFFFFFFFFFFFFFFFFFFFFF81
:205F4000FFFFFFFFFFFFFFFFFFFFFFFFFFFFFFFFFFFFFFFFFFFFFFFFFFFFFFFFFFFFFFFF61
:205F6000FFFFFFFFFFFFFFFFFFFFFFFFFFFFFFFFFFFFFFFFFFFFFFFFFFFFFFFFFFFFFFFF41
:205F8000EF92DF927B018C01689405C0DA2EEF018BDFFE01E894A5912591359145915591FA
:205FA000AEF3EF011EDEFE019701A801DA9479F7DF90EF90FF900F911F91CF91DF910895FC
:205FC000629FD001739FF001829FE00DF11D649FE00DF11D929FF00D839FF00D749FF00D75
:205FE000659FF00D9927729FB00DE11DF91F639FB00DE11DF91FBD01CF0111240895AA1B02
:20600000BB1B51E107C0AA1FBB1FA617B70710F0A61BB70B881F991F5A95A9F780959095E8
:20602000BC01CD010895A1E21A2EAA1BBB1BFD010DC0AA1FBB1FEE1FFF1FA217B307E407DB
:20604000F50720F0A21BB30BE40BF50B661F771F881F991F1A9469F760957095809590950E
:206060009B01AC01BD01CF0108952F923F924F925F926F927F928F929F92AF92BF92CF92F1
:20608000DF92EF92FF920F931F93CF93DF93CDB7DEB7CA1BDB0B0FB6F894DEBF0FBECDBF2A
:2060A00009942A88398848885F846E847D848C849B84AA84B984C884DF80EE80FD800C816D
:2060C0001B81AA81B981CE0FD11D0FB6F894DEBF0FBECDBFED010895EE0FFF1F0590F491ED
:2060E000E02D0994F894FFCF5F002A000001020203030303040404040404040405050505CE
:206100000505050505050505050505050606060606060606060606060606060606060606CB
:2061200006060606060606060606060607070707070707070707070707070707070707078B
:2061400007070707070707070707070707070707070707070707070707070707070707075F
:2061600007070707070707070707070708080808080808080808080808080808080808082B
:206180000808080808080808080808080808080808080808080808080808080808080808FF
:2061A0000808080808080808080808080808080808080808080808080808080808080808DF
:2061C0000808080808080808080808080808080808080808080808080808080808080808BF
:2061E0000808080808080808080808081040000000807803BC210402882C000000005818ED
:20620000DD2A000000005818DD2A00000000382ADD2ACE29FF29DF29282AFFFFFFFFFFFF24
:20622000FFFFFFFFFFFFFFFFFFFFFFFFFFFFFFFFFFFFFFFFFFFFFFFFFFFFFFFFFFFFFFFF7E
:20624000FFFFFFFFFFFFFFFFFFFFFFFFFFFFFFFFFFFFFFFFFFFFFFFFFFFFFFFFFFFFFFFF5E
:20626000FFFFFFFFFFFFFFFFFFFFFFFFFFFFFFFFFFFFFFFFFFFFFFFFFFFFFFFFFFFFFFFF3E
:206280000808080808080808080808080808080808080808080808080808080808080808FE
:2062A0000808080808080808080808080808080808080808080808080808080808080808DE
:2062C000080808080808080808081040000000806C033D220802092D00000000841A5E2B69
:2062E00000000000841A5E2B00000000B92A5E2B4F2A802A602AA92AFFFFFFFFFFFFFFFF93
:20630000FFFFFFFFFFFFFFFFFFFFFFFFFFFFFFFFFFFFFFFFFFFFFFFFFFFFFFFFFFFFFFFF9D
:20632000FFFFFFFFFFFFFFFFFFFFFFFFFFFFFFFFFFFFFFFFFFFFFFFFFFFFFFFFFFFFFFFF7D
:20634000FFFFFFFFFFFFFFFFFFFFFFFFFFFFFFFFFFFFFFFFFFFFFFFFFFFFFFFFFFFFFFFF5D
:20636000FFFFFFFFFFFFFFFFFFFFFFFFFFFFFFFFFFFFFFFFFFFFFFFFFFFFFFFFFFFFFFFF3D
:207800000C94343C0C94513C0C94513C0C94513C0C94513C0C94513C0C94513C0C94513C1D
:207820000C94513C0C94513C0C94513C0C94513C0C94513C0C94513C0C94513C0C94513CE0
:207840000C94513C0C94513C0C94513C0C94513C0C94513C0C94513C0C94513C0C94513CC0
:207860000C94513C0C94513C11241FBECFEFD8E0DEBFCDBF11E0A0E0B1E0ECE9FFE702C07E
:2078800005900D92A230B107D9F712E0A2E0B1E001C01D92AD30B107E1F70E942D3D0C94CC
:2078A000CC3F0C94003C982F9595959595959595905D8F708A307CF0282F295A8091C000B5
:2078C00085FFFCCF9093C6008091C00085FFFCCF2093C6000895282F205DF0CF982F8091CF
:2078E000C00085FFFCCF9093C6000895EF92FF920F931F93EE24FF2487018091C00087FD7B
:2079000017C00894E11CF11C011D111D81E4E81682E4F8068FE0080780E0180770F3E09106
:207920000401F091050109958091C00087FFE9CF8091C6001F910F91FF90EF9008950E949A
:20794000763C982F8091C00085FFFCCF9093C60091362CF490330CF09053892F08959755DB
:20796000892F08951F930E949F3C182F0E949F3C1295107F810F1F9108951F93182F882308
:2079800021F00E94763C1150E1F71F9108951F93182F0E94763C803249F0809103018F5FC1
:2079A000809303018530C1F01F9108958091C00085FFFCCF84E18093C6008091C00085FF4A
:2079C000FCCF1093C6008091C00085FFFCCF80E18093C6001F910895E0910401F0910501CF
:2079E00009951F9108950E94763C803241F0809103018F5F80930301853081F00895809177
:207A0000C00085FFFCCF84E18093C6008091C00085FFFCCF80E18093C6000895E0910401AC
:207A2000F09105010995089540E951E08823A1F02D9A28EE33E0FA013197F1F72150304072
:207A4000D1F72D9828EE33E0FA013197F1F721503040D1F7815061F708953F924F925F92B3
:207A60006F927F928F929F92AF92BF92CF92DF92EF92FF920F931F93CF93DF93000080E1A3
:207A80008093C4001092C50088E18093C10086E08093C2005098589A259A81E00E94143D43
:207AA00024E1F22E9EE1E92E85E9D82E0FE0C02E10E1B12EAA24A394B1E49B2EA6E58A2E44
:207AC000F2E57F2EE0E26E2E79E4572E63E5462E50E5352E0E94763C8033B1F18133B9F187
:207AE000803409F46FC0813409F476C0823409F485C0853409F488C0803531F1823521F128
:207B0000813511F1853509F485C0863509F48DC0843609F496C0843709F403C1853709F46A
:207B200072C1863709F466C0809103018F5F80930301853079F6E0910401F0910501099559
:207B40000E94763C803351F60E94F33CC3CF0E94763C803249F78091C00085FFFCCFF0928C
:207B6000C6008091C00085FFFCCF9092C6008091C00085FFFCCF8092C6008091C00085FFEA
:207B8000FCCF7092C6008091C00085FFFCCF6092C6008091C00085FFFCCF5092C6008091A1
:207BA000C00085FFFCCF4092C6008091C00085FFFCCF3092C6008091C00085FFFCCFB09214
:207BC000C60088CF0E94763C863808F4BDCF0E94763C0E94F33C7ECF0E94763C803809F473
:207BE0009CC0813809F40BC1823809F43CC1883909F48FC080E00E94C73C6CCF84E10E949F
:207C0000BD3C0E94F33C66CF85E00E94BD3C0E94F33C60CF0E94763C809306010E94763CA3
:207C2000809307010E94F33C55CF0E94763C803309F41DC183E00E94BD3C80E00E94C73C4F
:207C400049CF0E94763C809309020E94763C8093080280910C028E7F80930C020E94763C88
:207C6000853409F415C18091080290910902892B89F000E010E00E94763CF801E85FFE4F53
:207C800080830F5F1F4F80910802909109020817190788F30E94763C803209F045CF8091E0
:207CA0000C0280FF01C16091060170910701660F771F7093070160930601A0910802B091E8
:207CC00009021097C9F0E8E0F1E09B01AD014E0F5F1FF999FECF32BD21BD819180BDFA9A6C
:207CE000F99A2F5F3F4FE417F50799F76A0F7B1F70930701609306018091C00085FFFCCF16
:207D0000F092C6008091C00085FFFCCFB092C600E1CE83E00E94C73CDDCE82E00E94C73C8A
:207D2000D9CE0E94763C809309020E94763C809308028091060190910701880F991F909306
:207D40000701809306010E94763C853409F4A6C080910C028E7F80930C020E94763C80323E
:207D600009F0B8CE8091C00085FFFCCFF092C600609108027091090261157105B9F140E05F
:207D800050E080910C02A82FA170B82FB27011C0BB2309F45CC0E0910601F0910701319613
:207DA000F0930701E09306014F5F5F4F46175707E8F4AA2369F3F999FECF209106013091CA
